{
  "contractName": "OpenCleanUpRoles",
  "abi": [
    {
      "anonymous": false,
      "inputs": [
        {
          "indexed": true,
          "internalType": "bytes32",
          "name": "role",
          "type": "bytes32"
        },
        {
          "indexed": true,
          "internalType": "address",
          "name": "account",
          "type": "address"
        }
      ],
      "name": "GrantRole",
      "type": "event"
    },
    {
      "anonymous": false,
      "inputs": [
        {
          "indexed": true,
          "internalType": "bytes32",
          "name": "role",
          "type": "bytes32"
        },
        {
          "indexed": true,
          "internalType": "address",
          "name": "account",
          "type": "address"
        }
      ],
      "name": "RevokeRole",
      "type": "event"
    },
    {
      "inputs": [],
      "name": "FOUNDATION",
      "outputs": [
        {
          "internalType": "bytes32",
          "name": "",
          "type": "bytes32"
        }
      ],
      "stateMutability": "view",
      "type": "function",
      "constant": true
    },
    {
      "inputs": [],
      "name": "NONE",
      "outputs": [
        {
          "internalType": "bytes32",
          "name": "",
          "type": "bytes32"
        }
      ],
      "stateMutability": "view",
      "type": "function",
      "constant": true
    },
    {
      "inputs": [],
      "name": "TOKEN_DISTRIBUTER",
      "outputs": [
        {
          "internalType": "bytes32",
          "name": "",
          "type": "bytes32"
        }
      ],
      "stateMutability": "view",
      "type": "function",
      "constant": true
    },
    {
      "inputs": [],
      "name": "TOKEN_RECEIVER",
      "outputs": [
        {
          "internalType": "bytes32",
          "name": "",
          "type": "bytes32"
        }
      ],
      "stateMutability": "view",
      "type": "function",
      "constant": true
    },
    {
      "inputs": [
        {
          "internalType": "bytes32",
          "name": "",
          "type": "bytes32"
        },
        {
          "internalType": "address",
          "name": "",
          "type": "address"
        }
      ],
      "name": "roles",
      "outputs": [
        {
          "internalType": "bool",
          "name": "",
          "type": "bool"
        }
      ],
      "stateMutability": "view",
      "type": "function",
      "constant": true
    },
    {
      "inputs": [
        {
          "internalType": "bytes32",
          "name": "_role",
          "type": "bytes32"
        },
        {
          "internalType": "address",
          "name": "_account",
          "type": "address"
        }
      ],
      "name": "grantRole",
      "outputs": [],
      "stateMutability": "nonpayable",
      "type": "function"
    },
    {
      "inputs": [],
      "name": "previewGrantRole",
      "outputs": [],
      "stateMutability": "nonpayable",
      "type": "function"
    },
    {
      "inputs": [
        {
          "internalType": "bytes32",
          "name": "_role",
          "type": "bytes32"
        },
        {
          "internalType": "address",
          "name": "_account",
          "type": "address"
        }
      ],
      "name": "revokeRole",
      "outputs": [],
      "stateMutability": "nonpayable",
      "type": "function"
    },
    {
      "inputs": [
        {
          "internalType": "address",
          "name": "_address",
          "type": "address"
        }
      ],
      "name": "roleOf",
      "outputs": [
        {
          "internalType": "bytes32",
          "name": "role",
          "type": "bytes32"
        }
      ],
      "stateMutability": "view",
      "type": "function",
      "constant": true
    }
  ],
  "bytecode": "0x608060405234801561001057600080fd5b50610c01806100206000396000f3fe608060405234801561001057600080fd5b50600436106100935760003560e01c8063a5d7827e11610066578063a5d7827e1461010e578063ba0ae61e1461013e578063d547741f1461015c578063f8fc08b914610178578063ff65f23c146101a857610093565b80630d40b066146100985780632f2ff15d146100b657806365df2e51146100d257806383525394146100f0575b600080fd5b6100a06101b2565b6040516100ad9190610afe565b60405180910390f35b6100d060048036038101906100cb91906108f5565b6101da565b005b6100da61034c565b6040516100e79190610afe565b60405180910390f35b6100f8610374565b6040516101059190610afe565b60405180910390f35b610128600480360381019061012391906108cc565b61039c565b6040516101359190610afe565b60405180910390f35b6101466105e5565b6040516101539190610afe565b60405180910390f35b610176600480360381019061017191906108f5565b61060d565b005b610192600480360381019061018d91906108f5565b61077f565b60405161019f9190610ae3565b60405180910390f35b6101b06107ae565b005b6040516020016101c190610ab9565b6040516020818303038152906040528051906020012081565b6040516020016101e990610aa4565b6040516020818303038152906040528051906020012060008082815260200190815260200160002060003373ffffffffffffffffffffffffffffffffffffffff1673ffffffffffffffffffffffffffffffffffffffff16815260200190815260200160002060009054906101000a900460ff1661029b576040517f08c379a000000000000000000000000000000000000000000000000000000000815260040161029290610b19565b60405180910390fd5b600160008085815260200190815260200160002060008473ffffffffffffffffffffffffffffffffffffffff1673ffffffffffffffffffffffffffffffffffffffff16815260200190815260200160002060006101000a81548160ff0219169083151502179055508173ffffffffffffffffffffffffffffffffffffffff16837f5a06360d65acf95e98445dc834f205063424c636e65418d928cdfabc33a9539960405160405180910390a3505050565b60405160200161035b90610aa4565b6040516020818303038152906040528051906020012081565b60405160200161038390610a8f565b6040516020818303038152906040528051906020012081565b60008060006040516020016103b090610aa4565b60405160208183030381529060405280519060200120815260200190815260200160002060008373ffffffffffffffffffffffffffffffffffffffff1673ffffffffffffffffffffffffffffffffffffffff16815260200190815260200160002060009054906101000a900460ff166105b65760008060405160200161043590610ab9565b60405160208183030381529060405280519060200120815260200190815260200160002060008373ffffffffffffffffffffffffffffffffffffffff1673ffffffffffffffffffffffffffffffffffffffff16815260200190815260200160002060009054906101000a900460ff16610588576000806040516020016104ba90610ace565b60405160208183030381529060405280519060200120815260200190815260200160002060008373ffffffffffffffffffffffffffffffffffffffff1673ffffffffffffffffffffffffffffffffffffffff16815260200190815260200160002060009054906101000a900460ff1661055a5760405160200161053c90610a8f565b60405160208183030381529060405280519060200120905080610583565b60405160200161056990610ace565b604051602081830303815290604052805190602001209050805b6105b1565b60405160200161059790610ab9565b604051602081830303815290604052805190602001209050805b6105df565b6040516020016105c590610aa4565b604051602081830303815290604052805190602001209050805b50919050565b6040516020016105f490610ace565b6040516020818303038152906040528051906020012081565b60405160200161061c90610aa4565b6040516020818303038152906040528051906020012060008082815260200190815260200160002060003373ffffffffffffffffffffffffffffffffffffffff1673ffffffffffffffffffffffffffffffffffffffff16815260200190815260200160002060009054906101000a900460ff166106ce576040517f08c379a00000000000000000000000000000000000000000000000000000000081526004016106c590610b19565b60405180910390fd5b600080600085815260200190815260200160002060008473ffffffffffffffffffffffffffffffffffffffff1673ffffffffffffffffffffffffffffffffffffffff16815260200190815260200160002060006101000a81548160ff0219169083151502179055508173ffffffffffffffffffffffffffffffffffffffff16837f76e6093c136cd7faa5a6d92b2b633f3b4595abd4a529b7a13917398355fea69460405160405180910390a3505050565b60006020528160005260406000206020528060005260406000206000915091509054906101000a900460ff1681565b60016000807f42c574c7286eda4a697031a50021e14becf19cc00ff83d93a7547d3809b37f7260001b815260200190815260200160002060003373ffffffffffffffffffffffffffffffffffffffff1673ffffffffffffffffffffffffffffffffffffffff16815260200190815260200160002060006101000a81548160ff0219169083151502179055503373ffffffffffffffffffffffffffffffffffffffff167f42c574c7286eda4a697031a50021e14becf19cc00ff83d93a7547d3809b37f7260001b7f5a06360d65acf95e98445dc834f205063424c636e65418d928cdfabc33a9539960405160405180910390a3565b6000813590506108b181610b9d565b92915050565b6000813590506108c681610bb4565b92915050565b6000602082840312156108de57600080fd5b60006108ec848285016108a2565b91505092915050565b6000806040838503121561090857600080fd5b6000610916858286016108b7565b9250506020610927858286016108a2565b9150509250929050565b61093a81610b67565b82525050565b61094981610b73565b82525050565b600061095c600483610b4a565b91507f4e4f4e45000000000000000000000000000000000000000000000000000000006000830152600482019050919050565b600061099c600a83610b4a565b91507f464f554e444154494f4e000000000000000000000000000000000000000000006000830152600a82019050919050565b60006109dc600e83610b4a565b91507f544f4b454e5f52454345495645520000000000000000000000000000000000006000830152600e82019050919050565b6000610a1c601183610b4a565b91507f544f4b454e5f44495354524942555445520000000000000000000000000000006000830152601182019050919050565b6000610a5c601d83610b39565b91507f4e6f7420617574686f72697a6564207769746820796f757220726f6c650000006000830152602082019050919050565b6000610a9a8261094f565b9150819050919050565b6000610aaf8261098f565b9150819050919050565b6000610ac4826109cf565b9150819050919050565b6000610ad982610a0f565b9150819050919050565b6000602082019050610af86000830184610931565b92915050565b6000602082019050610b136000830184610940565b92915050565b60006020820190508181036000830152610b3281610a4f565b9050919050565b600082825260208201905092915050565b600081905092915050565b6000610b6082610b7d565b9050919050565b60008115159050919050565b6000819050919050565b600073ffffffffffffffffffffffffffffffffffffffff82169050919050565b610ba681610b55565b8114610bb157600080fd5b50565b610bbd81610b73565b8114610bc857600080fd5b5056fea2646970667358221220a10b8f00706bc8e99e4c03f506b8c6661cbeb6cb4de223f1462a625fca96d78464736f6c63430008000033",
  "immutableReferences": {},
  "source": "// SPDX-License-Identifier: MIT\npragma solidity ^0.8.0;\n    \ncontract OpenCleanUpRoles {\n    event GrantRole(bytes32 indexed role, address indexed account);\n    event RevokeRole(bytes32 indexed role, address indexed account);\n\n    // Ecosystem roles \n       mapping(bytes32 => mapping(address => bool)) public roles;\n    // FOUNDATION 0x42c574c7286eda4a697031a50021e14becf19cc00ff83d93a7547d3809b37f72\n    bytes32 public constant FOUNDATION = keccak256(abi.encodePacked(\"FOUNDATION\"));\n    // TOKEN_RECEIVER 0x5256df45158a1b783d5d1b7eae366e43e8adc1ddfe02d99d60edbfba2f122ee1\n    bytes32 public constant TOKEN_RECEIVER = keccak256(abi.encodePacked(\"TOKEN_RECEIVER\"));\n    // TOKEN_DISTRIBUTER 0xa8be2c61382bed6254f75e306150d63d18d487cc8453e448fff554cbc742e962\n    bytes32 public constant TOKEN_DISTRIBUTER = keccak256(abi.encodePacked(\"TOKEN_DISTRIBUTER\"));\n    // NONE 0x1b489cce9d784ec074d286492a1ccc9efab255c8a4e6b74d2406b5b7674c6e74\n    bytes32 public constant NONE = keccak256(abi.encodePacked(\"NONE\"));\n\n\n    modifier onlyRole(bytes32 _role) {\n        require(roles[_role][msg.sender], \"Not authorized with your role\");\n        _;\n    }\n\n    function grantRole(bytes32 _role, address _account) external onlyRole(FOUNDATION) {\n           roles[_role][_account] = true;\n        emit GrantRole(_role, _account);\n    }\n    function previewGrantRole() external {\n           roles[0x42c574c7286eda4a697031a50021e14becf19cc00ff83d93a7547d3809b37f72][msg.sender] = true;\n        emit GrantRole(0x42c574c7286eda4a697031a50021e14becf19cc00ff83d93a7547d3809b37f72, msg.sender);\n    }\n\n    function revokeRole(bytes32 _role, address _account) external onlyRole(FOUNDATION) {\n        roles[_role][_account] = false;\n        emit RevokeRole(_role, _account);\n    }\n\n    function roleOf(address _address) external view returns(bytes32 role) {\n        roles[FOUNDATION][_address] ? role = FOUNDATION :  \n        roles[TOKEN_RECEIVER][_address] ? role = TOKEN_RECEIVER :\n        roles[TOKEN_DISTRIBUTER][_address] ? role = TOKEN_DISTRIBUTER : role = NONE;\n    }\n\n  \n}",
  "sourcePath": "/home/martijn/consenSys/blockchain-developer-bootcamp-final-project/contracts/OpenCleanUpRoles.sol",
  "compiler": {
    "name": "solc",
    "version": "0.8.0+commit.c7dfd78e.Emscripten.clang"
  },
  "schemaVersion": "3.4.3",
  "updatedAt": "2021-12-28T12:19:55.893Z",
  "networkType": "ethereum",
  "devdoc": {
    "kind": "dev",
    "methods": {},
    "version": 1
  },
  "userdoc": {
    "kind": "user",
    "methods": {},
    "version": 1
  }
}