{
  "contractName": "OpenCleanUp",
  "abi": [
    {
      "inputs": [],
      "stateMutability": "nonpayable",
      "type": "constructor"
    },
    {
      "anonymous": false,
      "inputs": [
        {
          "indexed": true,
          "internalType": "address",
          "name": "owner",
          "type": "address"
        },
        {
          "indexed": true,
          "internalType": "address",
          "name": "spender",
          "type": "address"
        },
        {
          "indexed": false,
          "internalType": "uint256",
          "name": "value",
          "type": "uint256"
        }
      ],
      "name": "Approval",
      "type": "event"
    },
    {
      "anonymous": false,
      "inputs": [
        {
          "indexed": true,
          "internalType": "address",
          "name": "sender",
          "type": "address"
        },
        {
          "indexed": false,
          "internalType": "uint256",
          "name": "amount",
          "type": "uint256"
        }
      ],
      "name": "Burn",
      "type": "event"
    },
    {
      "anonymous": false,
      "inputs": [
        {
          "indexed": true,
          "internalType": "bytes32",
          "name": "role",
          "type": "bytes32"
        },
        {
          "indexed": true,
          "internalType": "address",
          "name": "account",
          "type": "address"
        }
      ],
      "name": "GrantRole",
      "type": "event"
    },
    {
      "anonymous": false,
      "inputs": [
        {
          "indexed": false,
          "internalType": "string",
          "name": "func",
          "type": "string"
        },
        {
          "indexed": false,
          "internalType": "address",
          "name": "sender",
          "type": "address"
        },
        {
          "indexed": false,
          "internalType": "uint256",
          "name": "value",
          "type": "uint256"
        },
        {
          "indexed": false,
          "internalType": "bytes",
          "name": "data",
          "type": "bytes"
        }
      ],
      "name": "Log",
      "type": "event"
    },
    {
      "anonymous": false,
      "inputs": [
        {
          "indexed": true,
          "internalType": "address",
          "name": "sender",
          "type": "address"
        },
        {
          "indexed": false,
          "internalType": "uint256",
          "name": "amount",
          "type": "uint256"
        }
      ],
      "name": "Mint",
      "type": "event"
    },
    {
      "anonymous": false,
      "inputs": [
        {
          "indexed": true,
          "internalType": "bytes32",
          "name": "role",
          "type": "bytes32"
        },
        {
          "indexed": true,
          "internalType": "address",
          "name": "account",
          "type": "address"
        }
      ],
      "name": "RevokeRole",
      "type": "event"
    },
    {
      "anonymous": false,
      "inputs": [
        {
          "indexed": true,
          "internalType": "address",
          "name": "from",
          "type": "address"
        },
        {
          "indexed": true,
          "internalType": "address",
          "name": "to",
          "type": "address"
        },
        {
          "indexed": false,
          "internalType": "uint256",
          "name": "value",
          "type": "uint256"
        }
      ],
      "name": "Transfer",
      "type": "event"
    },
    {
      "stateMutability": "payable",
      "type": "fallback"
    },
    {
      "inputs": [],
      "name": "FOUNDATION",
      "outputs": [
        {
          "internalType": "bytes32",
          "name": "",
          "type": "bytes32"
        }
      ],
      "stateMutability": "view",
      "type": "function"
    },
    {
      "inputs": [],
      "name": "NONE",
      "outputs": [
        {
          "internalType": "bytes32",
          "name": "",
          "type": "bytes32"
        }
      ],
      "stateMutability": "view",
      "type": "function"
    },
    {
      "inputs": [],
      "name": "TOKEN_DISTRIBUTER",
      "outputs": [
        {
          "internalType": "bytes32",
          "name": "",
          "type": "bytes32"
        }
      ],
      "stateMutability": "view",
      "type": "function"
    },
    {
      "inputs": [],
      "name": "TOKEN_RECEIVER",
      "outputs": [
        {
          "internalType": "bytes32",
          "name": "",
          "type": "bytes32"
        }
      ],
      "stateMutability": "view",
      "type": "function"
    },
    {
      "inputs": [
        {
          "internalType": "address",
          "name": "",
          "type": "address"
        },
        {
          "internalType": "address",
          "name": "",
          "type": "address"
        }
      ],
      "name": "allowance",
      "outputs": [
        {
          "internalType": "uint256",
          "name": "",
          "type": "uint256"
        }
      ],
      "stateMutability": "view",
      "type": "function"
    },
    {
      "inputs": [
        {
          "internalType": "address",
          "name": "",
          "type": "address"
        }
      ],
      "name": "balanceOf",
      "outputs": [
        {
          "internalType": "uint256",
          "name": "",
          "type": "uint256"
        }
      ],
      "stateMutability": "view",
      "type": "function"
    },
    {
      "inputs": [],
      "name": "decimals",
      "outputs": [
        {
          "internalType": "uint8",
          "name": "",
          "type": "uint8"
        }
      ],
      "stateMutability": "view",
      "type": "function"
    },
    {
      "inputs": [],
      "name": "foundation",
      "outputs": [
        {
          "internalType": "address",
          "name": "",
          "type": "address"
        }
      ],
      "stateMutability": "view",
      "type": "function"
    },
    {
      "inputs": [
        {
          "internalType": "bytes32",
          "name": "role",
          "type": "bytes32"
        },
        {
          "internalType": "address",
          "name": "account",
          "type": "address"
        }
      ],
      "name": "grantRole",
      "outputs": [],
      "stateMutability": "nonpayable",
      "type": "function"
    },
    {
      "inputs": [],
      "name": "isStopped",
      "outputs": [
        {
          "internalType": "bool",
          "name": "",
          "type": "bool"
        }
      ],
      "stateMutability": "view",
      "type": "function"
    },
    {
      "inputs": [],
      "name": "name",
      "outputs": [
        {
          "internalType": "string",
          "name": "",
          "type": "string"
        }
      ],
      "stateMutability": "view",
      "type": "function"
    },
    {
      "inputs": [],
      "name": "previewGrantRole",
      "outputs": [],
      "stateMutability": "nonpayable",
      "type": "function"
    },
    {
      "inputs": [
        {
          "internalType": "bytes32",
          "name": "role",
          "type": "bytes32"
        },
        {
          "internalType": "address",
          "name": "account",
          "type": "address"
        }
      ],
      "name": "revokeRole",
      "outputs": [],
      "stateMutability": "nonpayable",
      "type": "function"
    },
    {
      "inputs": [
        {
          "internalType": "address",
          "name": "account",
          "type": "address"
        }
      ],
      "name": "roleOf",
      "outputs": [
        {
          "internalType": "bytes32",
          "name": "role",
          "type": "bytes32"
        }
      ],
      "stateMutability": "view",
      "type": "function"
    },
    {
      "inputs": [
        {
          "internalType": "bytes32",
          "name": "",
          "type": "bytes32"
        },
        {
          "internalType": "address",
          "name": "",
          "type": "address"
        }
      ],
      "name": "roles",
      "outputs": [
        {
          "internalType": "bool",
          "name": "",
          "type": "bool"
        }
      ],
      "stateMutability": "view",
      "type": "function"
    },
    {
      "inputs": [],
      "name": "symbol",
      "outputs": [
        {
          "internalType": "string",
          "name": "",
          "type": "string"
        }
      ],
      "stateMutability": "view",
      "type": "function"
    },
    {
      "inputs": [],
      "name": "totalSupply",
      "outputs": [
        {
          "internalType": "uint256",
          "name": "",
          "type": "uint256"
        }
      ],
      "stateMutability": "view",
      "type": "function"
    },
    {
      "stateMutability": "payable",
      "type": "receive"
    },
    {
      "inputs": [
        {
          "internalType": "address payable",
          "name": "to",
          "type": "address"
        },
        {
          "internalType": "uint256",
          "name": "amount",
          "type": "uint256"
        }
      ],
      "name": "withdraw",
      "outputs": [],
      "stateMutability": "nonpayable",
      "type": "function"
    },
    {
      "inputs": [],
      "name": "stopContract",
      "outputs": [],
      "stateMutability": "nonpayable",
      "type": "function"
    },
    {
      "inputs": [],
      "name": "resumeContract",
      "outputs": [],
      "stateMutability": "nonpayable",
      "type": "function"
    },
    {
      "inputs": [
        {
          "internalType": "address",
          "name": "recipient",
          "type": "address"
        },
        {
          "internalType": "uint256",
          "name": "amount",
          "type": "uint256"
        }
      ],
      "name": "transfer",
      "outputs": [
        {
          "internalType": "bool",
          "name": "",
          "type": "bool"
        }
      ],
      "stateMutability": "nonpayable",
      "type": "function"
    },
    {
      "inputs": [
        {
          "internalType": "address",
          "name": "spender",
          "type": "address"
        },
        {
          "internalType": "uint256",
          "name": "amount",
          "type": "uint256"
        }
      ],
      "name": "approve",
      "outputs": [
        {
          "internalType": "bool",
          "name": "",
          "type": "bool"
        }
      ],
      "stateMutability": "nonpayable",
      "type": "function"
    },
    {
      "inputs": [
        {
          "internalType": "address",
          "name": "sender",
          "type": "address"
        },
        {
          "internalType": "address",
          "name": "recipient",
          "type": "address"
        },
        {
          "internalType": "uint256",
          "name": "amount",
          "type": "uint256"
        }
      ],
      "name": "transferFrom",
      "outputs": [
        {
          "internalType": "bool",
          "name": "",
          "type": "bool"
        }
      ],
      "stateMutability": "nonpayable",
      "type": "function"
    },
    {
      "inputs": [
        {
          "internalType": "uint256",
          "name": "amount",
          "type": "uint256"
        }
      ],
      "name": "mint",
      "outputs": [],
      "stateMutability": "nonpayable",
      "type": "function"
    },
    {
      "inputs": [
        {
          "internalType": "uint256",
          "name": "amount",
          "type": "uint256"
        }
      ],
      "name": "burn",
      "outputs": [],
      "stateMutability": "nonpayable",
      "type": "function"
    },
    {
      "inputs": [
        {
          "internalType": "address",
          "name": "recipient",
          "type": "address"
        },
        {
          "internalType": "uint256",
          "name": "amount",
          "type": "uint256"
        }
      ],
      "name": "distribute",
      "outputs": [
        {
          "internalType": "bool",
          "name": "",
          "type": "bool"
        }
      ],
      "stateMutability": "nonpayable",
      "type": "function"
    }
  ],
  "bytecode": "0x60a060405269021e19e0c9bab24000006001556000600460006101000a81548160ff02191690831515021790555034801561003957600080fd5b50600154600260003373ffffffffffffffffffffffffffffffffffffffff1673ffffffffffffffffffffffffffffffffffffffff168152602001908152602001600020819055503373ffffffffffffffffffffffffffffffffffffffff1660808173ffffffffffffffffffffffffffffffffffffffff1660601b8152505060016000807f42c574c7286eda4a697031a50021e14becf19cc00ff83d93a7547d3809b37f7260001b815260200190815260200160002060003373ffffffffffffffffffffffffffffffffffffffff1673ffffffffffffffffffffffffffffffffffffffff16815260200190815260200160002060006101000a81548160ff02191690831515021790555060805160601c61257861017560003960008181610ca101528181610d8a01528181611a3c0152611ade01526125786000f3fe6080604052600436106101855760003560e01c806383525394116100d1578063c4bc5da51161008a578063f3fef3a311610064578063f3fef3a3146105f3578063f8fc08b91461061c578063fb93210814610659578063ff65f23c14610696576101c5565b8063c4bc5da514610576578063d547741f1461058d578063dd62ed3e146105b6576101c5565b8063835253941461045257806395d89b411461047d578063a0712d68146104a8578063a5d7827e146104d1578063a9059cbb1461050e578063ba0ae61e1461054b576101c5565b80632f2ff15d1161013e57806341fbb0501161011857806341fbb0501461039657806342966c68146103c157806365df2e51146103ea57806370a0823114610415576101c5565b80632f2ff15d14610317578063313ce567146103405780633f683b6a1461036b576101c5565b806306fdde0314610205578063095ea7b3146102305780630d40b0661461026d57806312253a6c1461029857806318160ddd146102af57806323b872dd146102da576101c5565b366101c5577ff7f75251dee7d7fc22deac3247729ebe7c86541f35930bf10c2a4207479a3b6c33346040516101bb9291906122ac565b60405180910390a1005b7ff7f75251dee7d7fc22deac3247729ebe7c86541f35930bf10c2a4207479a3b6c33346000366040516101fb9493929190612259565b60405180910390a1005b34801561021157600080fd5b5061021a6106ad565b60405161022791906121b7565b60405180910390f35b34801561023c57600080fd5b5061025760048036038101906102529190611e4b565b6106e6565b6040516102649190612181565b60405180910390f35b34801561027957600080fd5b506102826107d8565b60405161028f919061219c565b60405180910390f35b3480156102a457600080fd5b506102ad6107ff565b005b3480156102bb57600080fd5b506102c46108dd565b6040516102d191906122fb565b60405180910390f35b3480156102e657600080fd5b5061030160048036038101906102fc9190611dfc565b6108e3565b60405161030e9190612181565b60405180910390f35b34801561032357600080fd5b5061033e60048036038101906103399190611e87565b610b16565b005b34801561034c57600080fd5b50610355610c87565b6040516103629190612316565b60405180910390f35b34801561037757600080fd5b50610380610c8c565b60405161038d9190612181565b60405180910390f35b3480156103a257600080fd5b506103ab610c9f565b6040516103b89190612166565b60405180910390f35b3480156103cd57600080fd5b506103e860048036038101906103e39190611ec3565b610cc3565b005b3480156103f657600080fd5b506103ff610ee6565b60405161040c919061219c565b60405180910390f35b34801561042157600080fd5b5061043c60048036038101906104379190611d5b565b610f0d565b60405161044991906122fb565b60405180910390f35b34801561045e57600080fd5b50610467610f25565b604051610474919061219c565b60405180910390f35b34801561048957600080fd5b50610492610f4c565b60405161049f91906121b7565b60405180910390f35b3480156104b457600080fd5b506104cf60048036038101906104ca9190611ec3565b610f85565b005b3480156104dd57600080fd5b506104f860048036038101906104f39190611d5b565b611106565b604051610505919061219c565b60405180910390f35b34801561051a57600080fd5b5061053560048036038101906105309190611e4b565b611348565b6040516105429190612181565b60405180910390f35b34801561055757600080fd5b506105606114e7565b60405161056d919061219c565b60405180910390f35b34801561058257600080fd5b5061058b61150e565b005b34801561059957600080fd5b506105b460048036038101906105af9190611e87565b6115ec565b005b3480156105c257600080fd5b506105dd60048036038101906105d89190611dc0565b61175d565b6040516105ea91906122fb565b60405180910390f35b3480156105ff57600080fd5b5061061a60048036038101906106159190611d84565b611782565b005b34801561062857600080fd5b50610643600480360381019061063e9190611e87565b6118f4565b6040516106509190612181565b60405180910390f35b34801561066557600080fd5b50610680600480360381019061067b9190611e4b565b611923565b60405161068d9190612181565b60405180910390f35b3480156106a257600080fd5b506106ab611c13565b005b6040518060400160405280600b81526020017f4f70656e436c65616e557000000000000000000000000000000000000000000081525081565b600081600360003373ffffffffffffffffffffffffffffffffffffffff1673ffffffffffffffffffffffffffffffffffffffff16815260200190815260200160002060008573ffffffffffffffffffffffffffffffffffffffff1673ffffffffffffffffffffffffffffffffffffffff168152602001908152602001600020819055508273ffffffffffffffffffffffffffffffffffffffff163373ffffffffffffffffffffffffffffffffffffffff167f8c5be1e5ebec7d5bd14f71427d1e84f3dd0314c0f7b2291e5b200ac8c7c3b925846040516107c691906122fb565b60405180910390a36001905092915050565b7f5256df45158a1b783d5d1b7eae366e43e8adc1ddfe02d99d60edbfba2f122ee160001b81565b7f42c574c7286eda4a697031a50021e14becf19cc00ff83d93a7547d3809b37f7260001b60008082815260200190815260200160002060003373ffffffffffffffffffffffffffffffffffffffff1673ffffffffffffffffffffffffffffffffffffffff16815260200190815260200160002060009054906101000a900460ff166108bf576040517f08c379a00000000000000000000000000000000000000000000000000000000081526004016108b6906121d9565b60405180910390fd5b6001600460006101000a81548160ff02191690831515021790555050565b60015481565b600081600260008673ffffffffffffffffffffffffffffffffffffffff1673ffffffffffffffffffffffffffffffffffffffff168152602001908152602001600020541015610967576040517f08c379a000000000000000000000000000000000000000000000000000000000815260040161095e90612219565b60405180910390fd5b81600360008673ffffffffffffffffffffffffffffffffffffffff1673ffffffffffffffffffffffffffffffffffffffff16815260200190815260200160002060003373ffffffffffffffffffffffffffffffffffffffff1673ffffffffffffffffffffffffffffffffffffffff16815260200190815260200160002060008282546109f391906123bf565b9250508190555081600260008673ffffffffffffffffffffffffffffffffffffffff1673ffffffffffffffffffffffffffffffffffffffff1681526020019081526020016000206000828254610a4991906123bf565b9250508190555081600260008573ffffffffffffffffffffffffffffffffffffffff1673ffffffffffffffffffffffffffffffffffffffff1681526020019081526020016000206000828254610a9f9190612369565b925050819055508273ffffffffffffffffffffffffffffffffffffffff168473ffffffffffffffffffffffffffffffffffffffff167fddf252ad1be2c89b69c2b068fc378daa952ba7f163c4a11628f55a4df523b3ef84604051610b0391906122fb565b60405180910390a3600190509392505050565b7f42c574c7286eda4a697031a50021e14becf19cc00ff83d93a7547d3809b37f7260001b60008082815260200190815260200160002060003373ffffffffffffffffffffffffffffffffffffffff1673ffffffffffffffffffffffffffffffffffffffff16815260200190815260200160002060009054906101000a900460ff16610bd6576040517f08c379a0000000000000000000000000000000000000000000000000000000008152600401610bcd906121d9565b60405180910390fd5b600160008085815260200190815260200160002060008473ffffffffffffffffffffffffffffffffffffffff1673ffffffffffffffffffffffffffffffffffffffff16815260200190815260200160002060006101000a81548160ff0219169083151502179055508173ffffffffffffffffffffffffffffffffffffffff16837f5a06360d65acf95e98445dc834f205063424c636e65418d928cdfabc33a9539960405160405180910390a3505050565b601281565b600460009054906101000a900460ff1681565b7f000000000000000000000000000000000000000000000000000000000000000081565b7f42c574c7286eda4a697031a50021e14becf19cc00ff83d93a7547d3809b37f7260001b60008082815260200190815260200160002060003373ffffffffffffffffffffffffffffffffffffffff1673ffffffffffffffffffffffffffffffffffffffff16815260200190815260200160002060009054906101000a900460ff16610d83576040517f08c379a0000000000000000000000000000000000000000000000000000000008152600401610d7a906121d9565b60405180910390fd5b81600260007f000000000000000000000000000000000000000000000000000000000000000073ffffffffffffffffffffffffffffffffffffffff1673ffffffffffffffffffffffffffffffffffffffff168152602001908152602001600020541015610e25576040517f08c379a0000000000000000000000000000000000000000000000000000000008152600401610e1c90612219565b60405180910390fd5b81600260003373ffffffffffffffffffffffffffffffffffffffff1673ffffffffffffffffffffffffffffffffffffffff1681526020019081526020016000206000828254610e7491906123bf565b925050819055508160016000828254610e8d91906123bf565b925050819055503373ffffffffffffffffffffffffffffffffffffffff167fcc16f5dbb4873280815c1ee09dbd06736cffcc184412cf7a71a0fdb75d397ca583604051610eda91906122fb565b60405180910390a25050565b7f42c574c7286eda4a697031a50021e14becf19cc00ff83d93a7547d3809b37f7260001b81565b60026020528060005260406000206000915090505481565b7f1b489cce9d784ec074d286492a1ccc9efab255c8a4e6b74d2406b5b7674c6e7460001b81565b6040518060400160405280600381526020017f4f4355000000000000000000000000000000000000000000000000000000000081525081565b7f42c574c7286eda4a697031a50021e14becf19cc00ff83d93a7547d3809b37f7260001b60008082815260200190815260200160002060003373ffffffffffffffffffffffffffffffffffffffff1673ffffffffffffffffffffffffffffffffffffffff16815260200190815260200160002060009054906101000a900460ff16611045576040517f08c379a000000000000000000000000000000000000000000000000000000000815260040161103c906121d9565b60405180910390fd5b81600260003373ffffffffffffffffffffffffffffffffffffffff1673ffffffffffffffffffffffffffffffffffffffff16815260200190815260200160002060008282546110949190612369565b9250508190555081600160008282546110ad9190612369565b925050819055503373ffffffffffffffffffffffffffffffffffffffff167f0f6798a560793a54c3bcfe86a93cde1e73087d944c0ea20544137d4121396885836040516110fa91906122fb565b60405180910390a25050565b60008060007f42c574c7286eda4a697031a50021e14becf19cc00ff83d93a7547d3809b37f7260001b815260200190815260200160002060008373ffffffffffffffffffffffffffffffffffffffff1673ffffffffffffffffffffffffffffffffffffffff16815260200190815260200160002060009054906101000a900460ff1661131a576000807f5256df45158a1b783d5d1b7eae366e43e8adc1ddfe02d99d60edbfba2f122ee160001b815260200190815260200160002060008373ffffffffffffffffffffffffffffffffffffffff1673ffffffffffffffffffffffffffffffffffffffff16815260200190815260200160002060009054906101000a900460ff166112ed576000807fa8be2c61382bed6254f75e306150d63d18d487cc8453e448fff554cbc742e96260001b815260200190815260200160002060008373ffffffffffffffffffffffffffffffffffffffff1673ffffffffffffffffffffffffffffffffffffffff16815260200190815260200160002060009054906101000a900460ff166112c0577f1b489cce9d784ec074d286492a1ccc9efab255c8a4e6b74d2406b5b7674c6e7460001b9050806112e8565b7fa8be2c61382bed6254f75e306150d63d18d487cc8453e448fff554cbc742e96260001b9050805b611315565b7f5256df45158a1b783d5d1b7eae366e43e8adc1ddfe02d99d60edbfba2f122ee160001b9050805b611342565b7f42c574c7286eda4a697031a50021e14becf19cc00ff83d93a7547d3809b37f7260001b9050805b50919050565b600081600260003373ffffffffffffffffffffffffffffffffffffffff1673ffffffffffffffffffffffffffffffffffffffff1681526020019081526020016000205410156113cc576040517f08c379a00000000000000000000000000000000000000000000000000000000081526004016113c390612219565b60405180910390fd5b81600260003373ffffffffffffffffffffffffffffffffffffffff1673ffffffffffffffffffffffffffffffffffffffff168152602001908152602001600020600082825461141b91906123bf565b9250508190555081600260008573ffffffffffffffffffffffffffffffffffffffff1673ffffffffffffffffffffffffffffffffffffffff16815260200190815260200160002060008282546114719190612369565b925050819055508273ffffffffffffffffffffffffffffffffffffffff163373ffffffffffffffffffffffffffffffffffffffff167fddf252ad1be2c89b69c2b068fc378daa952ba7f163c4a11628f55a4df523b3ef846040516114d591906122fb565b60405180910390a36001905092915050565b7fa8be2c61382bed6254f75e306150d63d18d487cc8453e448fff554cbc742e96260001b81565b7f42c574c7286eda4a697031a50021e14becf19cc00ff83d93a7547d3809b37f7260001b60008082815260200190815260200160002060003373ffffffffffffffffffffffffffffffffffffffff1673ffffffffffffffffffffffffffffffffffffffff16815260200190815260200160002060009054906101000a900460ff166115ce576040517f08c379a00000000000000000000000000000000000000000000000000000000081526004016115c5906121d9565b60405180910390fd5b6000600460006101000a81548160ff02191690831515021790555050565b7f42c574c7286eda4a697031a50021e14becf19cc00ff83d93a7547d3809b37f7260001b60008082815260200190815260200160002060003373ffffffffffffffffffffffffffffffffffffffff1673ffffffffffffffffffffffffffffffffffffffff16815260200190815260200160002060009054906101000a900460ff166116ac576040517f08c379a00000000000000000000000000000000000000000000000000000000081526004016116a3906121d9565b60405180910390fd5b600080600085815260200190815260200160002060008473ffffffffffffffffffffffffffffffffffffffff1673ffffffffffffffffffffffffffffffffffffffff16815260200190815260200160002060006101000a81548160ff0219169083151502179055508173ffffffffffffffffffffffffffffffffffffffff16837f76e6093c136cd7faa5a6d92b2b633f3b4595abd4a529b7a13917398355fea69460405160405180910390a3505050565b6003602052816000526040600020602052806000526040600020600091509150505481565b7f42c574c7286eda4a697031a50021e14becf19cc00ff83d93a7547d3809b37f7260001b60008082815260200190815260200160002060003373ffffffffffffffffffffffffffffffffffffffff1673ffffffffffffffffffffffffffffffffffffffff16815260200190815260200160002060009054906101000a900460ff16611842576040517f08c379a0000000000000000000000000000000000000000000000000000000008152600401611839906121d9565b60405180910390fd5b60008373ffffffffffffffffffffffffffffffffffffffff168360405161186890612151565b60006040518083038185875af1925050503d80600081146118a5576040519150601f19603f3d011682016040523d82523d6000602084013e6118aa565b606091505b50509050806118ee576040517f08c379a00000000000000000000000000000000000000000000000000000000081526004016118e590612239565b60405180910390fd5b50505050565b60006020528160005260406000206020528060005260406000206000915091509054906101000a900460ff1681565b6000600460009054906101000a900460ff1615611975576040517f08c379a000000000000000000000000000000000000000000000000000000000815260040161196c906121f9565b60405180910390fd5b7fa8be2c61382bed6254f75e306150d63d18d487cc8453e448fff554cbc742e96260001b60008082815260200190815260200160002060003373ffffffffffffffffffffffffffffffffffffffff1673ffffffffffffffffffffffffffffffffffffffff16815260200190815260200160002060009054906101000a900460ff16611a35576040517f08c379a0000000000000000000000000000000000000000000000000000000008152600401611a2c906121d9565b60405180910390fd5b82600260007f000000000000000000000000000000000000000000000000000000000000000073ffffffffffffffffffffffffffffffffffffffff1673ffffffffffffffffffffffffffffffffffffffff168152602001908152602001600020541015611ad7576040517f08c379a0000000000000000000000000000000000000000000000000000000008152600401611ace90612219565b60405180910390fd5b82600260007f000000000000000000000000000000000000000000000000000000000000000073ffffffffffffffffffffffffffffffffffffffff1673ffffffffffffffffffffffffffffffffffffffff1681526020019081526020016000206000828254611b4691906123bf565b9250508190555082600260008673ffffffffffffffffffffffffffffffffffffffff1673ffffffffffffffffffffffffffffffffffffffff1681526020019081526020016000206000828254611b9c9190612369565b925050819055508373ffffffffffffffffffffffffffffffffffffffff163373ffffffffffffffffffffffffffffffffffffffff167fddf252ad1be2c89b69c2b068fc378daa952ba7f163c4a11628f55a4df523b3ef85604051611c0091906122fb565b60405180910390a3600191505092915050565b60016000807f42c574c7286eda4a697031a50021e14becf19cc00ff83d93a7547d3809b37f7260001b815260200190815260200160002060003373ffffffffffffffffffffffffffffffffffffffff1673ffffffffffffffffffffffffffffffffffffffff16815260200190815260200160002060006101000a81548160ff0219169083151502179055503373ffffffffffffffffffffffffffffffffffffffff167f42c574c7286eda4a697031a50021e14becf19cc00ff83d93a7547d3809b37f7260001b7f5a06360d65acf95e98445dc834f205063424c636e65418d928cdfabc33a9539960405160405180910390a3565b600081359050611d16816124e6565b92915050565b600081359050611d2b816124fd565b92915050565b600081359050611d4081612514565b92915050565b600081359050611d558161252b565b92915050565b600060208284031215611d6d57600080fd5b6000611d7b84828501611d07565b91505092915050565b60008060408385031215611d9757600080fd5b6000611da585828601611d1c565b9250506020611db685828601611d46565b9150509250929050565b60008060408385031215611dd357600080fd5b6000611de185828601611d07565b9250506020611df285828601611d07565b9150509250929050565b600080600060608486031215611e1157600080fd5b6000611e1f86828701611d07565b9350506020611e3086828701611d07565b9250506040611e4186828701611d46565b9150509250925092565b60008060408385031215611e5e57600080fd5b6000611e6c85828601611d07565b9250506020611e7d85828601611d46565b9150509250929050565b60008060408385031215611e9a57600080fd5b6000611ea885828601611d31565b9250506020611eb985828601611d07565b9150509250929050565b600060208284031215611ed557600080fd5b6000611ee384828501611d46565b91505092915050565b611ef5816123f3565b82525050565b611f0481612417565b82525050565b611f1381612423565b82525050565b6000611f25838561233c565b9350611f32838584612464565b611f3b836124d5565b840190509392505050565b6000611f5182612331565b611f5b8185612358565b9350611f6b818560208601612473565b611f74816124d5565b840191505092915050565b6000611f8c601883612358565b91507f4e6f7420617574686f72697a6564207769746820726f6c6500000000000000006000830152602082019050919050565b6000611fcc601083612358565b91507f436f6e74726163742073746f70706564000000000000000000000000000000006000830152602082019050919050565b600061200c601283612358565b91507f4e6f7420656e6f7567682062616c616e636500000000000000000000000000006000830152602082019050919050565b600061204c601283612358565b91507f4661696c656420746f2073656e642045544800000000000000000000000000006000830152602082019050919050565b600061208c600883612358565b91507f66616c6c6261636b0000000000000000000000000000000000000000000000006000830152602082019050919050565b60006120cc60008361233c565b9150600082019050919050565b60006120e660008361234d565b9150600082019050919050565b6000612100600783612358565b91507f72656365697665000000000000000000000000000000000000000000000000006000830152602082019050919050565b61213c8161244d565b82525050565b61214b81612457565b82525050565b600061215c826120d9565b9150819050919050565b600060208201905061217b6000830184611eec565b92915050565b60006020820190506121966000830184611efb565b92915050565b60006020820190506121b16000830184611f0a565b92915050565b600060208201905081810360008301526121d18184611f46565b905092915050565b600060208201905081810360008301526121f281611f7f565b9050919050565b6000602082019050818103600083015261221281611fbf565b9050919050565b6000602082019050818103600083015261223281611fff565b9050919050565b600060208201905081810360008301526122528161203f565b9050919050565b600060808201905081810360008301526122728161207f565b90506122816020830187611eec565b61228e6040830186612133565b81810360608301526122a1818486611f19565b905095945050505050565b600060808201905081810360008301526122c5816120f3565b90506122d46020830185611eec565b6122e16040830184612133565b81810360608301526122f2816120bf565b90509392505050565b60006020820190506123106000830184612133565b92915050565b600060208201905061232b6000830184612142565b92915050565b600081519050919050565b600082825260208201905092915050565b600081905092915050565b600082825260208201905092915050565b60006123748261244d565b915061237f8361244d565b9250827fffffffffffffffffffffffffffffffffffffffffffffffffffffffffffffffff038211156123b4576123b36124a6565b5b828201905092915050565b60006123ca8261244d565b91506123d58361244d565b9250828210156123e8576123e76124a6565b5b828203905092915050565b60006123fe8261242d565b9050919050565b60006124108261242d565b9050919050565b60008115159050919050565b6000819050919050565b600073ffffffffffffffffffffffffffffffffffffffff82169050919050565b6000819050919050565b600060ff82169050919050565b82818337600083830152505050565b60005b83811015612491578082015181840152602081019050612476565b838111156124a0576000848401525b50505050565b7f4e487b7100000000000000000000000000000000000000000000000000000000600052601160045260246000fd5b6000601f19601f8301169050919050565b6124ef816123f3565b81146124fa57600080fd5b50565b61250681612405565b811461251157600080fd5b50565b61251d81612423565b811461252857600080fd5b50565b6125348161244d565b811461253f57600080fd5b5056fea26469706673582212207cc941ac7d0555086a1516962e1a2c1c7b2ceb606a9a4821be6311e8bc20e29364736f6c63430008000033",
  "immutableReferences": {
    "68": [
      {
        "length": 32,
        "start": 3233
      },
      {
        "length": 32,
        "start": 3466
      },
      {
        "length": 32,
        "start": 6716
      },
      {
        "length": 32,
        "start": 6878
      }
    ]
  },
  "source": "// SPDX-License-Identifier: MIT\npragma solidity 0.8.0;\n\n\n\n// import \"./IERC20.sol\";\n// import \"../node_modules/@openzeppelin/contracts/token/ERC20/ERC20.sol\";\n// import \"https://github.com/OpenZeppelin/openzeppelin-contracts/blob/master/contracts/token/ERC20/IERC20.sol\";\nimport \"./OpenCleanUpRoles.sol\";\nimport \"../node_modules/@openzeppelin/contracts/token/ERC20/IERC20.sol\";\n\n/// @title Contract for OpenCleanUp ecosystem\n/// @author Martijncvv\n/// @notice Allows individuals and enterprises to exchange value between ecosystem participants. \n/// @notice This is an experimental contract.\ncontract OpenCleanUp is IERC20, OpenCleanUpRoles  {\n\n    /// @notice Emitted when tokens are burned\n    /// @param sender Address that sent burn tx\n    /// @param amount Amount burned\n    event Burn(address indexed sender, uint amount);\n\n    /// @notice Emitted when tokens are minted\n    /// @param sender Address that sent mint tx\n    /// @param amount Amount minted\n    event Mint(address indexed sender, uint amount);\n\n    /// @notice Emitted when Ether is sent to the contract\n    /// @param func Function that was called\n    /// @param sender Sender of the Ether\n    /// @param value Amount of Ethere received\n    /// @param data Data of the tx\n    event Log(string func, address sender, uint value, bytes data);\n\n    string constant public name = \"OpenCleanUp\";\n    string constant public symbol = \"OCU\";\n    uint public override totalSupply = 10000 * (10**18);\n    uint8 constant public decimals = 18;\n\n    mapping(address => uint) public override balanceOf;\n    mapping(address => mapping(address => uint)) public override allowance;\n    bool public isStopped = false;\n    address immutable public foundation;\n\n    constructor() {\n        balanceOf[msg.sender] = totalSupply;\n        foundation = msg.sender;\n        roles[FOUNDATION][msg.sender] = true;\n    }\n\n    modifier stopInEmergency {\n        require(!isStopped, \"Contract stopped\"); \n        _; \n    }\n\n    /// @notice Receives Ether if tx data was added\n        fallback() external payable {\n        emit Log(\"fallback\", msg.sender, msg.value, msg.data);\n    }\n\n    /// @notice Receives Ether if no tx data was added\n    receive() external payable {\n        emit Log(\"receive\", msg.sender, msg.value, \"\");\n    }\n    /// @notice Gives Foundation ability to withdraw Ether from contract\n    /// @param to Address to send the funds to\n    /// @param amount Amount of Ether to send\n    function withdraw(address payable to, uint amount) external onlyRole(FOUNDATION) {\n        (bool sent, ) = to.call{value: amount}(\"\");\n        require(sent, \"Failed to send ETH\");\n    }\n\n    /// @notice Gives Foundation ability to stop distribution functionality\n    function stopContract() external onlyRole(FOUNDATION) {\n        isStopped = true;\n    }\n\n    /// @notice Gives Foundation to resume distribution functionality\n    function resumeContract() external onlyRole(FOUNDATION) {\n        isStopped = false;\n    }\n\n    /// @notice Transfers OCU tokens between wallets\n    /// @param recipient Address to send the funds to\n    /// @param amount Amount of OCU to send\n    /// @return Returns boolean value true if succesfull\n    function transfer(address recipient, uint amount) external override returns (bool) {\n        require(balanceOf[msg.sender] >= amount, \"Not enough balance\");\n        balanceOf[msg.sender] -= amount;\n        balanceOf[recipient] += amount;\n        emit Transfer(msg.sender, recipient, amount);\n        return true;\n    }\n\n    /// @notice ERC20 standard; Approve other acccount to send funds from the wallet \n    /// @param spender Address that's allowed to send funds\n    /// @param amount Amount of OCU to send\n    /// @return Returns boolean value true if succesfull\n    function approve(address spender, uint amount) external override returns (bool) {\n        allowance[msg.sender][spender] = amount;\n        emit Approval(msg.sender, spender, amount);\n        return true;\n    }\n\n    /// @notice ERC20 functionality; Transfer OCU tokens from wallet that gave permission to transfer funds\n    /// @param sender Address to send the OCU tokens from\n    /// @param recipient OCU token receiver\n    /// @param amount Amount of OCU to send\n    /// @return Returns boolean value true if succesfull\n    function transferFrom(\n        address sender,\n        address recipient,\n        uint amount\n    ) external override returns (bool) {\n        require(balanceOf[sender] >= amount, \"Not enough balance\");\n        allowance[sender][msg.sender] -= amount;\n\n        balanceOf[sender] -= amount;\n        balanceOf[recipient] += amount;\n        emit Transfer(sender, recipient, amount);\n        return true;\n    }\n\n    /// @notice Mint OCU tokens with a Foundation wallet\n    /// @param amount Amount of OCU to mint\n    function mint(uint amount) external onlyRole(FOUNDATION) {\n        balanceOf[msg.sender] += amount;\n        totalSupply += amount;\n        emit Mint(msg.sender, amount);\n    }\n\n    /// @notice Burn OCU tokens with a Foundation wallet\n    /// @param amount Amount of OCU to mint\n    function burn(uint amount) external onlyRole(FOUNDATION) {\n        require(balanceOf[foundation] >= amount,\"Not enough balance\");\n        balanceOf[msg.sender] -= amount;\n        totalSupply -= amount;\n        emit Burn(msg.sender, amount);\n    }\n\n    /// @notice Gives 'distributer' roles ability to transfer tokens from Foundation wallet\n    /// @param recipient OCU token receiver\n    /// @param amount Amount of OCU to send\n    /// @return Returns boolean value true if succesfull\n    function distribute(address recipient, uint amount) external stopInEmergency onlyRole(TOKEN_DISTRIBUTER) returns (bool) {\n        require(balanceOf[foundation] >= amount,\"Not enough balance\");\n        balanceOf[foundation] -= amount;\n        balanceOf[recipient] += amount;\n        emit Transfer(msg.sender, recipient, amount);\n        return true;\n    }\n}\n\n",
  "sourcePath": "/home/martijn/consenSys/blockchain-developer-bootcamp-final-project/contracts/OpenCleanUp.sol",
  "compiler": {
    "name": "solc",
    "version": "0.8.0+commit.c7dfd78e.Emscripten.clang"
  },
  "schemaVersion": "3.4.3",
  "updatedAt": "2021-12-31T11:19:36.078Z",
  "devdoc": {
    "author": "Martijncvv",
    "events": {
      "Burn(address,uint256)": {
        "params": {
          "amount": "Amount burned",
          "sender": "Address that sent burn tx"
        }
      },
      "Log(string,address,uint256,bytes)": {
        "params": {
          "data": "Data of the tx",
          "func": "Function that was called",
          "sender": "Sender of the Ether",
          "value": "Amount of Ethere received"
        }
      },
      "Mint(address,uint256)": {
        "params": {
          "amount": "Amount minted",
          "sender": "Address that sent mint tx"
        }
      }
    },
    "kind": "dev",
    "methods": {
      "approve(address,uint256)": {
        "params": {
          "amount": "Amount of OCU to send",
          "spender": "Address that's allowed to send funds"
        },
        "returns": {
          "_0": "Returns boolean value true if succesfull"
        }
      },
      "burn(uint256)": {
        "params": {
          "amount": "Amount of OCU to mint"
        }
      },
      "distribute(address,uint256)": {
        "params": {
          "amount": "Amount of OCU to send",
          "recipient": "OCU token receiver"
        },
        "returns": {
          "_0": "Returns boolean value true if succesfull"
        }
      },
      "grantRole(bytes32,address)": {
        "params": {
          "account": "Account that received roletype",
          "role": "Roletype that was granded"
        }
      },
      "mint(uint256)": {
        "params": {
          "amount": "Amount of OCU to mint"
        }
      },
      "revokeRole(bytes32,address)": {
        "params": {
          "account": "Account that received roletype",
          "role": "Roletype that was granded"
        }
      },
      "roleOf(address)": {
        "params": {
          "account": "Account to check roletype"
        }
      },
      "transfer(address,uint256)": {
        "params": {
          "amount": "Amount of OCU to send",
          "recipient": "Address to send the funds to"
        },
        "returns": {
          "_0": "Returns boolean value true if succesfull"
        }
      },
      "transferFrom(address,address,uint256)": {
        "params": {
          "amount": "Amount of OCU to send",
          "recipient": "OCU token receiver",
          "sender": "Address to send the OCU tokens from"
        },
        "returns": {
          "_0": "Returns boolean value true if succesfull"
        }
      },
      "withdraw(address,uint256)": {
        "params": {
          "amount": "Amount of Ether to send",
          "to": "Address to send the funds to"
        }
      }
    },
    "stateVariables": {
      "allowance": {
        "details": "Returns the remaining number of tokens that `spender` will be allowed to spend on behalf of `owner` through {transferFrom}. This is zero by default. This value changes when {approve} or {transferFrom} are called."
      },
      "balanceOf": {
        "details": "Returns the amount of tokens owned by `account`."
      },
      "totalSupply": {
        "details": "Returns the amount of tokens in existence."
      }
    },
    "title": "Contract for OpenCleanUp ecosystem",
    "version": 1
  },
  "userdoc": {
    "events": {
      "Burn(address,uint256)": {
        "notice": "Emitted when tokens are burned"
      },
      "GrantRole(bytes32,address)": {
        "notice": "Emitted when role is granted"
      },
      "Log(string,address,uint256,bytes)": {
        "notice": "Emitted when Ether is sent to the contract"
      },
      "Mint(address,uint256)": {
        "notice": "Emitted when tokens are minted"
      },
      "RevokeRole(bytes32,address)": {
        "notice": "Emitted when role is revoked"
      }
    },
    "kind": "user",
    "methods": {
      "approve(address,uint256)": {
        "notice": "ERC20 standard; Approve other acccount to send funds from the wallet "
      },
      "burn(uint256)": {
        "notice": "Burn OCU tokens with a Foundation wallet"
      },
      "distribute(address,uint256)": {
        "notice": "Gives 'distributer' roles ability to transfer tokens from Foundation wallet"
      },
      "grantRole(bytes32,address)": {
        "notice": "Grants role to address"
      },
      "mint(uint256)": {
        "notice": "Mint OCU tokens with a Foundation wallet"
      },
      "previewGrantRole()": {
        "notice": "Function added for preview purposes; Grants Foundation role to message sender"
      },
      "resumeContract()": {
        "notice": "Gives Foundation to resume distribution functionality"
      },
      "revokeRole(bytes32,address)": {
        "notice": "Revokes role of address"
      },
      "roleOf(address)": {
        "notice": "Checks role of an address"
      },
      "stopContract()": {
        "notice": "Gives Foundation ability to stop distribution functionality"
      },
      "transfer(address,uint256)": {
        "notice": "Transfers OCU tokens between wallets"
      },
      "transferFrom(address,address,uint256)": {
        "notice": "ERC20 functionality; Transfer OCU tokens from wallet that gave permission to transfer funds"
      },
      "withdraw(address,uint256)": {
        "notice": "Gives Foundation ability to withdraw Ether from contract"
      }
    },
    "notice": "Allows individuals and enterprises to exchange value between ecosystem participants. This is an experimental contract.",
    "version": 1
  }
}