{
  "contractName": "OpenCleanUpRoles",
  "abi": [
    {
      "anonymous": false,
      "inputs": [
        {
          "indexed": true,
          "internalType": "bytes32",
          "name": "role",
          "type": "bytes32"
        },
        {
          "indexed": true,
          "internalType": "address",
          "name": "account",
          "type": "address"
        }
      ],
      "name": "GrantRole",
      "type": "event"
    },
    {
      "anonymous": false,
      "inputs": [
        {
          "indexed": true,
          "internalType": "bytes32",
          "name": "role",
          "type": "bytes32"
        },
        {
          "indexed": true,
          "internalType": "address",
          "name": "account",
          "type": "address"
        }
      ],
      "name": "RevokeRole",
      "type": "event"
    },
    {
      "inputs": [],
      "name": "FOUNDATION",
      "outputs": [
        {
          "internalType": "bytes32",
          "name": "",
          "type": "bytes32"
        }
      ],
      "stateMutability": "view",
      "type": "function",
      "constant": true
    },
    {
      "inputs": [],
      "name": "NONE",
      "outputs": [
        {
          "internalType": "bytes32",
          "name": "",
          "type": "bytes32"
        }
      ],
      "stateMutability": "view",
      "type": "function",
      "constant": true
    },
    {
      "inputs": [],
      "name": "TOKEN_DISTRIBUTER",
      "outputs": [
        {
          "internalType": "bytes32",
          "name": "",
          "type": "bytes32"
        }
      ],
      "stateMutability": "view",
      "type": "function",
      "constant": true
    },
    {
      "inputs": [],
      "name": "TOKEN_RECEIVER",
      "outputs": [
        {
          "internalType": "bytes32",
          "name": "",
          "type": "bytes32"
        }
      ],
      "stateMutability": "view",
      "type": "function",
      "constant": true
    },
    {
      "inputs": [
        {
          "internalType": "bytes32",
          "name": "",
          "type": "bytes32"
        },
        {
          "internalType": "address",
          "name": "",
          "type": "address"
        }
      ],
      "name": "roles",
      "outputs": [
        {
          "internalType": "bool",
          "name": "",
          "type": "bool"
        }
      ],
      "stateMutability": "view",
      "type": "function",
      "constant": true
    },
    {
      "inputs": [
        {
          "internalType": "bytes32",
          "name": "role",
          "type": "bytes32"
        },
        {
          "internalType": "address",
          "name": "account",
          "type": "address"
        }
      ],
      "name": "grantRole",
      "outputs": [],
      "stateMutability": "nonpayable",
      "type": "function"
    },
    {
      "inputs": [
        {
          "internalType": "bytes32",
          "name": "role",
          "type": "bytes32"
        },
        {
          "internalType": "address",
          "name": "account",
          "type": "address"
        }
      ],
      "name": "revokeRole",
      "outputs": [],
      "stateMutability": "nonpayable",
      "type": "function"
    },
    {
      "inputs": [
        {
          "internalType": "address",
          "name": "account",
          "type": "address"
        }
      ],
      "name": "roleOf",
      "outputs": [
        {
          "internalType": "bytes32",
          "name": "role",
          "type": "bytes32"
        }
      ],
      "stateMutability": "view",
      "type": "function",
      "constant": true
    },
    {
      "inputs": [],
      "name": "previewGrantRole",
      "outputs": [],
      "stateMutability": "nonpayable",
      "type": "function"
    }
  ],
  "bytecode": "0x608060405234801561001057600080fd5b50610a95806100206000396000f3fe608060405234801561001057600080fd5b50600436106100935760003560e01c8063a5d7827e11610066578063a5d7827e1461010e578063ba0ae61e1461013e578063d547741f1461015c578063f8fc08b914610178578063ff65f23c146101a857610093565b80630d40b066146100985780632f2ff15d146100b657806365df2e51146100d257806383525394146100f0575b600080fd5b6100a06101b2565b6040516100ad919061099d565b60405180910390f35b6100d060048036038101906100cb91906108e8565b6101d9565b005b6100da61034a565b6040516100e7919061099d565b60405180910390f35b6100f8610371565b604051610105919061099d565b60405180910390f35b610128600480360381019061012391906108bf565b610398565b604051610135919061099d565b60405180910390f35b6101466105da565b604051610153919061099d565b60405180910390f35b610176600480360381019061017191906108e8565b610601565b005b610192600480360381019061018d91906108e8565b610772565b60405161019f9190610982565b60405180910390f35b6101b06107a1565b005b7f5256df45158a1b783d5d1b7eae366e43e8adc1ddfe02d99d60edbfba2f122ee160001b81565b7f42c574c7286eda4a697031a50021e14becf19cc00ff83d93a7547d3809b37f7260001b60008082815260200190815260200160002060003373ffffffffffffffffffffffffffffffffffffffff1673ffffffffffffffffffffffffffffffffffffffff16815260200190815260200160002060009054906101000a900460ff16610299576040517f08c379a0000000000000000000000000000000000000000000000000000000008152600401610290906109b8565b60405180910390fd5b600160008085815260200190815260200160002060008473ffffffffffffffffffffffffffffffffffffffff1673ffffffffffffffffffffffffffffffffffffffff16815260200190815260200160002060006101000a81548160ff0219169083151502179055508173ffffffffffffffffffffffffffffffffffffffff16837f5a06360d65acf95e98445dc834f205063424c636e65418d928cdfabc33a9539960405160405180910390a3505050565b7f42c574c7286eda4a697031a50021e14becf19cc00ff83d93a7547d3809b37f7260001b81565b7f1b489cce9d784ec074d286492a1ccc9efab255c8a4e6b74d2406b5b7674c6e7460001b81565b60008060007f42c574c7286eda4a697031a50021e14becf19cc00ff83d93a7547d3809b37f7260001b815260200190815260200160002060008373ffffffffffffffffffffffffffffffffffffffff1673ffffffffffffffffffffffffffffffffffffffff16815260200190815260200160002060009054906101000a900460ff166105ac576000807f5256df45158a1b783d5d1b7eae366e43e8adc1ddfe02d99d60edbfba2f122ee160001b815260200190815260200160002060008373ffffffffffffffffffffffffffffffffffffffff1673ffffffffffffffffffffffffffffffffffffffff16815260200190815260200160002060009054906101000a900460ff1661057f576000807fa8be2c61382bed6254f75e306150d63d18d487cc8453e448fff554cbc742e96260001b815260200190815260200160002060008373ffffffffffffffffffffffffffffffffffffffff1673ffffffffffffffffffffffffffffffffffffffff16815260200190815260200160002060009054906101000a900460ff16610552577f1b489cce9d784ec074d286492a1ccc9efab255c8a4e6b74d2406b5b7674c6e7460001b90508061057a565b7fa8be2c61382bed6254f75e306150d63d18d487cc8453e448fff554cbc742e96260001b9050805b6105a7565b7f5256df45158a1b783d5d1b7eae366e43e8adc1ddfe02d99d60edbfba2f122ee160001b9050805b6105d4565b7f42c574c7286eda4a697031a50021e14becf19cc00ff83d93a7547d3809b37f7260001b9050805b50919050565b7fa8be2c61382bed6254f75e306150d63d18d487cc8453e448fff554cbc742e96260001b81565b7f42c574c7286eda4a697031a50021e14becf19cc00ff83d93a7547d3809b37f7260001b60008082815260200190815260200160002060003373ffffffffffffffffffffffffffffffffffffffff1673ffffffffffffffffffffffffffffffffffffffff16815260200190815260200160002060009054906101000a900460ff166106c1576040517f08c379a00000000000000000000000000000000000000000000000000000000081526004016106b8906109b8565b60405180910390fd5b600080600085815260200190815260200160002060008473ffffffffffffffffffffffffffffffffffffffff1673ffffffffffffffffffffffffffffffffffffffff16815260200190815260200160002060006101000a81548160ff0219169083151502179055508173ffffffffffffffffffffffffffffffffffffffff16837f76e6093c136cd7faa5a6d92b2b633f3b4595abd4a529b7a13917398355fea69460405160405180910390a3505050565b60006020528160005260406000206020528060005260406000206000915091509054906101000a900460ff1681565b60016000807f42c574c7286eda4a697031a50021e14becf19cc00ff83d93a7547d3809b37f7260001b815260200190815260200160002060003373ffffffffffffffffffffffffffffffffffffffff1673ffffffffffffffffffffffffffffffffffffffff16815260200190815260200160002060006101000a81548160ff0219169083151502179055503373ffffffffffffffffffffffffffffffffffffffff167f42c574c7286eda4a697031a50021e14becf19cc00ff83d93a7547d3809b37f7260001b7f5a06360d65acf95e98445dc834f205063424c636e65418d928cdfabc33a9539960405160405180910390a3565b6000813590506108a481610a31565b92915050565b6000813590506108b981610a48565b92915050565b6000602082840312156108d157600080fd5b60006108df84828501610895565b91505092915050565b600080604083850312156108fb57600080fd5b6000610909858286016108aa565b925050602061091a85828601610895565b9150509250929050565b61092d816109fb565b82525050565b61093c81610a07565b82525050565b600061094f6018836109d8565b91507f4e6f7420617574686f72697a6564207769746820726f6c6500000000000000006000830152602082019050919050565b60006020820190506109976000830184610924565b92915050565b60006020820190506109b26000830184610933565b92915050565b600060208201905081810360008301526109d181610942565b9050919050565b600082825260208201905092915050565b60006109f482610a11565b9050919050565b60008115159050919050565b6000819050919050565b600073ffffffffffffffffffffffffffffffffffffffff82169050919050565b610a3a816109e9565b8114610a4557600080fd5b50565b610a5181610a07565b8114610a5c57600080fd5b5056fea26469706673582212207c2843b6eb62665344cd005ad35a056426ced2ebe54e04748dbe7a7d5339c96064736f6c63430008000033",
  "immutableReferences": {},
  "source": "// SPDX-License-Identifier: MIT\npragma solidity 0.8.0;\n    \n/// @title Helper contract for OpenCleanUp ecosystem roles\n/// @author Martijncvv\n/// @notice Contract to keep track of wallet roles in the OpenCleanUp ecosystem\n/// @notice This is an experimental contract.\ncontract OpenCleanUpRoles {\n\n    /// @notice Emitted when role is granted\n    /// @param role Roletype that was granded\n    /// @param account Account that received the role\n    event GrantRole(bytes32 indexed role, address indexed account);\n\n    /// @notice Emitted when role is revoked\n    /// @param role Roletype that was revoked\n    /// @param account Account that lost the role\n    event RevokeRole(bytes32 indexed role, address indexed account);\n\n    // Ecosystem roles \n    mapping(bytes32 => mapping(address => bool)) public roles;\n    bytes32 public constant FOUNDATION = 0x42c574c7286eda4a697031a50021e14becf19cc00ff83d93a7547d3809b37f72;\n    bytes32 public constant TOKEN_RECEIVER = 0x5256df45158a1b783d5d1b7eae366e43e8adc1ddfe02d99d60edbfba2f122ee1;\n    bytes32 public constant TOKEN_DISTRIBUTER = 0xa8be2c61382bed6254f75e306150d63d18d487cc8453e448fff554cbc742e962;\n    bytes32 public constant NONE = 0x1b489cce9d784ec074d286492a1ccc9efab255c8a4e6b74d2406b5b7674c6e74;\n    // bytes32 public constant NONE = keccak256(abi.encodePacked(\"x\"));\n\n    /// @notice Checks if address is authorized to change roles\n    /// @param role Roletype that was granded\n    modifier onlyRole(bytes32 role) {\n        require(roles[role][msg.sender], \"Not authorized with role\");\n        _;\n    }\n\n    /// @notice Grants role to address\n    /// @param role Roletype that was granded\n    /// @param account Account that received roletype\n    function grantRole(bytes32 role, address account) external onlyRole(FOUNDATION) {\n           roles[role][account] = true;\n        emit GrantRole(role, account);\n    }\n\n    /// @notice Revokes role of address\n    /// @param role Roletype that was granded\n    /// @param account Account that received roletype\n    function revokeRole(bytes32 role, address account) external onlyRole(FOUNDATION) {\n        roles[role][account] = false;\n        emit RevokeRole(role, account);\n    }\n    \n    /// @notice Checks role of an address\n    /// @param account Account to check roletype\n    function roleOf(address account) external view returns(bytes32 role) {\n        roles[FOUNDATION][account] ? role = FOUNDATION :  \n        roles[TOKEN_RECEIVER][account] ? role = TOKEN_RECEIVER :\n        roles[TOKEN_DISTRIBUTER][account] ? role = TOKEN_DISTRIBUTER : role = NONE;\n    }\n\n    /// @notice Function added for preview purposes; Grants Foundation role to message sender\n    function previewGrantRole() external {\n           roles[0x42c574c7286eda4a697031a50021e14becf19cc00ff83d93a7547d3809b37f72][msg.sender] = true;\n        emit GrantRole(0x42c574c7286eda4a697031a50021e14becf19cc00ff83d93a7547d3809b37f72, msg.sender);\n    }\n  \n}",
  "sourcePath": "/home/martijn/consenSys/blockchain-developer-bootcamp-final-project/contracts/OpenCleanUpRoles.sol",
  "compiler": {
    "name": "solc",
    "version": "0.8.0+commit.c7dfd78e.Emscripten.clang"
  },
  "schemaVersion": "3.4.3",
  "updatedAt": "2022-01-10T17:23:42.475Z",
  "networkType": "ethereum",
  "devdoc": {
    "author": "Martijncvv",
    "events": {
      "GrantRole(bytes32,address)": {
        "params": {
          "account": "Account that received the role",
          "role": "Roletype that was granded"
        }
      },
      "RevokeRole(bytes32,address)": {
        "params": {
          "account": "Account that lost the role",
          "role": "Roletype that was revoked"
        }
      }
    },
    "kind": "dev",
    "methods": {
      "grantRole(bytes32,address)": {
        "params": {
          "account": "Account that received roletype",
          "role": "Roletype that was granded"
        }
      },
      "revokeRole(bytes32,address)": {
        "params": {
          "account": "Account that received roletype",
          "role": "Roletype that was granded"
        }
      },
      "roleOf(address)": {
        "params": {
          "account": "Account to check roletype"
        }
      }
    },
    "title": "Helper contract for OpenCleanUp ecosystem roles",
    "version": 1
  },
  "userdoc": {
    "events": {
      "GrantRole(bytes32,address)": {
        "notice": "Emitted when role is granted"
      },
      "RevokeRole(bytes32,address)": {
        "notice": "Emitted when role is revoked"
      }
    },
    "kind": "user",
    "methods": {
      "grantRole(bytes32,address)": {
        "notice": "Grants role to address"
      },
      "previewGrantRole()": {
        "notice": "Function added for preview purposes; Grants Foundation role to message sender"
      },
      "revokeRole(bytes32,address)": {
        "notice": "Revokes role of address"
      },
      "roleOf(address)": {
        "notice": "Checks role of an address"
      }
    },
    "notice": "Contract to keep track of wallet roles in the OpenCleanUp ecosystemThis is an experimental contract.",
    "version": 1
  }
}