{
  "contractName": "OpenCleanUp",
  "abi": [
    {
      "inputs": [],
      "stateMutability": "nonpayable",
      "type": "constructor"
    },
    {
      "anonymous": false,
      "inputs": [
        {
          "indexed": true,
          "internalType": "address",
          "name": "owner",
          "type": "address"
        },
        {
          "indexed": true,
          "internalType": "address",
          "name": "spender",
          "type": "address"
        },
        {
          "indexed": false,
          "internalType": "uint256",
          "name": "value",
          "type": "uint256"
        }
      ],
      "name": "Approval",
      "type": "event"
    },
    {
      "anonymous": false,
      "inputs": [
        {
          "indexed": true,
          "internalType": "address",
          "name": "sender",
          "type": "address"
        },
        {
          "indexed": false,
          "internalType": "uint256",
          "name": "amount",
          "type": "uint256"
        }
      ],
      "name": "Burn",
      "type": "event"
    },
    {
      "anonymous": false,
      "inputs": [
        {
          "indexed": true,
          "internalType": "bytes32",
          "name": "role",
          "type": "bytes32"
        },
        {
          "indexed": true,
          "internalType": "address",
          "name": "account",
          "type": "address"
        }
      ],
      "name": "GrantRole",
      "type": "event"
    },
    {
      "anonymous": false,
      "inputs": [
        {
          "indexed": true,
          "internalType": "address",
          "name": "sender",
          "type": "address"
        },
        {
          "indexed": false,
          "internalType": "uint256",
          "name": "amount",
          "type": "uint256"
        }
      ],
      "name": "Mint",
      "type": "event"
    },
    {
      "anonymous": false,
      "inputs": [
        {
          "indexed": true,
          "internalType": "bytes32",
          "name": "role",
          "type": "bytes32"
        },
        {
          "indexed": true,
          "internalType": "address",
          "name": "account",
          "type": "address"
        }
      ],
      "name": "RevokeRole",
      "type": "event"
    },
    {
      "anonymous": false,
      "inputs": [
        {
          "indexed": true,
          "internalType": "address",
          "name": "from",
          "type": "address"
        },
        {
          "indexed": true,
          "internalType": "address",
          "name": "to",
          "type": "address"
        },
        {
          "indexed": false,
          "internalType": "uint256",
          "name": "value",
          "type": "uint256"
        }
      ],
      "name": "Transfer",
      "type": "event"
    },
    {
      "inputs": [],
      "name": "FOUNDATION",
      "outputs": [
        {
          "internalType": "bytes32",
          "name": "",
          "type": "bytes32"
        }
      ],
      "stateMutability": "view",
      "type": "function",
      "constant": true
    },
    {
      "inputs": [],
      "name": "NONE",
      "outputs": [
        {
          "internalType": "bytes32",
          "name": "",
          "type": "bytes32"
        }
      ],
      "stateMutability": "view",
      "type": "function",
      "constant": true
    },
    {
      "inputs": [],
      "name": "TOKEN_DISTRIBUTER",
      "outputs": [
        {
          "internalType": "bytes32",
          "name": "",
          "type": "bytes32"
        }
      ],
      "stateMutability": "view",
      "type": "function",
      "constant": true
    },
    {
      "inputs": [],
      "name": "TOKEN_RECEIVER",
      "outputs": [
        {
          "internalType": "bytes32",
          "name": "",
          "type": "bytes32"
        }
      ],
      "stateMutability": "view",
      "type": "function",
      "constant": true
    },
    {
      "inputs": [
        {
          "internalType": "address",
          "name": "",
          "type": "address"
        },
        {
          "internalType": "address",
          "name": "",
          "type": "address"
        }
      ],
      "name": "allowance",
      "outputs": [
        {
          "internalType": "uint256",
          "name": "",
          "type": "uint256"
        }
      ],
      "stateMutability": "view",
      "type": "function",
      "constant": true
    },
    {
      "inputs": [
        {
          "internalType": "address",
          "name": "",
          "type": "address"
        }
      ],
      "name": "balanceOf",
      "outputs": [
        {
          "internalType": "uint256",
          "name": "",
          "type": "uint256"
        }
      ],
      "stateMutability": "view",
      "type": "function",
      "constant": true
    },
    {
      "inputs": [],
      "name": "decimals",
      "outputs": [
        {
          "internalType": "uint8",
          "name": "",
          "type": "uint8"
        }
      ],
      "stateMutability": "view",
      "type": "function",
      "constant": true
    },
    {
      "inputs": [],
      "name": "foundation",
      "outputs": [
        {
          "internalType": "address",
          "name": "",
          "type": "address"
        }
      ],
      "stateMutability": "view",
      "type": "function",
      "constant": true
    },
    {
      "inputs": [
        {
          "internalType": "bytes32",
          "name": "_role",
          "type": "bytes32"
        },
        {
          "internalType": "address",
          "name": "_account",
          "type": "address"
        }
      ],
      "name": "grantRole",
      "outputs": [],
      "stateMutability": "nonpayable",
      "type": "function"
    },
    {
      "inputs": [],
      "name": "name",
      "outputs": [
        {
          "internalType": "string",
          "name": "",
          "type": "string"
        }
      ],
      "stateMutability": "view",
      "type": "function",
      "constant": true
    },
    {
      "inputs": [
        {
          "internalType": "bytes32",
          "name": "_role",
          "type": "bytes32"
        },
        {
          "internalType": "address",
          "name": "_account",
          "type": "address"
        }
      ],
      "name": "revokeRole",
      "outputs": [],
      "stateMutability": "nonpayable",
      "type": "function"
    },
    {
      "inputs": [
        {
          "internalType": "address",
          "name": "_address",
          "type": "address"
        }
      ],
      "name": "roleOf",
      "outputs": [
        {
          "internalType": "bytes32",
          "name": "role",
          "type": "bytes32"
        }
      ],
      "stateMutability": "view",
      "type": "function",
      "constant": true
    },
    {
      "inputs": [
        {
          "internalType": "bytes32",
          "name": "",
          "type": "bytes32"
        },
        {
          "internalType": "address",
          "name": "",
          "type": "address"
        }
      ],
      "name": "roles",
      "outputs": [
        {
          "internalType": "bool",
          "name": "",
          "type": "bool"
        }
      ],
      "stateMutability": "view",
      "type": "function",
      "constant": true
    },
    {
      "inputs": [],
      "name": "symbol",
      "outputs": [
        {
          "internalType": "string",
          "name": "",
          "type": "string"
        }
      ],
      "stateMutability": "view",
      "type": "function",
      "constant": true
    },
    {
      "inputs": [],
      "name": "totalSupply",
      "outputs": [
        {
          "internalType": "uint256",
          "name": "",
          "type": "uint256"
        }
      ],
      "stateMutability": "view",
      "type": "function",
      "constant": true
    },
    {
      "inputs": [
        {
          "internalType": "address",
          "name": "recipient",
          "type": "address"
        },
        {
          "internalType": "uint256",
          "name": "amount",
          "type": "uint256"
        }
      ],
      "name": "transfer",
      "outputs": [
        {
          "internalType": "bool",
          "name": "",
          "type": "bool"
        }
      ],
      "stateMutability": "nonpayable",
      "type": "function"
    },
    {
      "inputs": [
        {
          "internalType": "address",
          "name": "spender",
          "type": "address"
        },
        {
          "internalType": "uint256",
          "name": "amount",
          "type": "uint256"
        }
      ],
      "name": "approve",
      "outputs": [
        {
          "internalType": "bool",
          "name": "",
          "type": "bool"
        }
      ],
      "stateMutability": "nonpayable",
      "type": "function"
    },
    {
      "inputs": [
        {
          "internalType": "address",
          "name": "sender",
          "type": "address"
        },
        {
          "internalType": "address",
          "name": "recipient",
          "type": "address"
        },
        {
          "internalType": "uint256",
          "name": "amount",
          "type": "uint256"
        }
      ],
      "name": "transferFrom",
      "outputs": [
        {
          "internalType": "bool",
          "name": "",
          "type": "bool"
        }
      ],
      "stateMutability": "nonpayable",
      "type": "function"
    },
    {
      "inputs": [
        {
          "internalType": "uint256",
          "name": "amount",
          "type": "uint256"
        }
      ],
      "name": "mint",
      "outputs": [],
      "stateMutability": "nonpayable",
      "type": "function"
    },
    {
      "inputs": [
        {
          "internalType": "uint256",
          "name": "amount",
          "type": "uint256"
        }
      ],
      "name": "burn",
      "outputs": [],
      "stateMutability": "nonpayable",
      "type": "function"
    },
    {
      "inputs": [
        {
          "internalType": "address",
          "name": "recipient",
          "type": "address"
        },
        {
          "internalType": "uint256",
          "name": "amount",
          "type": "uint256"
        }
      ],
      "name": "distribute",
      "outputs": [
        {
          "internalType": "bool",
          "name": "",
          "type": "bool"
        }
      ],
      "stateMutability": "nonpayable",
      "type": "function"
    }
  ],
  "bytecode": "0x60806040526127106001556040518060400160405280600b81526020017f4f70656e436c65616e55700000000000000000000000000000000000000000008152506004908051906020019062000057929190620001eb565b506040518060400160405280600381526020017f4f4355000000000000000000000000000000000000000000000000000000000081525060059080519060200190620000a5929190620001eb565b506012600660006101000a81548160ff021916908360ff160217905550348015620000cf57600080fd5b50600154600260003373ffffffffffffffffffffffffffffffffffffffff1673ffffffffffffffffffffffffffffffffffffffff1681526020019081526020016000208190555033600660016101000a81548173ffffffffffffffffffffffffffffffffffffffff021916908373ffffffffffffffffffffffffffffffffffffffff16021790555060016000806040516020016200016d90620002dd565b60405160208183030381529060405280519060200120815260200190815260200160002060003373ffffffffffffffffffffffffffffffffffffffff1673ffffffffffffffffffffffffffffffffffffffff16815260200190815260200160002060006101000a81548160ff02191690831515021790555062000364565b828054620001f990620002ff565b90600052602060002090601f0160209004810192826200021d576000855562000269565b82601f106200023857805160ff191683800117855562000269565b8280016001018555821562000269579182015b82811115620002685782518255916020019190600101906200024b565b5b5090506200027891906200027c565b5090565b5b80821115620002975760008160009055506001016200027d565b5090565b6000620002aa600a83620002f4565b91507f464f554e444154494f4e000000000000000000000000000000000000000000006000830152600a82019050919050565b6000620002ea826200029b565b9150819050919050565b600081905092915050565b600060028204905060018216806200031857607f821691505b602082108114156200032f576200032e62000335565b5b50919050565b7f4e487b7100000000000000000000000000000000000000000000000000000000600052602260045260246000fd5b611b6780620003746000396000f3fe608060405234801561001057600080fd5b50600436106101375760003560e01c806370a08231116100b8578063a9059cbb1161007c578063a9059cbb14610340578063ba0ae61e14610370578063d547741f1461038e578063dd62ed3e146103aa578063f8fc08b9146103da578063fb9321081461040a57610137565b806370a082311461028857806383525394146102b857806395d89b41146102d6578063a0712d68146102f4578063a5d7827e1461031057610137565b80632f2ff15d116100ff5780632f2ff15d146101f6578063313ce5671461021257806341fbb0501461023057806342966c681461024e57806365df2e511461026a57610137565b806306fdde031461013c578063095ea7b31461015a5780630d40b0661461018a57806318160ddd146101a857806323b872dd146101c6575b600080fd5b61014461043a565b6040516101519190611890565b60405180910390f35b610174600480360381019061016f9190611586565b6104c8565b604051610181919061185a565b60405180910390f35b6101926105ba565b60405161019f9190611875565b60405180910390f35b6101b06105e2565b6040516101bd91906118d2565b60405180910390f35b6101e060048036038101906101db9190611537565b6105e8565b6040516101ed919061185a565b60405180910390f35b610210600480360381019061020b91906115c2565b610799565b005b61021a61090b565b60405161022791906118ed565b60405180910390f35b61023861091e565b604051610245919061183f565b60405180910390f35b610268600480360381019061026391906115fe565b610944565b005b610272610ac6565b60405161027f9190611875565b60405180910390f35b6102a2600480360381019061029d91906114d2565b610aee565b6040516102af91906118d2565b60405180910390f35b6102c0610b06565b6040516102cd9190611875565b60405180910390f35b6102de610b2e565b6040516102eb9190611890565b60405180910390f35b61030e600480360381019061030991906115fe565b610bbc565b005b61032a600480360381019061032591906114d2565b610d3e565b6040516103379190611875565b60405180910390f35b61035a60048036038101906103559190611586565b610f87565b604051610367919061185a565b60405180910390f35b6103786110a4565b6040516103859190611875565b60405180910390f35b6103a860048036038101906103a391906115c2565b6110cc565b005b6103c460048036038101906103bf91906114fb565b61123e565b6040516103d191906118d2565b60405180910390f35b6103f460048036038101906103ef91906115c2565b611263565b604051610401919061185a565b60405180910390f35b610424600480360381019061041f9190611586565b611292565b604051610431919061185a565b60405180910390f35b6004805461044790611a4b565b80601f016020809104026020016040519081016040528092919081815260200182805461047390611a4b565b80156104c05780601f10610495576101008083540402835291602001916104c0565b820191906000526020600020905b8154815290600101906020018083116104a357829003601f168201915b505050505081565b600081600360003373ffffffffffffffffffffffffffffffffffffffff1673ffffffffffffffffffffffffffffffffffffffff16815260200190815260200160002060008573ffffffffffffffffffffffffffffffffffffffff1673ffffffffffffffffffffffffffffffffffffffff168152602001908152602001600020819055508273ffffffffffffffffffffffffffffffffffffffff163373ffffffffffffffffffffffffffffffffffffffff167f8c5be1e5ebec7d5bd14f71427d1e84f3dd0314c0f7b2291e5b200ac8c7c3b925846040516105a891906118d2565b60405180910390a36001905092915050565b6040516020016105c990611815565b6040516020818303038152906040528051906020012081565b60015481565b600081600360008673ffffffffffffffffffffffffffffffffffffffff1673ffffffffffffffffffffffffffffffffffffffff16815260200190815260200160002060003373ffffffffffffffffffffffffffffffffffffffff1673ffffffffffffffffffffffffffffffffffffffff16815260200190815260200160002060008282546106769190611985565b9250508190555081600260008673ffffffffffffffffffffffffffffffffffffffff1673ffffffffffffffffffffffffffffffffffffffff16815260200190815260200160002060008282546106cc9190611985565b9250508190555081600260008573ffffffffffffffffffffffffffffffffffffffff1673ffffffffffffffffffffffffffffffffffffffff1681526020019081526020016000206000828254610722919061192f565b925050819055508273ffffffffffffffffffffffffffffffffffffffff168473ffffffffffffffffffffffffffffffffffffffff167fddf252ad1be2c89b69c2b068fc378daa952ba7f163c4a11628f55a4df523b3ef8460405161078691906118d2565b60405180910390a3600190509392505050565b6040516020016107a890611800565b6040516020818303038152906040528051906020012060008082815260200190815260200160002060003373ffffffffffffffffffffffffffffffffffffffff1673ffffffffffffffffffffffffffffffffffffffff16815260200190815260200160002060009054906101000a900460ff1661085a576040517f08c379a0000000000000000000000000000000000000000000000000000000008152600401610851906118b2565b60405180910390fd5b600160008085815260200190815260200160002060008473ffffffffffffffffffffffffffffffffffffffff1673ffffffffffffffffffffffffffffffffffffffff16815260200190815260200160002060006101000a81548160ff0219169083151502179055508173ffffffffffffffffffffffffffffffffffffffff16837f5a06360d65acf95e98445dc834f205063424c636e65418d928cdfabc33a9539960405160405180910390a3505050565b600660009054906101000a900460ff1681565b600660019054906101000a900473ffffffffffffffffffffffffffffffffffffffff1681565b60405160200161095390611800565b6040516020818303038152906040528051906020012060008082815260200190815260200160002060003373ffffffffffffffffffffffffffffffffffffffff1673ffffffffffffffffffffffffffffffffffffffff16815260200190815260200160002060009054906101000a900460ff16610a05576040517f08c379a00000000000000000000000000000000000000000000000000000000081526004016109fc906118b2565b60405180910390fd5b81600260003373ffffffffffffffffffffffffffffffffffffffff1673ffffffffffffffffffffffffffffffffffffffff1681526020019081526020016000206000828254610a549190611985565b925050819055508160016000828254610a6d9190611985565b925050819055503373ffffffffffffffffffffffffffffffffffffffff167fcc16f5dbb4873280815c1ee09dbd06736cffcc184412cf7a71a0fdb75d397ca583604051610aba91906118d2565b60405180910390a25050565b604051602001610ad590611800565b6040516020818303038152906040528051906020012081565b60026020528060005260406000206000915090505481565b604051602001610b15906117eb565b6040516020818303038152906040528051906020012081565b60058054610b3b90611a4b565b80601f0160208091040260200160405190810160405280929190818152602001828054610b6790611a4b565b8015610bb45780601f10610b8957610100808354040283529160200191610bb4565b820191906000526020600020905b815481529060010190602001808311610b9757829003601f168201915b505050505081565b604051602001610bcb90611800565b6040516020818303038152906040528051906020012060008082815260200190815260200160002060003373ffffffffffffffffffffffffffffffffffffffff1673ffffffffffffffffffffffffffffffffffffffff16815260200190815260200160002060009054906101000a900460ff16610c7d576040517f08c379a0000000000000000000000000000000000000000000000000000000008152600401610c74906118b2565b60405180910390fd5b81600260003373ffffffffffffffffffffffffffffffffffffffff1673ffffffffffffffffffffffffffffffffffffffff1681526020019081526020016000206000828254610ccc919061192f565b925050819055508160016000828254610ce5919061192f565b925050819055503373ffffffffffffffffffffffffffffffffffffffff167f0f6798a560793a54c3bcfe86a93cde1e73087d944c0ea20544137d412139688583604051610d3291906118d2565b60405180910390a25050565b6000806000604051602001610d5290611800565b60405160208183030381529060405280519060200120815260200190815260200160002060008373ffffffffffffffffffffffffffffffffffffffff1673ffffffffffffffffffffffffffffffffffffffff16815260200190815260200160002060009054906101000a900460ff16610f5857600080604051602001610dd790611815565b60405160208183030381529060405280519060200120815260200190815260200160002060008373ffffffffffffffffffffffffffffffffffffffff1673ffffffffffffffffffffffffffffffffffffffff16815260200190815260200160002060009054906101000a900460ff16610f2a57600080604051602001610e5c9061182a565b60405160208183030381529060405280519060200120815260200190815260200160002060008373ffffffffffffffffffffffffffffffffffffffff1673ffffffffffffffffffffffffffffffffffffffff16815260200190815260200160002060009054906101000a900460ff16610efc57604051602001610ede906117eb565b60405160208183030381529060405280519060200120905080610f25565b604051602001610f0b9061182a565b604051602081830303815290604052805190602001209050805b610f53565b604051602001610f3990611815565b604051602081830303815290604052805190602001209050805b610f81565b604051602001610f6790611800565b604051602081830303815290604052805190602001209050805b50919050565b600081600260003373ffffffffffffffffffffffffffffffffffffffff1673ffffffffffffffffffffffffffffffffffffffff1681526020019081526020016000206000828254610fd89190611985565b9250508190555081600260008573ffffffffffffffffffffffffffffffffffffffff1673ffffffffffffffffffffffffffffffffffffffff168152602001908152602001600020600082825461102e919061192f565b925050819055508273ffffffffffffffffffffffffffffffffffffffff163373ffffffffffffffffffffffffffffffffffffffff167fddf252ad1be2c89b69c2b068fc378daa952ba7f163c4a11628f55a4df523b3ef8460405161109291906118d2565b60405180910390a36001905092915050565b6040516020016110b39061182a565b6040516020818303038152906040528051906020012081565b6040516020016110db90611800565b6040516020818303038152906040528051906020012060008082815260200190815260200160002060003373ffffffffffffffffffffffffffffffffffffffff1673ffffffffffffffffffffffffffffffffffffffff16815260200190815260200160002060009054906101000a900460ff1661118d576040517f08c379a0000000000000000000000000000000000000000000000000000000008152600401611184906118b2565b60405180910390fd5b600080600085815260200190815260200160002060008473ffffffffffffffffffffffffffffffffffffffff1673ffffffffffffffffffffffffffffffffffffffff16815260200190815260200160002060006101000a81548160ff0219169083151502179055508173ffffffffffffffffffffffffffffffffffffffff16837f76e6093c136cd7faa5a6d92b2b633f3b4595abd4a529b7a13917398355fea69460405160405180910390a3505050565b6003602052816000526040600020602052806000526040600020600091509150505481565b60006020528160005260406000206020528060005260406000206000915091509054906101000a900460ff1681565b60006040516020016112a39061182a565b6040516020818303038152906040528051906020012060008082815260200190815260200160002060003373ffffffffffffffffffffffffffffffffffffffff1673ffffffffffffffffffffffffffffffffffffffff16815260200190815260200160002060009054906101000a900460ff16611355576040517f08c379a000000000000000000000000000000000000000000000000000000000815260040161134c906118b2565b60405180910390fd5b8260026000600660019054906101000a900473ffffffffffffffffffffffffffffffffffffffff1673ffffffffffffffffffffffffffffffffffffffff1673ffffffffffffffffffffffffffffffffffffffff16815260200190815260200160002060008282546113c69190611985565b9250508190555082600260008673ffffffffffffffffffffffffffffffffffffffff1673ffffffffffffffffffffffffffffffffffffffff168152602001908152602001600020600082825461141c919061192f565b925050819055508373ffffffffffffffffffffffffffffffffffffffff163373ffffffffffffffffffffffffffffffffffffffff167fddf252ad1be2c89b69c2b068fc378daa952ba7f163c4a11628f55a4df523b3ef8560405161148091906118d2565b60405180910390a3600191505092915050565b6000813590506114a281611aec565b92915050565b6000813590506114b781611b03565b92915050565b6000813590506114cc81611b1a565b92915050565b6000602082840312156114e457600080fd5b60006114f284828501611493565b91505092915050565b6000806040838503121561150e57600080fd5b600061151c85828601611493565b925050602061152d85828601611493565b9150509250929050565b60008060006060848603121561154c57600080fd5b600061155a86828701611493565b935050602061156b86828701611493565b925050604061157c868287016114bd565b9150509250925092565b6000806040838503121561159957600080fd5b60006115a785828601611493565b92505060206115b8858286016114bd565b9150509250929050565b600080604083850312156115d557600080fd5b60006115e3858286016114a8565b92505060206115f485828601611493565b9150509250929050565b60006020828403121561161057600080fd5b600061161e848285016114bd565b91505092915050565b611630816119b9565b82525050565b61163f816119cb565b82525050565b61164e816119d7565b82525050565b600061165f82611908565b6116698185611913565b9350611679818560208601611a18565b61168281611adb565b840191505092915050565b600061169a600483611924565b91507f4e4f4e45000000000000000000000000000000000000000000000000000000006000830152600482019050919050565b60006116da600a83611924565b91507f464f554e444154494f4e000000000000000000000000000000000000000000006000830152600a82019050919050565b600061171a600e83611924565b91507f544f4b454e5f52454345495645520000000000000000000000000000000000006000830152600e82019050919050565b600061175a601183611924565b91507f544f4b454e5f44495354524942555445520000000000000000000000000000006000830152601182019050919050565b600061179a601d83611913565b91507f4e6f7420617574686f72697a6564207769746820796f757220726f6c650000006000830152602082019050919050565b6117d681611a01565b82525050565b6117e581611a0b565b82525050565b60006117f68261168d565b9150819050919050565b600061180b826116cd565b9150819050919050565b60006118208261170d565b9150819050919050565b60006118358261174d565b9150819050919050565b60006020820190506118546000830184611627565b92915050565b600060208201905061186f6000830184611636565b92915050565b600060208201905061188a6000830184611645565b92915050565b600060208201905081810360008301526118aa8184611654565b905092915050565b600060208201905081810360008301526118cb8161178d565b9050919050565b60006020820190506118e760008301846117cd565b92915050565b600060208201905061190260008301846117dc565b92915050565b600081519050919050565b600082825260208201905092915050565b600081905092915050565b600061193a82611a01565b915061194583611a01565b9250827fffffffffffffffffffffffffffffffffffffffffffffffffffffffffffffffff0382111561197a57611979611a7d565b5b828201905092915050565b600061199082611a01565b915061199b83611a01565b9250828210156119ae576119ad611a7d565b5b828203905092915050565b60006119c4826119e1565b9050919050565b60008115159050919050565b6000819050919050565b600073ffffffffffffffffffffffffffffffffffffffff82169050919050565b6000819050919050565b600060ff82169050919050565b60005b83811015611a36578082015181840152602081019050611a1b565b83811115611a45576000848401525b50505050565b60006002820490506001821680611a6357607f821691505b60208210811415611a7757611a76611aac565b5b50919050565b7f4e487b7100000000000000000000000000000000000000000000000000000000600052601160045260246000fd5b7f4e487b7100000000000000000000000000000000000000000000000000000000600052602260045260246000fd5b6000601f19601f8301169050919050565b611af5816119b9565b8114611b0057600080fd5b50565b611b0c816119d7565b8114611b1757600080fd5b50565b611b2381611a01565b8114611b2e57600080fd5b5056fea264697066735822122057b9708668af7c7087684b26c65fc3941c2b0f82b5014d51a43e8ea3fa7443db64736f6c63430008000033",
  "immutableReferences": {},
  "source": "// SPDX-License-Identifier: MIT\npragma solidity ^0.8.0;\n\n// import \"./IERC20.sol\";\n// import \"../node_modules/@openzeppelin/contracts/token/ERC20/ERC20.sol\";\n// import \"https://github.com/OpenZeppelin/openzeppelin-contracts/blob/master/contracts/token/ERC20/IERC20.sol\";\nimport \"./OpenCleanUpRoles.sol\";\nimport \"../node_modules/@openzeppelin/contracts/token/ERC20/IERC20.sol\";\n\n\ncontract OpenCleanUp is IERC20, OpenCleanUpRoles  {\n    event Burn(address indexed sender, uint amount);\n    event Mint(address indexed sender, uint amount);\n\n    // token functionality\n    uint public override totalSupply = 10000;\n    mapping(address => uint) public override balanceOf;\n    mapping(address => mapping(address => uint)) public override allowance;\n    string public name = \"OpenCleanUp\";\n    string public symbol = \"OCU\";\n    uint8 public decimals = 18;\n\n    address public foundation;\n\n\n    constructor() {\n        balanceOf[msg.sender] = totalSupply;\n        foundation = msg.sender;\n        roles[FOUNDATION][msg.sender] = true;\n    }\n\n    function transfer(address recipient, uint amount) external override returns (bool) {\n        balanceOf[msg.sender] -= amount;\n        balanceOf[recipient] += amount;\n        emit Transfer(msg.sender, recipient, amount);\n        return true;\n    }\n\n    function approve(address spender, uint amount) external override returns (bool) {\n        allowance[msg.sender][spender] = amount;\n        emit Approval(msg.sender, spender, amount);\n        return true;\n    }\n\n    function transferFrom(\n        address sender,\n        address recipient,\n        uint amount\n    ) external override returns (bool) {\n        allowance[sender][msg.sender] -= amount;\n\n        balanceOf[sender] -= amount;\n        balanceOf[recipient] += amount;\n        emit Transfer(sender, recipient, amount);\n        return true;\n    }\n\n    function mint(uint amount) external onlyRole(FOUNDATION) {\n        balanceOf[msg.sender] += amount;\n        totalSupply += amount;\n        emit Mint(msg.sender, amount);\n    }\n\n    function burn(uint amount) external onlyRole(FOUNDATION) {\n        balanceOf[msg.sender] -= amount;\n        totalSupply -= amount;\n        emit Burn(msg.sender, amount);\n    }\n\n    function distribute(address recipient, uint amount) external onlyRole(TOKEN_DISTRIBUTER) returns (bool) {\n        balanceOf[foundation] -= amount;\n        balanceOf[recipient] += amount;\n        emit Transfer(msg.sender, recipient, amount);\n        return true;\n    }\n}\n\n",
  "sourcePath": "/home/martijn/consenSys/blockchain-developer-bootcamp-final-project/contracts/OpenCleanUp.sol",
  "compiler": {
    "name": "solc",
    "version": "0.8.0+commit.c7dfd78e.Emscripten.clang"
  },
  "schemaVersion": "3.4.3",
  "updatedAt": "2021-12-14T18:45:08.335Z",
  "networkType": "ethereum",
  "devdoc": {
    "kind": "dev",
    "methods": {
      "approve(address,uint256)": {
        "details": "Sets `amount` as the allowance of `spender` over the caller's tokens. Returns a boolean value indicating whether the operation succeeded. IMPORTANT: Beware that changing an allowance with this method brings the risk that someone may use both the old and the new allowance by unfortunate transaction ordering. One possible solution to mitigate this race condition is to first reduce the spender's allowance to 0 and set the desired value afterwards: https://github.com/ethereum/EIPs/issues/20#issuecomment-263524729 Emits an {Approval} event."
      },
      "transfer(address,uint256)": {
        "details": "Moves `amount` tokens from the caller's account to `recipient`. Returns a boolean value indicating whether the operation succeeded. Emits a {Transfer} event."
      },
      "transferFrom(address,address,uint256)": {
        "details": "Moves `amount` tokens from `sender` to `recipient` using the allowance mechanism. `amount` is then deducted from the caller's allowance. Returns a boolean value indicating whether the operation succeeded. Emits a {Transfer} event."
      }
    },
    "stateVariables": {
      "allowance": {
        "details": "Returns the remaining number of tokens that `spender` will be allowed to spend on behalf of `owner` through {transferFrom}. This is zero by default. This value changes when {approve} or {transferFrom} are called."
      },
      "balanceOf": {
        "details": "Returns the amount of tokens owned by `account`."
      },
      "totalSupply": {
        "details": "Returns the amount of tokens in existence."
      }
    },
    "version": 1
  },
  "userdoc": {
    "kind": "user",
    "methods": {},
    "version": 1
  }
}