{
  "contractName": "OpenCleanUp",
  "abi": [
    {
      "inputs": [],
      "stateMutability": "nonpayable",
      "type": "constructor"
    },
    {
      "anonymous": false,
      "inputs": [
        {
          "indexed": true,
          "internalType": "address",
          "name": "owner",
          "type": "address"
        },
        {
          "indexed": true,
          "internalType": "address",
          "name": "spender",
          "type": "address"
        },
        {
          "indexed": false,
          "internalType": "uint256",
          "name": "value",
          "type": "uint256"
        }
      ],
      "name": "Approval",
      "type": "event"
    },
    {
      "anonymous": false,
      "inputs": [
        {
          "indexed": true,
          "internalType": "address",
          "name": "sender",
          "type": "address"
        },
        {
          "indexed": false,
          "internalType": "uint256",
          "name": "amount",
          "type": "uint256"
        }
      ],
      "name": "Burn",
      "type": "event"
    },
    {
      "anonymous": false,
      "inputs": [
        {
          "indexed": true,
          "internalType": "bytes32",
          "name": "role",
          "type": "bytes32"
        },
        {
          "indexed": true,
          "internalType": "address",
          "name": "account",
          "type": "address"
        }
      ],
      "name": "GrantRole",
      "type": "event"
    },
    {
      "anonymous": false,
      "inputs": [
        {
          "indexed": true,
          "internalType": "address",
          "name": "sender",
          "type": "address"
        },
        {
          "indexed": false,
          "internalType": "uint256",
          "name": "amount",
          "type": "uint256"
        }
      ],
      "name": "Mint",
      "type": "event"
    },
    {
      "anonymous": false,
      "inputs": [
        {
          "indexed": true,
          "internalType": "bytes32",
          "name": "role",
          "type": "bytes32"
        },
        {
          "indexed": true,
          "internalType": "address",
          "name": "account",
          "type": "address"
        }
      ],
      "name": "RevokeRole",
      "type": "event"
    },
    {
      "anonymous": false,
      "inputs": [
        {
          "indexed": true,
          "internalType": "address",
          "name": "from",
          "type": "address"
        },
        {
          "indexed": true,
          "internalType": "address",
          "name": "to",
          "type": "address"
        },
        {
          "indexed": false,
          "internalType": "uint256",
          "name": "value",
          "type": "uint256"
        }
      ],
      "name": "Transfer",
      "type": "event"
    },
    {
      "inputs": [],
      "name": "FOUNDATION",
      "outputs": [
        {
          "internalType": "bytes32",
          "name": "",
          "type": "bytes32"
        }
      ],
      "stateMutability": "view",
      "type": "function",
      "constant": true
    },
    {
      "inputs": [],
      "name": "NONE",
      "outputs": [
        {
          "internalType": "bytes32",
          "name": "",
          "type": "bytes32"
        }
      ],
      "stateMutability": "view",
      "type": "function",
      "constant": true
    },
    {
      "inputs": [],
      "name": "TOKEN_DISTRIBUTER",
      "outputs": [
        {
          "internalType": "bytes32",
          "name": "",
          "type": "bytes32"
        }
      ],
      "stateMutability": "view",
      "type": "function",
      "constant": true
    },
    {
      "inputs": [],
      "name": "TOKEN_RECEIVER",
      "outputs": [
        {
          "internalType": "bytes32",
          "name": "",
          "type": "bytes32"
        }
      ],
      "stateMutability": "view",
      "type": "function",
      "constant": true
    },
    {
      "inputs": [
        {
          "internalType": "address",
          "name": "",
          "type": "address"
        },
        {
          "internalType": "address",
          "name": "",
          "type": "address"
        }
      ],
      "name": "allowance",
      "outputs": [
        {
          "internalType": "uint256",
          "name": "",
          "type": "uint256"
        }
      ],
      "stateMutability": "view",
      "type": "function",
      "constant": true
    },
    {
      "inputs": [
        {
          "internalType": "address",
          "name": "",
          "type": "address"
        }
      ],
      "name": "balanceOf",
      "outputs": [
        {
          "internalType": "uint256",
          "name": "",
          "type": "uint256"
        }
      ],
      "stateMutability": "view",
      "type": "function",
      "constant": true
    },
    {
      "inputs": [],
      "name": "decimals",
      "outputs": [
        {
          "internalType": "uint8",
          "name": "",
          "type": "uint8"
        }
      ],
      "stateMutability": "view",
      "type": "function",
      "constant": true
    },
    {
      "inputs": [],
      "name": "foundation",
      "outputs": [
        {
          "internalType": "address",
          "name": "",
          "type": "address"
        }
      ],
      "stateMutability": "view",
      "type": "function",
      "constant": true
    },
    {
      "inputs": [
        {
          "internalType": "bytes32",
          "name": "_role",
          "type": "bytes32"
        },
        {
          "internalType": "address",
          "name": "_account",
          "type": "address"
        }
      ],
      "name": "grantRole",
      "outputs": [],
      "stateMutability": "nonpayable",
      "type": "function"
    },
    {
      "inputs": [],
      "name": "name",
      "outputs": [
        {
          "internalType": "string",
          "name": "",
          "type": "string"
        }
      ],
      "stateMutability": "view",
      "type": "function",
      "constant": true
    },
    {
      "inputs": [],
      "name": "previewGrantRole",
      "outputs": [],
      "stateMutability": "nonpayable",
      "type": "function"
    },
    {
      "inputs": [
        {
          "internalType": "bytes32",
          "name": "_role",
          "type": "bytes32"
        },
        {
          "internalType": "address",
          "name": "_account",
          "type": "address"
        }
      ],
      "name": "revokeRole",
      "outputs": [],
      "stateMutability": "nonpayable",
      "type": "function"
    },
    {
      "inputs": [
        {
          "internalType": "address",
          "name": "_address",
          "type": "address"
        }
      ],
      "name": "roleOf",
      "outputs": [
        {
          "internalType": "bytes32",
          "name": "role",
          "type": "bytes32"
        }
      ],
      "stateMutability": "view",
      "type": "function",
      "constant": true
    },
    {
      "inputs": [
        {
          "internalType": "bytes32",
          "name": "",
          "type": "bytes32"
        },
        {
          "internalType": "address",
          "name": "",
          "type": "address"
        }
      ],
      "name": "roles",
      "outputs": [
        {
          "internalType": "bool",
          "name": "",
          "type": "bool"
        }
      ],
      "stateMutability": "view",
      "type": "function",
      "constant": true
    },
    {
      "inputs": [],
      "name": "symbol",
      "outputs": [
        {
          "internalType": "string",
          "name": "",
          "type": "string"
        }
      ],
      "stateMutability": "view",
      "type": "function",
      "constant": true
    },
    {
      "inputs": [],
      "name": "totalSupply",
      "outputs": [
        {
          "internalType": "uint256",
          "name": "",
          "type": "uint256"
        }
      ],
      "stateMutability": "view",
      "type": "function",
      "constant": true
    },
    {
      "inputs": [],
      "name": "stopContract",
      "outputs": [],
      "stateMutability": "nonpayable",
      "type": "function"
    },
    {
      "inputs": [],
      "name": "resumeContract",
      "outputs": [],
      "stateMutability": "nonpayable",
      "type": "function"
    },
    {
      "inputs": [
        {
          "internalType": "address",
          "name": "recipient",
          "type": "address"
        },
        {
          "internalType": "uint256",
          "name": "amount",
          "type": "uint256"
        }
      ],
      "name": "transfer",
      "outputs": [
        {
          "internalType": "bool",
          "name": "",
          "type": "bool"
        }
      ],
      "stateMutability": "nonpayable",
      "type": "function"
    },
    {
      "inputs": [
        {
          "internalType": "address",
          "name": "spender",
          "type": "address"
        },
        {
          "internalType": "uint256",
          "name": "amount",
          "type": "uint256"
        }
      ],
      "name": "approve",
      "outputs": [
        {
          "internalType": "bool",
          "name": "",
          "type": "bool"
        }
      ],
      "stateMutability": "nonpayable",
      "type": "function"
    },
    {
      "inputs": [
        {
          "internalType": "address",
          "name": "sender",
          "type": "address"
        },
        {
          "internalType": "address",
          "name": "recipient",
          "type": "address"
        },
        {
          "internalType": "uint256",
          "name": "amount",
          "type": "uint256"
        }
      ],
      "name": "transferFrom",
      "outputs": [
        {
          "internalType": "bool",
          "name": "",
          "type": "bool"
        }
      ],
      "stateMutability": "nonpayable",
      "type": "function"
    },
    {
      "inputs": [
        {
          "internalType": "uint256",
          "name": "amount",
          "type": "uint256"
        }
      ],
      "name": "mint",
      "outputs": [],
      "stateMutability": "nonpayable",
      "type": "function"
    },
    {
      "inputs": [
        {
          "internalType": "uint256",
          "name": "amount",
          "type": "uint256"
        }
      ],
      "name": "burn",
      "outputs": [],
      "stateMutability": "nonpayable",
      "type": "function"
    },
    {
      "inputs": [
        {
          "internalType": "address",
          "name": "recipient",
          "type": "address"
        },
        {
          "internalType": "uint256",
          "name": "amount",
          "type": "uint256"
        }
      ],
      "name": "distribute",
      "outputs": [
        {
          "internalType": "bool",
          "name": "",
          "type": "bool"
        }
      ],
      "stateMutability": "nonpayable",
      "type": "function"
    }
  ],
  "bytecode": "0x608060405269021e19e0c9bab24000006001556040518060400160405280600b81526020017f4f70656e436c65616e5570000000000000000000000000000000000000000000815250600490805190602001906200005f9291906200020e565b506040518060400160405280600381526020017f4f4355000000000000000000000000000000000000000000000000000000000081525060059080519060200190620000ad9291906200020e565b506012600660006101000a81548160ff021916908360ff1602179055506000600660016101000a81548160ff021916908315150217905550348015620000f257600080fd5b50600154600260003373ffffffffffffffffffffffffffffffffffffffff1673ffffffffffffffffffffffffffffffffffffffff1681526020019081526020016000208190555033600660026101000a81548173ffffffffffffffffffffffffffffffffffffffff021916908373ffffffffffffffffffffffffffffffffffffffff1602179055506001600080604051602001620001909062000300565b60405160208183030381529060405280519060200120815260200190815260200160002060003373ffffffffffffffffffffffffffffffffffffffff1673ffffffffffffffffffffffffffffffffffffffff16815260200190815260200160002060006101000a81548160ff02191690831515021790555062000387565b8280546200021c9062000322565b90600052602060002090601f0160209004810192826200024057600085556200028c565b82601f106200025b57805160ff19168380011785556200028c565b828001600101855582156200028c579182015b828111156200028b5782518255916020019190600101906200026e565b5b5090506200029b91906200029f565b5090565b5b80821115620002ba576000816000905550600101620002a0565b5090565b6000620002cd600a8362000317565b91507f464f554e444154494f4e000000000000000000000000000000000000000000006000830152600a82019050919050565b60006200030d82620002be565b9150819050919050565b600081905092915050565b600060028204905060018216806200033b57607f821691505b6020821081141562000352576200035162000358565b5b50919050565b7f4e487b7100000000000000000000000000000000000000000000000000000000600052602260045260246000fd5b6120b080620003976000396000f3fe608060405234801561001057600080fd5b50600436106101585760003560e01c806383525394116100c3578063c4bc5da51161007c578063c4bc5da5146103b9578063d547741f146103c3578063dd62ed3e146103df578063f8fc08b91461040f578063fb9321081461043f578063ff65f23c1461046f57610158565b806383525394146102e357806395d89b4114610301578063a0712d681461031f578063a5d7827e1461033b578063a9059cbb1461036b578063ba0ae61e1461039b57610158565b80632f2ff15d116101155780632f2ff15d14610221578063313ce5671461023d57806341fbb0501461025b57806342966c681461027957806365df2e511461029557806370a08231146102b357610158565b806306fdde031461015d578063095ea7b31461017b5780630d40b066146101ab57806312253a6c146101c957806318160ddd146101d357806323b872dd146101f1575b600080fd5b610165610479565b6040516101729190611d99565b60405180910390f35b61019560048036038101906101909190611a0f565b610507565b6040516101a29190611d63565b60405180910390f35b6101b36105f9565b6040516101c09190611d7e565b60405180910390f35b6101d1610621565b005b6101db610700565b6040516101e89190611e1b565b60405180910390f35b61020b600480360381019061020691906119c0565b610706565b6040516102189190611d63565b60405180910390f35b61023b60048036038101906102369190611a4b565b6108b7565b005b610245610a29565b6040516102529190611e36565b60405180910390f35b610263610a3c565b6040516102709190611d48565b60405180910390f35b610293600480360381019061028e9190611a87565b610a62565b005b61029d610c88565b6040516102aa9190611d7e565b60405180910390f35b6102cd60048036038101906102c8919061195b565b610cb0565b6040516102da9190611e1b565b60405180910390f35b6102eb610cc8565b6040516102f89190611d7e565b60405180910390f35b610309610cf0565b6040516103169190611d99565b60405180910390f35b61033960048036038101906103349190611a87565b610d7e565b005b6103556004803603810190610350919061195b565b610f00565b6040516103629190611d7e565b60405180910390f35b61038560048036038101906103809190611a0f565b611149565b6040516103929190611d63565b60405180910390f35b6103a3611266565b6040516103b09190611d7e565b60405180910390f35b6103c161128e565b005b6103dd60048036038101906103d89190611a4b565b61136d565b005b6103f960048036038101906103f49190611984565b6114df565b6040516104069190611e1b565b60405180910390f35b61042960048036038101906104249190611a4b565b611504565b6040516104369190611d63565b60405180910390f35b61045960048036038101906104549190611a0f565b611533565b6040516104669190611d63565b60405180910390f35b610477611828565b005b6004805461048690611f94565b80601f01602080910402602001604051908101604052809291908181526020018280546104b290611f94565b80156104ff5780601f106104d4576101008083540402835291602001916104ff565b820191906000526020600020905b8154815290600101906020018083116104e257829003601f168201915b505050505081565b600081600360003373ffffffffffffffffffffffffffffffffffffffff1673ffffffffffffffffffffffffffffffffffffffff16815260200190815260200160002060008573ffffffffffffffffffffffffffffffffffffffff1673ffffffffffffffffffffffffffffffffffffffff168152602001908152602001600020819055508273ffffffffffffffffffffffffffffffffffffffff163373ffffffffffffffffffffffffffffffffffffffff167f8c5be1e5ebec7d5bd14f71427d1e84f3dd0314c0f7b2291e5b200ac8c7c3b925846040516105e79190611e1b565b60405180910390a36001905092915050565b60405160200161060890611d1e565b6040516020818303038152906040528051906020012081565b60405160200161063090611d09565b6040516020818303038152906040528051906020012060008082815260200190815260200160002060003373ffffffffffffffffffffffffffffffffffffffff1673ffffffffffffffffffffffffffffffffffffffff16815260200190815260200160002060009054906101000a900460ff166106e2576040517f08c379a00000000000000000000000000000000000000000000000000000000081526004016106d990611ddb565b60405180910390fd5b6001600660016101000a81548160ff02191690831515021790555050565b60015481565b600081600360008673ffffffffffffffffffffffffffffffffffffffff1673ffffffffffffffffffffffffffffffffffffffff16815260200190815260200160002060003373ffffffffffffffffffffffffffffffffffffffff1673ffffffffffffffffffffffffffffffffffffffff16815260200190815260200160002060008282546107949190611ece565b9250508190555081600260008673ffffffffffffffffffffffffffffffffffffffff1673ffffffffffffffffffffffffffffffffffffffff16815260200190815260200160002060008282546107ea9190611ece565b9250508190555081600260008573ffffffffffffffffffffffffffffffffffffffff1673ffffffffffffffffffffffffffffffffffffffff16815260200190815260200160002060008282546108409190611e78565b925050819055508273ffffffffffffffffffffffffffffffffffffffff168473ffffffffffffffffffffffffffffffffffffffff167fddf252ad1be2c89b69c2b068fc378daa952ba7f163c4a11628f55a4df523b3ef846040516108a49190611e1b565b60405180910390a3600190509392505050565b6040516020016108c690611d09565b6040516020818303038152906040528051906020012060008082815260200190815260200160002060003373ffffffffffffffffffffffffffffffffffffffff1673ffffffffffffffffffffffffffffffffffffffff16815260200190815260200160002060009054906101000a900460ff16610978576040517f08c379a000000000000000000000000000000000000000000000000000000000815260040161096f90611ddb565b60405180910390fd5b600160008085815260200190815260200160002060008473ffffffffffffffffffffffffffffffffffffffff1673ffffffffffffffffffffffffffffffffffffffff16815260200190815260200160002060006101000a81548160ff0219169083151502179055508173ffffffffffffffffffffffffffffffffffffffff16837f5a06360d65acf95e98445dc834f205063424c636e65418d928cdfabc33a9539960405160405180910390a3505050565b600660009054906101000a900460ff1681565b600660029054906101000a900473ffffffffffffffffffffffffffffffffffffffff1681565b604051602001610a7190611d09565b6040516020818303038152906040528051906020012060008082815260200190815260200160002060003373ffffffffffffffffffffffffffffffffffffffff1673ffffffffffffffffffffffffffffffffffffffff16815260200190815260200160002060009054906101000a900460ff16610b23576040517f08c379a0000000000000000000000000000000000000000000000000000000008152600401610b1a90611ddb565b60405180910390fd5b8160026000600660029054906101000a900473ffffffffffffffffffffffffffffffffffffffff1673ffffffffffffffffffffffffffffffffffffffff1673ffffffffffffffffffffffffffffffffffffffff168152602001908152602001600020541015610bc7576040517f08c379a0000000000000000000000000000000000000000000000000000000008152600401610bbe90611dfb565b60405180910390fd5b81600260003373ffffffffffffffffffffffffffffffffffffffff1673ffffffffffffffffffffffffffffffffffffffff1681526020019081526020016000206000828254610c169190611ece565b925050819055508160016000828254610c2f9190611ece565b925050819055503373ffffffffffffffffffffffffffffffffffffffff167fcc16f5dbb4873280815c1ee09dbd06736cffcc184412cf7a71a0fdb75d397ca583604051610c7c9190611e1b565b60405180910390a25050565b604051602001610c9790611d09565b6040516020818303038152906040528051906020012081565b60026020528060005260406000206000915090505481565b604051602001610cd790611cf4565b6040516020818303038152906040528051906020012081565b60058054610cfd90611f94565b80601f0160208091040260200160405190810160405280929190818152602001828054610d2990611f94565b8015610d765780601f10610d4b57610100808354040283529160200191610d76565b820191906000526020600020905b815481529060010190602001808311610d5957829003601f168201915b505050505081565b604051602001610d8d90611d09565b6040516020818303038152906040528051906020012060008082815260200190815260200160002060003373ffffffffffffffffffffffffffffffffffffffff1673ffffffffffffffffffffffffffffffffffffffff16815260200190815260200160002060009054906101000a900460ff16610e3f576040517f08c379a0000000000000000000000000000000000000000000000000000000008152600401610e3690611ddb565b60405180910390fd5b81600260003373ffffffffffffffffffffffffffffffffffffffff1673ffffffffffffffffffffffffffffffffffffffff1681526020019081526020016000206000828254610e8e9190611e78565b925050819055508160016000828254610ea79190611e78565b925050819055503373ffffffffffffffffffffffffffffffffffffffff167f0f6798a560793a54c3bcfe86a93cde1e73087d944c0ea20544137d412139688583604051610ef49190611e1b565b60405180910390a25050565b6000806000604051602001610f1490611d09565b60405160208183030381529060405280519060200120815260200190815260200160002060008373ffffffffffffffffffffffffffffffffffffffff1673ffffffffffffffffffffffffffffffffffffffff16815260200190815260200160002060009054906101000a900460ff1661111a57600080604051602001610f9990611d1e565b60405160208183030381529060405280519060200120815260200190815260200160002060008373ffffffffffffffffffffffffffffffffffffffff1673ffffffffffffffffffffffffffffffffffffffff16815260200190815260200160002060009054906101000a900460ff166110ec5760008060405160200161101e90611d33565b60405160208183030381529060405280519060200120815260200190815260200160002060008373ffffffffffffffffffffffffffffffffffffffff1673ffffffffffffffffffffffffffffffffffffffff16815260200190815260200160002060009054906101000a900460ff166110be576040516020016110a090611cf4565b604051602081830303815290604052805190602001209050806110e7565b6040516020016110cd90611d33565b604051602081830303815290604052805190602001209050805b611115565b6040516020016110fb90611d1e565b604051602081830303815290604052805190602001209050805b611143565b60405160200161112990611d09565b604051602081830303815290604052805190602001209050805b50919050565b600081600260003373ffffffffffffffffffffffffffffffffffffffff1673ffffffffffffffffffffffffffffffffffffffff168152602001908152602001600020600082825461119a9190611ece565b9250508190555081600260008573ffffffffffffffffffffffffffffffffffffffff1673ffffffffffffffffffffffffffffffffffffffff16815260200190815260200160002060008282546111f09190611e78565b925050819055508273ffffffffffffffffffffffffffffffffffffffff163373ffffffffffffffffffffffffffffffffffffffff167fddf252ad1be2c89b69c2b068fc378daa952ba7f163c4a11628f55a4df523b3ef846040516112549190611e1b565b60405180910390a36001905092915050565b60405160200161127590611d33565b6040516020818303038152906040528051906020012081565b60405160200161129d90611d09565b6040516020818303038152906040528051906020012060008082815260200190815260200160002060003373ffffffffffffffffffffffffffffffffffffffff1673ffffffffffffffffffffffffffffffffffffffff16815260200190815260200160002060009054906101000a900460ff1661134f576040517f08c379a000000000000000000000000000000000000000000000000000000000815260040161134690611ddb565b60405180910390fd5b6000600660016101000a81548160ff02191690831515021790555050565b60405160200161137c90611d09565b6040516020818303038152906040528051906020012060008082815260200190815260200160002060003373ffffffffffffffffffffffffffffffffffffffff1673ffffffffffffffffffffffffffffffffffffffff16815260200190815260200160002060009054906101000a900460ff1661142e576040517f08c379a000000000000000000000000000000000000000000000000000000000815260040161142590611ddb565b60405180910390fd5b600080600085815260200190815260200160002060008473ffffffffffffffffffffffffffffffffffffffff1673ffffffffffffffffffffffffffffffffffffffff16815260200190815260200160002060006101000a81548160ff0219169083151502179055508173ffffffffffffffffffffffffffffffffffffffff16837f76e6093c136cd7faa5a6d92b2b633f3b4595abd4a529b7a13917398355fea69460405160405180910390a3505050565b6003602052816000526040600020602052806000526040600020600091509150505481565b60006020528160005260406000206020528060005260406000206000915091509054906101000a900460ff1681565b6000600660019054906101000a900460ff1615611585576040517f08c379a000000000000000000000000000000000000000000000000000000000815260040161157c90611dbb565b60405180910390fd5b60405160200161159490611d33565b6040516020818303038152906040528051906020012060008082815260200190815260200160002060003373ffffffffffffffffffffffffffffffffffffffff1673ffffffffffffffffffffffffffffffffffffffff16815260200190815260200160002060009054906101000a900460ff16611646576040517f08c379a000000000000000000000000000000000000000000000000000000000815260040161163d90611ddb565b60405180910390fd5b8260026000600660029054906101000a900473ffffffffffffffffffffffffffffffffffffffff1673ffffffffffffffffffffffffffffffffffffffff1673ffffffffffffffffffffffffffffffffffffffff1681526020019081526020016000205410156116ea576040517f08c379a00000000000000000000000000000000000000000000000000000000081526004016116e190611dfb565b60405180910390fd5b8260026000600660029054906101000a900473ffffffffffffffffffffffffffffffffffffffff1673ffffffffffffffffffffffffffffffffffffffff1673ffffffffffffffffffffffffffffffffffffffff168152602001908152602001600020600082825461175b9190611ece565b9250508190555082600260008673ffffffffffffffffffffffffffffffffffffffff1673ffffffffffffffffffffffffffffffffffffffff16815260200190815260200160002060008282546117b19190611e78565b925050819055508373ffffffffffffffffffffffffffffffffffffffff163373ffffffffffffffffffffffffffffffffffffffff167fddf252ad1be2c89b69c2b068fc378daa952ba7f163c4a11628f55a4df523b3ef856040516118159190611e1b565b60405180910390a3600191505092915050565b60016000807f42c574c7286eda4a697031a50021e14becf19cc00ff83d93a7547d3809b37f7260001b815260200190815260200160002060003373ffffffffffffffffffffffffffffffffffffffff1673ffffffffffffffffffffffffffffffffffffffff16815260200190815260200160002060006101000a81548160ff0219169083151502179055503373ffffffffffffffffffffffffffffffffffffffff167f42c574c7286eda4a697031a50021e14becf19cc00ff83d93a7547d3809b37f7260001b7f5a06360d65acf95e98445dc834f205063424c636e65418d928cdfabc33a9539960405160405180910390a3565b60008135905061192b81612035565b92915050565b6000813590506119408161204c565b92915050565b60008135905061195581612063565b92915050565b60006020828403121561196d57600080fd5b600061197b8482850161191c565b91505092915050565b6000806040838503121561199757600080fd5b60006119a58582860161191c565b92505060206119b68582860161191c565b9150509250929050565b6000806000606084860312156119d557600080fd5b60006119e38682870161191c565b93505060206119f48682870161191c565b9250506040611a0586828701611946565b9150509250925092565b60008060408385031215611a2257600080fd5b6000611a308582860161191c565b9250506020611a4185828601611946565b9150509250929050565b60008060408385031215611a5e57600080fd5b6000611a6c85828601611931565b9250506020611a7d8582860161191c565b9150509250929050565b600060208284031215611a9957600080fd5b6000611aa784828501611946565b91505092915050565b611ab981611f02565b82525050565b611ac881611f14565b82525050565b611ad781611f20565b82525050565b6000611ae882611e51565b611af28185611e5c565b9350611b02818560208601611f61565b611b0b81612024565b840191505092915050565b6000611b23600483611e6d565b91507f4e4f4e45000000000000000000000000000000000000000000000000000000006000830152600482019050919050565b6000611b63601083611e5c565b91507f436f6e74726163742073746f70706564000000000000000000000000000000006000830152602082019050919050565b6000611ba3600a83611e6d565b91507f464f554e444154494f4e000000000000000000000000000000000000000000006000830152600a82019050919050565b6000611be3600e83611e6d565b91507f544f4b454e5f52454345495645520000000000000000000000000000000000006000830152600e82019050919050565b6000611c23601183611e6d565b91507f544f4b454e5f44495354524942555445520000000000000000000000000000006000830152601182019050919050565b6000611c63601d83611e5c565b91507f4e6f7420617574686f72697a6564207769746820796f757220726f6c650000006000830152602082019050919050565b6000611ca3601c83611e5c565b91507f4e6f7420656e6f7567682062616c616e636520617661696c61626c65000000006000830152602082019050919050565b611cdf81611f4a565b82525050565b611cee81611f54565b82525050565b6000611cff82611b16565b9150819050919050565b6000611d1482611b96565b9150819050919050565b6000611d2982611bd6565b9150819050919050565b6000611d3e82611c16565b9150819050919050565b6000602082019050611d5d6000830184611ab0565b92915050565b6000602082019050611d786000830184611abf565b92915050565b6000602082019050611d936000830184611ace565b92915050565b60006020820190508181036000830152611db38184611add565b905092915050565b60006020820190508181036000830152611dd481611b56565b9050919050565b60006020820190508181036000830152611df481611c56565b9050919050565b60006020820190508181036000830152611e1481611c96565b9050919050565b6000602082019050611e306000830184611cd6565b92915050565b6000602082019050611e4b6000830184611ce5565b92915050565b600081519050919050565b600082825260208201905092915050565b600081905092915050565b6000611e8382611f4a565b9150611e8e83611f4a565b9250827fffffffffffffffffffffffffffffffffffffffffffffffffffffffffffffffff03821115611ec357611ec2611fc6565b5b828201905092915050565b6000611ed982611f4a565b9150611ee483611f4a565b925082821015611ef757611ef6611fc6565b5b828203905092915050565b6000611f0d82611f2a565b9050919050565b60008115159050919050565b6000819050919050565b600073ffffffffffffffffffffffffffffffffffffffff82169050919050565b6000819050919050565b600060ff82169050919050565b60005b83811015611f7f578082015181840152602081019050611f64565b83811115611f8e576000848401525b50505050565b60006002820490506001821680611fac57607f821691505b60208210811415611fc057611fbf611ff5565b5b50919050565b7f4e487b7100000000000000000000000000000000000000000000000000000000600052601160045260246000fd5b7f4e487b7100000000000000000000000000000000000000000000000000000000600052602260045260246000fd5b6000601f19601f8301169050919050565b61203e81611f02565b811461204957600080fd5b50565b61205581611f20565b811461206057600080fd5b50565b61206c81611f4a565b811461207757600080fd5b5056fea26469706673582212207c186aeebe21a0ceb98330ce268d722e9163eaa988fc5918229c4036662f0f2364736f6c63430008000033",
  "immutableReferences": {},
  "source": "// SPDX-License-Identifier: MIT\npragma solidity 0.8.0;\n\n// import \"./IERC20.sol\";\n// import \"../node_modules/@openzeppelin/contracts/token/ERC20/ERC20.sol\";\n// import \"https://github.com/OpenZeppelin/openzeppelin-contracts/blob/master/contracts/token/ERC20/IERC20.sol\";\nimport \"./OpenCleanUpRoles.sol\";\nimport \"../node_modules/@openzeppelin/contracts/token/ERC20/IERC20.sol\";\n\n\ncontract OpenCleanUp is IERC20, OpenCleanUpRoles  {\n    event Burn(address indexed sender, uint amount);\n    event Mint(address indexed sender, uint amount);\n\n    // token functionality\n    uint public override totalSupply = 10000 * (10**18);\n    mapping(address => uint) public override balanceOf;\n    mapping(address => mapping(address => uint)) public override allowance;\n    string public name = \"OpenCleanUp\";\n    string public symbol = \"OCU\";\n    uint8 public decimals = 18;\n\n    bool isStopped = false;\n\n    address public foundation;\n\n\n    constructor() {\n        balanceOf[msg.sender] = totalSupply;\n        foundation = msg.sender;\n        roles[FOUNDATION][msg.sender] = true;\n    }\n\n     modifier stopInEmergency {\n        require(!isStopped, \"Contract stopped\"); \n        _; \n    }\n\n    function stopContract() public onlyRole(FOUNDATION) {\n        isStopped = true;\n    }\n\n    function resumeContract() public onlyRole(FOUNDATION) {\n        isStopped = false;\n    }\n\n    function transfer(address recipient, uint amount) external override returns (bool) {\n        balanceOf[msg.sender] -= amount;\n        balanceOf[recipient] += amount;\n        emit Transfer(msg.sender, recipient, amount);\n        return true;\n    }\n\n    function approve(address spender, uint amount) external override returns (bool) {\n        allowance[msg.sender][spender] = amount;\n        emit Approval(msg.sender, spender, amount);\n        return true;\n    }\n\n    function transferFrom(\n        address sender,\n        address recipient,\n        uint amount\n    ) external override returns (bool) {\n        allowance[sender][msg.sender] -= amount;\n\n        balanceOf[sender] -= amount;\n        balanceOf[recipient] += amount;\n        emit Transfer(sender, recipient, amount);\n        return true;\n    }\n\n    function mint(uint amount) external onlyRole(FOUNDATION) {\n        balanceOf[msg.sender] += amount;\n        totalSupply += amount;\n        emit Mint(msg.sender, amount);\n    }\n\n    function burn(uint amount) external onlyRole(FOUNDATION) {\n        require(balanceOf[foundation] >= amount,\"Not enough balance available\");\n        balanceOf[msg.sender] -= amount;\n        totalSupply -= amount;\n        emit Burn(msg.sender, amount);\n    }\n\n    function distribute(address recipient, uint amount) external stopInEmergency onlyRole(TOKEN_DISTRIBUTER) returns (bool) {\n        require(balanceOf[foundation] >= amount,\"Not enough balance available\");\n        balanceOf[foundation] -= amount;\n        balanceOf[recipient] += amount;\n        emit Transfer(msg.sender, recipient, amount);\n        return true;\n    }\n    \n}\n\n",
  "sourcePath": "/home/martijn/consenSys/blockchain-developer-bootcamp-final-project/contracts/OpenCleanUp.sol",
  "compiler": {
    "name": "solc",
    "version": "0.8.0+commit.c7dfd78e.Emscripten.clang"
  },
  "schemaVersion": "3.4.3",
  "updatedAt": "2021-12-29T14:14:55.630Z",
  "networkType": "ethereum",
  "devdoc": {
    "kind": "dev",
    "methods": {
      "approve(address,uint256)": {
        "details": "Sets `amount` as the allowance of `spender` over the caller's tokens. Returns a boolean value indicating whether the operation succeeded. IMPORTANT: Beware that changing an allowance with this method brings the risk that someone may use both the old and the new allowance by unfortunate transaction ordering. One possible solution to mitigate this race condition is to first reduce the spender's allowance to 0 and set the desired value afterwards: https://github.com/ethereum/EIPs/issues/20#issuecomment-263524729 Emits an {Approval} event."
      },
      "transfer(address,uint256)": {
        "details": "Moves `amount` tokens from the caller's account to `recipient`. Returns a boolean value indicating whether the operation succeeded. Emits a {Transfer} event."
      },
      "transferFrom(address,address,uint256)": {
        "details": "Moves `amount` tokens from `sender` to `recipient` using the allowance mechanism. `amount` is then deducted from the caller's allowance. Returns a boolean value indicating whether the operation succeeded. Emits a {Transfer} event."
      }
    },
    "stateVariables": {
      "allowance": {
        "details": "Returns the remaining number of tokens that `spender` will be allowed to spend on behalf of `owner` through {transferFrom}. This is zero by default. This value changes when {approve} or {transferFrom} are called."
      },
      "balanceOf": {
        "details": "Returns the amount of tokens owned by `account`."
      },
      "totalSupply": {
        "details": "Returns the amount of tokens in existence."
      }
    },
    "version": 1
  },
  "userdoc": {
    "kind": "user",
    "methods": {},
    "version": 1
  }
}