{
  "contractName": "OpenCleanUp",
  "abi": [
    {
      "inputs": [],
      "stateMutability": "nonpayable",
      "type": "constructor"
    },
    {
      "anonymous": false,
      "inputs": [
        {
          "indexed": true,
          "internalType": "address",
          "name": "owner",
          "type": "address"
        },
        {
          "indexed": true,
          "internalType": "address",
          "name": "spender",
          "type": "address"
        },
        {
          "indexed": false,
          "internalType": "uint256",
          "name": "value",
          "type": "uint256"
        }
      ],
      "name": "Approval",
      "type": "event"
    },
    {
      "anonymous": false,
      "inputs": [
        {
          "indexed": true,
          "internalType": "bytes32",
          "name": "role",
          "type": "bytes32"
        },
        {
          "indexed": true,
          "internalType": "address",
          "name": "account",
          "type": "address"
        }
      ],
      "name": "GrantRole",
      "type": "event"
    },
    {
      "anonymous": false,
      "inputs": [
        {
          "indexed": true,
          "internalType": "bytes32",
          "name": "role",
          "type": "bytes32"
        },
        {
          "indexed": true,
          "internalType": "address",
          "name": "account",
          "type": "address"
        }
      ],
      "name": "RevokeRole",
      "type": "event"
    },
    {
      "anonymous": false,
      "inputs": [
        {
          "indexed": true,
          "internalType": "address",
          "name": "from",
          "type": "address"
        },
        {
          "indexed": true,
          "internalType": "address",
          "name": "to",
          "type": "address"
        },
        {
          "indexed": false,
          "internalType": "uint256",
          "name": "value",
          "type": "uint256"
        }
      ],
      "name": "Transfer",
      "type": "event"
    },
    {
      "inputs": [],
      "name": "FOUNDATION",
      "outputs": [
        {
          "internalType": "bytes32",
          "name": "",
          "type": "bytes32"
        }
      ],
      "stateMutability": "view",
      "type": "function",
      "constant": true
    },
    {
      "inputs": [],
      "name": "TOKEN_DISTRIBUTER",
      "outputs": [
        {
          "internalType": "bytes32",
          "name": "",
          "type": "bytes32"
        }
      ],
      "stateMutability": "view",
      "type": "function",
      "constant": true
    },
    {
      "inputs": [],
      "name": "TOKEN_RECEIVER",
      "outputs": [
        {
          "internalType": "bytes32",
          "name": "",
          "type": "bytes32"
        }
      ],
      "stateMutability": "view",
      "type": "function",
      "constant": true
    },
    {
      "inputs": [
        {
          "internalType": "address",
          "name": "",
          "type": "address"
        },
        {
          "internalType": "address",
          "name": "",
          "type": "address"
        }
      ],
      "name": "allowance",
      "outputs": [
        {
          "internalType": "uint256",
          "name": "",
          "type": "uint256"
        }
      ],
      "stateMutability": "view",
      "type": "function",
      "constant": true
    },
    {
      "inputs": [
        {
          "internalType": "address",
          "name": "",
          "type": "address"
        }
      ],
      "name": "balanceOf",
      "outputs": [
        {
          "internalType": "uint256",
          "name": "",
          "type": "uint256"
        }
      ],
      "stateMutability": "view",
      "type": "function",
      "constant": true
    },
    {
      "inputs": [],
      "name": "decimals",
      "outputs": [
        {
          "internalType": "uint8",
          "name": "",
          "type": "uint8"
        }
      ],
      "stateMutability": "view",
      "type": "function",
      "constant": true
    },
    {
      "inputs": [],
      "name": "foundation_wallet",
      "outputs": [
        {
          "internalType": "address",
          "name": "",
          "type": "address"
        }
      ],
      "stateMutability": "view",
      "type": "function",
      "constant": true
    },
    {
      "inputs": [],
      "name": "name",
      "outputs": [
        {
          "internalType": "string",
          "name": "",
          "type": "string"
        }
      ],
      "stateMutability": "view",
      "type": "function",
      "constant": true
    },
    {
      "inputs": [
        {
          "internalType": "bytes32",
          "name": "",
          "type": "bytes32"
        },
        {
          "internalType": "address",
          "name": "",
          "type": "address"
        }
      ],
      "name": "roles",
      "outputs": [
        {
          "internalType": "bool",
          "name": "",
          "type": "bool"
        }
      ],
      "stateMutability": "view",
      "type": "function",
      "constant": true
    },
    {
      "inputs": [],
      "name": "symbol",
      "outputs": [
        {
          "internalType": "string",
          "name": "",
          "type": "string"
        }
      ],
      "stateMutability": "view",
      "type": "function",
      "constant": true
    },
    {
      "inputs": [],
      "name": "totalSupply",
      "outputs": [
        {
          "internalType": "uint256",
          "name": "",
          "type": "uint256"
        }
      ],
      "stateMutability": "view",
      "type": "function",
      "constant": true
    },
    {
      "inputs": [
        {
          "internalType": "bytes32",
          "name": "_role",
          "type": "bytes32"
        },
        {
          "internalType": "address",
          "name": "_account",
          "type": "address"
        }
      ],
      "name": "grantRole",
      "outputs": [],
      "stateMutability": "nonpayable",
      "type": "function"
    },
    {
      "inputs": [
        {
          "internalType": "bytes32",
          "name": "_role",
          "type": "bytes32"
        },
        {
          "internalType": "address",
          "name": "_account",
          "type": "address"
        }
      ],
      "name": "revokeRole",
      "outputs": [],
      "stateMutability": "nonpayable",
      "type": "function"
    },
    {
      "inputs": [
        {
          "internalType": "address",
          "name": "recipient",
          "type": "address"
        },
        {
          "internalType": "uint256",
          "name": "amount",
          "type": "uint256"
        }
      ],
      "name": "transfer",
      "outputs": [
        {
          "internalType": "bool",
          "name": "",
          "type": "bool"
        }
      ],
      "stateMutability": "nonpayable",
      "type": "function"
    },
    {
      "inputs": [
        {
          "internalType": "address",
          "name": "spender",
          "type": "address"
        },
        {
          "internalType": "uint256",
          "name": "amount",
          "type": "uint256"
        }
      ],
      "name": "approve",
      "outputs": [
        {
          "internalType": "bool",
          "name": "",
          "type": "bool"
        }
      ],
      "stateMutability": "nonpayable",
      "type": "function"
    },
    {
      "inputs": [
        {
          "internalType": "address",
          "name": "sender",
          "type": "address"
        },
        {
          "internalType": "address",
          "name": "recipient",
          "type": "address"
        },
        {
          "internalType": "uint256",
          "name": "amount",
          "type": "uint256"
        }
      ],
      "name": "transferFrom",
      "outputs": [
        {
          "internalType": "bool",
          "name": "",
          "type": "bool"
        }
      ],
      "stateMutability": "nonpayable",
      "type": "function"
    },
    {
      "inputs": [
        {
          "internalType": "uint256",
          "name": "amount",
          "type": "uint256"
        }
      ],
      "name": "mint",
      "outputs": [],
      "stateMutability": "nonpayable",
      "type": "function"
    },
    {
      "inputs": [
        {
          "internalType": "uint256",
          "name": "amount",
          "type": "uint256"
        }
      ],
      "name": "burn",
      "outputs": [],
      "stateMutability": "nonpayable",
      "type": "function"
    },
    {
      "inputs": [
        {
          "internalType": "address",
          "name": "recipient",
          "type": "address"
        },
        {
          "internalType": "uint256",
          "name": "amount",
          "type": "uint256"
        }
      ],
      "name": "distribute",
      "outputs": [
        {
          "internalType": "bool",
          "name": "",
          "type": "bool"
        }
      ],
      "stateMutability": "nonpayable",
      "type": "function"
    }
  ],
  "bytecode": "0x60806040526127106000556040518060400160405280600b81526020017f4f70656e436c65616e55700000000000000000000000000000000000000000008152506003908051906020019062000057929190620001ec565b506040518060400160405280600381526020017f4f4355000000000000000000000000000000000000000000000000000000000081525060049080519060200190620000a5929190620001ec565b506012600560006101000a81548160ff021916908360ff160217905550348015620000cf57600080fd5b50600054600160003373ffffffffffffffffffffffffffffffffffffffff1673ffffffffffffffffffffffffffffffffffffffff1681526020019081526020016000208190555033600560016101000a81548173ffffffffffffffffffffffffffffffffffffffff021916908373ffffffffffffffffffffffffffffffffffffffff1602179055506001600660006040516020016200016e90620002de565b60405160208183030381529060405280519060200120815260200190815260200160002060003373ffffffffffffffffffffffffffffffffffffffff1673ffffffffffffffffffffffffffffffffffffffff16815260200190815260200160002060006101000a81548160ff02191690831515021790555062000365565b828054620001fa9062000300565b90600052602060002090601f0160209004810192826200021e57600085556200026a565b82601f106200023957805160ff19168380011785556200026a565b828001600101855582156200026a579182015b82811115620002695782518255916020019190600101906200024c565b5b5090506200027991906200027d565b5090565b5b80821115620002985760008160009055506001016200027e565b5090565b6000620002ab600a83620002f5565b91507f464f554e444154494f4e000000000000000000000000000000000000000000006000830152600a82019050919050565b6000620002eb826200029c565b9150819050919050565b600081905092915050565b600060028204905060018216806200031957607f821691505b6020821081141562000330576200032f62000336565b5b50919050565b7f4e487b7100000000000000000000000000000000000000000000000000000000600052602260045260246000fd5b61187280620003756000396000f3fe608060405234801561001057600080fd5b50600436106101215760003560e01c806370a08231116100ad578063ba0ae61e11610071578063ba0ae61e1461030c578063d547741f1461032a578063dd62ed3e14610346578063f8fc08b914610376578063fb932108146103a657610121565b806370a08231146102545780639099d8161461028457806395d89b41146102a2578063a0712d68146102c0578063a9059cbb146102dc57610121565b806323b872dd116100f457806323b872dd146101b05780632f2ff15d146101e0578063313ce567146101fc57806342966c681461021a57806365df2e511461023657610121565b806306fdde0314610126578063095ea7b3146101445780630d40b0661461017457806318160ddd14610192575b600080fd5b61012e6103d6565b60405161013b919061159b565b60405180910390f35b61015e600480360381019061015991906112e6565b610464565b60405161016b9190611565565b60405180910390f35b61017c610556565b6040516101899190611580565b60405180910390f35b61019a61057e565b6040516101a791906115dd565b60405180910390f35b6101ca60048036038101906101c59190611297565b610584565b6040516101d79190611565565b60405180910390f35b6101fa60048036038101906101f59190611322565b610735565b005b6102046108a9565b60405161021191906115f8565b60405180910390f35b610234600480360381019061022f919061135e565b6108bc565b005b61023e610a56565b60405161024b9190611580565b60405180910390f35b61026e60048036038101906102699190611232565b610a7e565b60405161027b91906115dd565b60405180910390f35b61028c610a96565b604051610299919061154a565b60405180910390f35b6102aa610abc565b6040516102b7919061159b565b60405180910390f35b6102da60048036038101906102d5919061135e565b610b4a565b005b6102f660048036038101906102f191906112e6565b610ce4565b6040516103039190611565565b60405180910390f35b610314610e01565b6040516103219190611580565b60405180910390f35b610344600480360381019061033f9190611322565b610e29565b005b610360600480360381019061035b919061125b565b610f9d565b60405161036d91906115dd565b60405180910390f35b610390600480360381019061038b9190611322565b610fc2565b60405161039d9190611565565b60405180910390f35b6103c060048036038101906103bb91906112e6565b610ff1565b6040516103cd9190611565565b60405180910390f35b600380546103e390611756565b80601f016020809104026020016040519081016040528092919081815260200182805461040f90611756565b801561045c5780601f106104315761010080835404028352916020019161045c565b820191906000526020600020905b81548152906001019060200180831161043f57829003601f168201915b505050505081565b600081600260003373ffffffffffffffffffffffffffffffffffffffff1673ffffffffffffffffffffffffffffffffffffffff16815260200190815260200160002060008573ffffffffffffffffffffffffffffffffffffffff1673ffffffffffffffffffffffffffffffffffffffff168152602001908152602001600020819055508273ffffffffffffffffffffffffffffffffffffffff163373ffffffffffffffffffffffffffffffffffffffff167f8c5be1e5ebec7d5bd14f71427d1e84f3dd0314c0f7b2291e5b200ac8c7c3b9258460405161054491906115dd565b60405180910390a36001905092915050565b60405160200161056590611520565b6040516020818303038152906040528051906020012081565b60005481565b600081600260008673ffffffffffffffffffffffffffffffffffffffff1673ffffffffffffffffffffffffffffffffffffffff16815260200190815260200160002060003373ffffffffffffffffffffffffffffffffffffffff1673ffffffffffffffffffffffffffffffffffffffff16815260200190815260200160002060008282546106129190611690565b9250508190555081600160008673ffffffffffffffffffffffffffffffffffffffff1673ffffffffffffffffffffffffffffffffffffffff16815260200190815260200160002060008282546106689190611690565b9250508190555081600160008573ffffffffffffffffffffffffffffffffffffffff1673ffffffffffffffffffffffffffffffffffffffff16815260200190815260200160002060008282546106be919061163a565b925050819055508273ffffffffffffffffffffffffffffffffffffffff168473ffffffffffffffffffffffffffffffffffffffff167fddf252ad1be2c89b69c2b068fc378daa952ba7f163c4a11628f55a4df523b3ef8460405161072291906115dd565b60405180910390a3600190509392505050565b6040516020016107449061150b565b604051602081830303815290604052805190602001206006600082815260200190815260200160002060003373ffffffffffffffffffffffffffffffffffffffff1673ffffffffffffffffffffffffffffffffffffffff16815260200190815260200160002060009054906101000a900460ff166107f7576040517f08c379a00000000000000000000000000000000000000000000000000000000081526004016107ee906115bd565b60405180910390fd5b60016006600085815260200190815260200160002060008473ffffffffffffffffffffffffffffffffffffffff1673ffffffffffffffffffffffffffffffffffffffff16815260200190815260200160002060006101000a81548160ff0219169083151502179055508173ffffffffffffffffffffffffffffffffffffffff16837f5a06360d65acf95e98445dc834f205063424c636e65418d928cdfabc33a9539960405160405180910390a3505050565b600560009054906101000a900460ff1681565b6040516020016108cb9061150b565b604051602081830303815290604052805190602001206006600082815260200190815260200160002060003373ffffffffffffffffffffffffffffffffffffffff1673ffffffffffffffffffffffffffffffffffffffff16815260200190815260200160002060009054906101000a900460ff1661097e576040517f08c379a0000000000000000000000000000000000000000000000000000000008152600401610975906115bd565b60405180910390fd5b81600160003373ffffffffffffffffffffffffffffffffffffffff1673ffffffffffffffffffffffffffffffffffffffff16815260200190815260200160002060008282546109cd9190611690565b92505081905550816000808282546109e59190611690565b92505081905550600073ffffffffffffffffffffffffffffffffffffffff163373ffffffffffffffffffffffffffffffffffffffff167fddf252ad1be2c89b69c2b068fc378daa952ba7f163c4a11628f55a4df523b3ef84604051610a4a91906115dd565b60405180910390a35050565b604051602001610a659061150b565b6040516020818303038152906040528051906020012081565b60016020528060005260406000206000915090505481565b600560019054906101000a900473ffffffffffffffffffffffffffffffffffffffff1681565b60048054610ac990611756565b80601f0160208091040260200160405190810160405280929190818152602001828054610af590611756565b8015610b425780601f10610b1757610100808354040283529160200191610b42565b820191906000526020600020905b815481529060010190602001808311610b2557829003601f168201915b505050505081565b604051602001610b599061150b565b604051602081830303815290604052805190602001206006600082815260200190815260200160002060003373ffffffffffffffffffffffffffffffffffffffff1673ffffffffffffffffffffffffffffffffffffffff16815260200190815260200160002060009054906101000a900460ff16610c0c576040517f08c379a0000000000000000000000000000000000000000000000000000000008152600401610c03906115bd565b60405180910390fd5b81600160003373ffffffffffffffffffffffffffffffffffffffff1673ffffffffffffffffffffffffffffffffffffffff1681526020019081526020016000206000828254610c5b919061163a565b9250508190555081600080828254610c73919061163a565b925050819055503373ffffffffffffffffffffffffffffffffffffffff16600073ffffffffffffffffffffffffffffffffffffffff167fddf252ad1be2c89b69c2b068fc378daa952ba7f163c4a11628f55a4df523b3ef84604051610cd891906115dd565b60405180910390a35050565b600081600160003373ffffffffffffffffffffffffffffffffffffffff1673ffffffffffffffffffffffffffffffffffffffff1681526020019081526020016000206000828254610d359190611690565b9250508190555081600160008573ffffffffffffffffffffffffffffffffffffffff1673ffffffffffffffffffffffffffffffffffffffff1681526020019081526020016000206000828254610d8b919061163a565b925050819055508273ffffffffffffffffffffffffffffffffffffffff163373ffffffffffffffffffffffffffffffffffffffff167fddf252ad1be2c89b69c2b068fc378daa952ba7f163c4a11628f55a4df523b3ef84604051610def91906115dd565b60405180910390a36001905092915050565b604051602001610e1090611535565b6040516020818303038152906040528051906020012081565b604051602001610e389061150b565b604051602081830303815290604052805190602001206006600082815260200190815260200160002060003373ffffffffffffffffffffffffffffffffffffffff1673ffffffffffffffffffffffffffffffffffffffff16815260200190815260200160002060009054906101000a900460ff16610eeb576040517f08c379a0000000000000000000000000000000000000000000000000000000008152600401610ee2906115bd565b60405180910390fd5b60006006600085815260200190815260200160002060008473ffffffffffffffffffffffffffffffffffffffff1673ffffffffffffffffffffffffffffffffffffffff16815260200190815260200160002060006101000a81548160ff0219169083151502179055508173ffffffffffffffffffffffffffffffffffffffff16837f76e6093c136cd7faa5a6d92b2b633f3b4595abd4a529b7a13917398355fea69460405160405180910390a3505050565b6002602052816000526040600020602052806000526040600020600091509150505481565b60066020528160005260406000206020528060005260406000206000915091509054906101000a900460ff1681565b600060405160200161100290611535565b604051602081830303815290604052805190602001206006600082815260200190815260200160002060003373ffffffffffffffffffffffffffffffffffffffff1673ffffffffffffffffffffffffffffffffffffffff16815260200190815260200160002060009054906101000a900460ff166110b5576040517f08c379a00000000000000000000000000000000000000000000000000000000081526004016110ac906115bd565b60405180910390fd5b8260016000600560019054906101000a900473ffffffffffffffffffffffffffffffffffffffff1673ffffffffffffffffffffffffffffffffffffffff1673ffffffffffffffffffffffffffffffffffffffff16815260200190815260200160002060008282546111269190611690565b9250508190555082600160008673ffffffffffffffffffffffffffffffffffffffff1673ffffffffffffffffffffffffffffffffffffffff168152602001908152602001600020600082825461117c919061163a565b925050819055508373ffffffffffffffffffffffffffffffffffffffff163373ffffffffffffffffffffffffffffffffffffffff167fddf252ad1be2c89b69c2b068fc378daa952ba7f163c4a11628f55a4df523b3ef856040516111e091906115dd565b60405180910390a3600191505092915050565b600081359050611202816117f7565b92915050565b6000813590506112178161180e565b92915050565b60008135905061122c81611825565b92915050565b60006020828403121561124457600080fd5b6000611252848285016111f3565b91505092915050565b6000806040838503121561126e57600080fd5b600061127c858286016111f3565b925050602061128d858286016111f3565b9150509250929050565b6000806000606084860312156112ac57600080fd5b60006112ba868287016111f3565b93505060206112cb868287016111f3565b92505060406112dc8682870161121d565b9150509250925092565b600080604083850312156112f957600080fd5b6000611307858286016111f3565b92505060206113188582860161121d565b9150509250929050565b6000806040838503121561133557600080fd5b600061134385828601611208565b9250506020611354858286016111f3565b9150509250929050565b60006020828403121561137057600080fd5b600061137e8482850161121d565b91505092915050565b611390816116c4565b82525050565b61139f816116d6565b82525050565b6113ae816116e2565b82525050565b60006113bf82611613565b6113c9818561161e565b93506113d9818560208601611723565b6113e2816117e6565b840191505092915050565b60006113fa600a8361162f565b91507f464f554e444154494f4e000000000000000000000000000000000000000000006000830152600a82019050919050565b600061143a600e8361162f565b91507f544f4b454e5f52454345495645520000000000000000000000000000000000006000830152600e82019050919050565b600061147a600e8361161e565b91507f6e6f7420617574686f72697a65640000000000000000000000000000000000006000830152602082019050919050565b60006114ba60118361162f565b91507f544f4b454e5f44495354524942555445520000000000000000000000000000006000830152601182019050919050565b6114f68161170c565b82525050565b61150581611716565b82525050565b6000611516826113ed565b9150819050919050565b600061152b8261142d565b9150819050919050565b6000611540826114ad565b9150819050919050565b600060208201905061155f6000830184611387565b92915050565b600060208201905061157a6000830184611396565b92915050565b600060208201905061159560008301846113a5565b92915050565b600060208201905081810360008301526115b581846113b4565b905092915050565b600060208201905081810360008301526115d68161146d565b9050919050565b60006020820190506115f260008301846114ed565b92915050565b600060208201905061160d60008301846114fc565b92915050565b600081519050919050565b600082825260208201905092915050565b600081905092915050565b60006116458261170c565b91506116508361170c565b9250827fffffffffffffffffffffffffffffffffffffffffffffffffffffffffffffffff0382111561168557611684611788565b5b828201905092915050565b600061169b8261170c565b91506116a68361170c565b9250828210156116b9576116b8611788565b5b828203905092915050565b60006116cf826116ec565b9050919050565b60008115159050919050565b6000819050919050565b600073ffffffffffffffffffffffffffffffffffffffff82169050919050565b6000819050919050565b600060ff82169050919050565b60005b83811015611741578082015181840152602081019050611726565b83811115611750576000848401525b50505050565b6000600282049050600182168061176e57607f821691505b60208210811415611782576117816117b7565b5b50919050565b7f4e487b7100000000000000000000000000000000000000000000000000000000600052601160045260246000fd5b7f4e487b7100000000000000000000000000000000000000000000000000000000600052602260045260246000fd5b6000601f19601f8301169050919050565b611800816116c4565b811461180b57600080fd5b50565b611817816116e2565b811461182257600080fd5b50565b61182e8161170c565b811461183957600080fd5b5056fea264697066735822122007ba96e76367454d995b40e5a10c713ce3fca476571ac6eacfb9b53fd3c3a04864736f6c63430008000033",
  "immutableReferences": {},
  "source": "// SPDX-License-Identifier: MIT\npragma solidity ^0.8.0;\n\n// import \"./IERC20.sol\";\n// import \"https://github.com/OpenZeppelin/openzeppelin-contracts/blob/master/contracts/token/ERC20/IERC20.sol\";\nimport \"@openzeppelin/contracts/token/ERC20/ERC20.sol\";\n\ncontract OpenCleanUp is IERC20 {\n    event GrantRole(bytes32 indexed role, address indexed account);\n    event RevokeRole(bytes32 indexed role, address indexed account);\n\n\n    // token functions\n    uint public override totalSupply = 10000;\n    mapping(address => uint) public override balanceOf;\n    mapping(address => mapping(address => uint)) public override allowance;\n    string public name = \"OpenCleanUp\";\n    string public symbol = \"OCU\";\n    uint8 public decimals = 18;\n\n    address public foundation_wallet;\n\n\n    // Ecosystem roles \n    mapping(bytes32 => mapping(address => bool)) public roles;\n    bytes32 public constant FOUNDATION = keccak256(abi.encodePacked(\"FOUNDATION\"));\n    bytes32 public constant TOKEN_RECEIVER = keccak256(abi.encodePacked(\"TOKEN_RECEIVER\"));\n    bytes32 public constant TOKEN_DISTRIBUTER = keccak256(abi.encodePacked(\"TOKEN_DISTRIBUTER\"));\n\n\n    constructor() {\n        balanceOf[msg.sender] = totalSupply;\n        foundation_wallet = msg.sender;\n        roles[FOUNDATION][msg.sender] = true;\n    }\n\n    modifier onlyRole(bytes32 _role) {\n        require(roles[_role][msg.sender], \"not authorized\");\n        _;\n    }\n\n    function grantRole(bytes32 _role, address _account) external onlyRole(FOUNDATION) {\n           roles[_role][_account] = true;\n        emit GrantRole(_role, _account);\n    }\n\n    function revokeRole(bytes32 _role, address _account) external onlyRole(FOUNDATION) {\n        roles[_role][_account] = false;\n        emit RevokeRole(_role, _account);\n    }\n\n    function transfer(address recipient, uint amount) external override returns (bool) {\n        balanceOf[msg.sender] -= amount;\n        balanceOf[recipient] += amount;\n        emit Transfer(msg.sender, recipient, amount);\n        return true;\n    }\n\n    function approve(address spender, uint amount) external override returns (bool) {\n        allowance[msg.sender][spender] = amount;\n        emit Approval(msg.sender, spender, amount);\n        return true;\n    }\n\n    function transferFrom(\n        address sender,\n        address recipient,\n        uint amount\n    ) external override returns (bool) {\n        allowance[sender][msg.sender] -= amount;\n\n        balanceOf[sender] -= amount;\n        balanceOf[recipient] += amount;\n        emit Transfer(sender, recipient, amount);\n        return true;\n    }\n\n    function mint(uint amount) external onlyRole(FOUNDATION) {\n        balanceOf[msg.sender] += amount;\n        totalSupply += amount;\n        emit Transfer(address(0), msg.sender, amount);\n    }\n\n    function burn(uint amount) external onlyRole(FOUNDATION) {\n        balanceOf[msg.sender] -= amount;\n        totalSupply -= amount;\n        emit Transfer(msg.sender, address(0), amount);\n    }\n\n\n    function distribute(address recipient, uint amount) external onlyRole(TOKEN_DISTRIBUTER) returns (bool) {\n        balanceOf[foundation_wallet] -= amount;\n        balanceOf[recipient] += amount;\n        emit Transfer(msg.sender, recipient, amount);\n        return true;\n    }\n}\n\n",
  "sourcePath": "/home/martijn/consenSys/blockchain-developer-bootcamp-final-project/contracts/OpenCleanUp.sol",
  "compiler": {
    "name": "solc",
    "version": "0.8.0+commit.c7dfd78e.Emscripten.clang"
  },
  "schemaVersion": "3.4.3",
  "updatedAt": "2021-12-01T14:07:33.990Z",
  "networkType": "ethereum",
  "devdoc": {
    "kind": "dev",
    "methods": {
      "approve(address,uint256)": {
        "details": "Sets `amount` as the allowance of `spender` over the caller's tokens. Returns a boolean value indicating whether the operation succeeded. IMPORTANT: Beware that changing an allowance with this method brings the risk that someone may use both the old and the new allowance by unfortunate transaction ordering. One possible solution to mitigate this race condition is to first reduce the spender's allowance to 0 and set the desired value afterwards: https://github.com/ethereum/EIPs/issues/20#issuecomment-263524729 Emits an {Approval} event."
      },
      "transfer(address,uint256)": {
        "details": "Moves `amount` tokens from the caller's account to `recipient`. Returns a boolean value indicating whether the operation succeeded. Emits a {Transfer} event."
      },
      "transferFrom(address,address,uint256)": {
        "details": "Moves `amount` tokens from `sender` to `recipient` using the allowance mechanism. `amount` is then deducted from the caller's allowance. Returns a boolean value indicating whether the operation succeeded. Emits a {Transfer} event."
      }
    },
    "stateVariables": {
      "allowance": {
        "details": "Returns the remaining number of tokens that `spender` will be allowed to spend on behalf of `owner` through {transferFrom}. This is zero by default. This value changes when {approve} or {transferFrom} are called."
      },
      "balanceOf": {
        "details": "Returns the amount of tokens owned by `account`."
      },
      "totalSupply": {
        "details": "Returns the amount of tokens in existence."
      }
    },
    "version": 1
  },
  "userdoc": {
    "kind": "user",
    "methods": {},
    "version": 1
  }
}