{
  "contractName": "OpenCleanUp",
  "abi": [
    {
      "inputs": [],
      "stateMutability": "nonpayable",
      "type": "constructor"
    },
    {
      "anonymous": false,
      "inputs": [
        {
          "indexed": true,
          "internalType": "address",
          "name": "owner",
          "type": "address"
        },
        {
          "indexed": true,
          "internalType": "address",
          "name": "spender",
          "type": "address"
        },
        {
          "indexed": false,
          "internalType": "uint256",
          "name": "value",
          "type": "uint256"
        }
      ],
      "name": "Approval",
      "type": "event"
    },
    {
      "anonymous": false,
      "inputs": [
        {
          "indexed": true,
          "internalType": "address",
          "name": "sender",
          "type": "address"
        },
        {
          "indexed": false,
          "internalType": "uint256",
          "name": "amount",
          "type": "uint256"
        }
      ],
      "name": "Burn",
      "type": "event"
    },
    {
      "anonymous": false,
      "inputs": [
        {
          "indexed": true,
          "internalType": "bytes32",
          "name": "role",
          "type": "bytes32"
        },
        {
          "indexed": true,
          "internalType": "address",
          "name": "account",
          "type": "address"
        }
      ],
      "name": "GrantRole",
      "type": "event"
    },
    {
      "anonymous": false,
      "inputs": [
        {
          "indexed": false,
          "internalType": "string",
          "name": "func",
          "type": "string"
        },
        {
          "indexed": false,
          "internalType": "address",
          "name": "sender",
          "type": "address"
        },
        {
          "indexed": false,
          "internalType": "uint256",
          "name": "value",
          "type": "uint256"
        },
        {
          "indexed": false,
          "internalType": "bytes",
          "name": "data",
          "type": "bytes"
        }
      ],
      "name": "Log",
      "type": "event"
    },
    {
      "anonymous": false,
      "inputs": [
        {
          "indexed": true,
          "internalType": "address",
          "name": "sender",
          "type": "address"
        },
        {
          "indexed": false,
          "internalType": "uint256",
          "name": "amount",
          "type": "uint256"
        }
      ],
      "name": "Mint",
      "type": "event"
    },
    {
      "anonymous": false,
      "inputs": [
        {
          "indexed": true,
          "internalType": "bytes32",
          "name": "role",
          "type": "bytes32"
        },
        {
          "indexed": true,
          "internalType": "address",
          "name": "account",
          "type": "address"
        }
      ],
      "name": "RevokeRole",
      "type": "event"
    },
    {
      "anonymous": false,
      "inputs": [
        {
          "indexed": true,
          "internalType": "address",
          "name": "from",
          "type": "address"
        },
        {
          "indexed": true,
          "internalType": "address",
          "name": "to",
          "type": "address"
        },
        {
          "indexed": false,
          "internalType": "uint256",
          "name": "value",
          "type": "uint256"
        }
      ],
      "name": "Transfer",
      "type": "event"
    },
    {
      "stateMutability": "payable",
      "type": "fallback",
      "payable": true
    },
    {
      "inputs": [],
      "name": "FOUNDATION",
      "outputs": [
        {
          "internalType": "bytes32",
          "name": "",
          "type": "bytes32"
        }
      ],
      "stateMutability": "view",
      "type": "function",
      "constant": true
    },
    {
      "inputs": [],
      "name": "NONE",
      "outputs": [
        {
          "internalType": "bytes32",
          "name": "",
          "type": "bytes32"
        }
      ],
      "stateMutability": "view",
      "type": "function",
      "constant": true
    },
    {
      "inputs": [],
      "name": "TOKEN_DISTRIBUTER",
      "outputs": [
        {
          "internalType": "bytes32",
          "name": "",
          "type": "bytes32"
        }
      ],
      "stateMutability": "view",
      "type": "function",
      "constant": true
    },
    {
      "inputs": [],
      "name": "TOKEN_RECEIVER",
      "outputs": [
        {
          "internalType": "bytes32",
          "name": "",
          "type": "bytes32"
        }
      ],
      "stateMutability": "view",
      "type": "function",
      "constant": true
    },
    {
      "inputs": [
        {
          "internalType": "address",
          "name": "",
          "type": "address"
        },
        {
          "internalType": "address",
          "name": "",
          "type": "address"
        }
      ],
      "name": "allowance",
      "outputs": [
        {
          "internalType": "uint256",
          "name": "",
          "type": "uint256"
        }
      ],
      "stateMutability": "view",
      "type": "function",
      "constant": true
    },
    {
      "inputs": [
        {
          "internalType": "address",
          "name": "",
          "type": "address"
        }
      ],
      "name": "balanceOf",
      "outputs": [
        {
          "internalType": "uint256",
          "name": "",
          "type": "uint256"
        }
      ],
      "stateMutability": "view",
      "type": "function",
      "constant": true
    },
    {
      "inputs": [],
      "name": "decimals",
      "outputs": [
        {
          "internalType": "uint8",
          "name": "",
          "type": "uint8"
        }
      ],
      "stateMutability": "view",
      "type": "function",
      "constant": true
    },
    {
      "inputs": [],
      "name": "foundation",
      "outputs": [
        {
          "internalType": "address",
          "name": "",
          "type": "address"
        }
      ],
      "stateMutability": "view",
      "type": "function",
      "constant": true
    },
    {
      "inputs": [
        {
          "internalType": "bytes32",
          "name": "_role",
          "type": "bytes32"
        },
        {
          "internalType": "address",
          "name": "_account",
          "type": "address"
        }
      ],
      "name": "grantRole",
      "outputs": [],
      "stateMutability": "nonpayable",
      "type": "function"
    },
    {
      "inputs": [],
      "name": "isStopped",
      "outputs": [
        {
          "internalType": "bool",
          "name": "",
          "type": "bool"
        }
      ],
      "stateMutability": "view",
      "type": "function",
      "constant": true
    },
    {
      "inputs": [],
      "name": "name",
      "outputs": [
        {
          "internalType": "string",
          "name": "",
          "type": "string"
        }
      ],
      "stateMutability": "view",
      "type": "function",
      "constant": true
    },
    {
      "inputs": [],
      "name": "previewGrantRole",
      "outputs": [],
      "stateMutability": "nonpayable",
      "type": "function"
    },
    {
      "inputs": [
        {
          "internalType": "bytes32",
          "name": "_role",
          "type": "bytes32"
        },
        {
          "internalType": "address",
          "name": "_account",
          "type": "address"
        }
      ],
      "name": "revokeRole",
      "outputs": [],
      "stateMutability": "nonpayable",
      "type": "function"
    },
    {
      "inputs": [
        {
          "internalType": "address",
          "name": "_address",
          "type": "address"
        }
      ],
      "name": "roleOf",
      "outputs": [
        {
          "internalType": "bytes32",
          "name": "role",
          "type": "bytes32"
        }
      ],
      "stateMutability": "view",
      "type": "function",
      "constant": true
    },
    {
      "inputs": [
        {
          "internalType": "bytes32",
          "name": "",
          "type": "bytes32"
        },
        {
          "internalType": "address",
          "name": "",
          "type": "address"
        }
      ],
      "name": "roles",
      "outputs": [
        {
          "internalType": "bool",
          "name": "",
          "type": "bool"
        }
      ],
      "stateMutability": "view",
      "type": "function",
      "constant": true
    },
    {
      "inputs": [],
      "name": "symbol",
      "outputs": [
        {
          "internalType": "string",
          "name": "",
          "type": "string"
        }
      ],
      "stateMutability": "view",
      "type": "function",
      "constant": true
    },
    {
      "inputs": [],
      "name": "totalSupply",
      "outputs": [
        {
          "internalType": "uint256",
          "name": "",
          "type": "uint256"
        }
      ],
      "stateMutability": "view",
      "type": "function",
      "constant": true
    },
    {
      "stateMutability": "payable",
      "type": "receive",
      "payable": true
    },
    {
      "inputs": [
        {
          "internalType": "address payable",
          "name": "_to",
          "type": "address"
        },
        {
          "internalType": "uint256",
          "name": "_amount",
          "type": "uint256"
        }
      ],
      "name": "withdraw",
      "outputs": [],
      "stateMutability": "nonpayable",
      "type": "function"
    },
    {
      "inputs": [],
      "name": "stopContract",
      "outputs": [],
      "stateMutability": "nonpayable",
      "type": "function"
    },
    {
      "inputs": [],
      "name": "resumeContract",
      "outputs": [],
      "stateMutability": "nonpayable",
      "type": "function"
    },
    {
      "inputs": [
        {
          "internalType": "address",
          "name": "recipient",
          "type": "address"
        },
        {
          "internalType": "uint256",
          "name": "amount",
          "type": "uint256"
        }
      ],
      "name": "transfer",
      "outputs": [
        {
          "internalType": "bool",
          "name": "",
          "type": "bool"
        }
      ],
      "stateMutability": "nonpayable",
      "type": "function"
    },
    {
      "inputs": [
        {
          "internalType": "address",
          "name": "spender",
          "type": "address"
        },
        {
          "internalType": "uint256",
          "name": "amount",
          "type": "uint256"
        }
      ],
      "name": "approve",
      "outputs": [
        {
          "internalType": "bool",
          "name": "",
          "type": "bool"
        }
      ],
      "stateMutability": "nonpayable",
      "type": "function"
    },
    {
      "inputs": [
        {
          "internalType": "address",
          "name": "sender",
          "type": "address"
        },
        {
          "internalType": "address",
          "name": "recipient",
          "type": "address"
        },
        {
          "internalType": "uint256",
          "name": "amount",
          "type": "uint256"
        }
      ],
      "name": "transferFrom",
      "outputs": [
        {
          "internalType": "bool",
          "name": "",
          "type": "bool"
        }
      ],
      "stateMutability": "nonpayable",
      "type": "function"
    },
    {
      "inputs": [
        {
          "internalType": "uint256",
          "name": "amount",
          "type": "uint256"
        }
      ],
      "name": "mint",
      "outputs": [],
      "stateMutability": "nonpayable",
      "type": "function"
    },
    {
      "inputs": [
        {
          "internalType": "uint256",
          "name": "amount",
          "type": "uint256"
        }
      ],
      "name": "burn",
      "outputs": [],
      "stateMutability": "nonpayable",
      "type": "function"
    },
    {
      "inputs": [
        {
          "internalType": "address",
          "name": "recipient",
          "type": "address"
        },
        {
          "internalType": "uint256",
          "name": "amount",
          "type": "uint256"
        }
      ],
      "name": "distribute",
      "outputs": [
        {
          "internalType": "bool",
          "name": "",
          "type": "bool"
        }
      ],
      "stateMutability": "nonpayable",
      "type": "function"
    }
  ],
  "bytecode": "0x60a060405269021e19e0c9bab24000006003556000600460006101000a81548160ff02191690831515021790555034801561003957600080fd5b50600354600160003373ffffffffffffffffffffffffffffffffffffffff1673ffffffffffffffffffffffffffffffffffffffff168152602001908152602001600020819055503373ffffffffffffffffffffffffffffffffffffffff1660808173ffffffffffffffffffffffffffffffffffffffff1660601b8152505060016000807f42c574c7286eda4a697031a50021e14becf19cc00ff83d93a7547d3809b37f7260001b815260200190815260200160002060003373ffffffffffffffffffffffffffffffffffffffff1673ffffffffffffffffffffffffffffffffffffffff16815260200190815260200160002060006101000a81548160ff02191690831515021790555060805160601c61247461017560003960008181610c1f01528181610d080152818161193801526119da01526124746000f3fe6080604052600436106101855760003560e01c806383525394116100d1578063c4bc5da51161008a578063f3fef3a311610064578063f3fef3a3146105f3578063f8fc08b91461061c578063fb93210814610659578063ff65f23c14610696576101c5565b8063c4bc5da514610576578063d547741f1461058d578063dd62ed3e146105b6576101c5565b8063835253941461045257806395d89b411461047d578063a0712d68146104a8578063a5d7827e146104d1578063a9059cbb1461050e578063ba0ae61e1461054b576101c5565b80632f2ff15d1161013e57806341fbb0501161011857806341fbb0501461039657806342966c68146103c157806365df2e51146103ea57806370a0823114610415576101c5565b80632f2ff15d14610317578063313ce567146103405780633f683b6a1461036b576101c5565b806306fdde0314610205578063095ea7b3146102305780630d40b0661461026d57806312253a6c1461029857806318160ddd146102af57806323b872dd146102da576101c5565b366101c5577ff7f75251dee7d7fc22deac3247729ebe7c86541f35930bf10c2a4207479a3b6c33346040516101bb9291906121a8565b60405180910390a1005b7ff7f75251dee7d7fc22deac3247729ebe7c86541f35930bf10c2a4207479a3b6c33346000366040516101fb9493929190612155565b60405180910390a1005b34801561021157600080fd5b5061021a6106ad565b60405161022791906120b3565b60405180910390f35b34801561023c57600080fd5b5061025760048036038101906102529190611d47565b6106e6565b604051610264919061207d565b60405180910390f35b34801561027957600080fd5b506102826107d8565b60405161028f9190612098565b60405180910390f35b3480156102a457600080fd5b506102ad6107ff565b005b3480156102bb57600080fd5b506102c46108dd565b6040516102d191906121f7565b60405180910390f35b3480156102e657600080fd5b5061030160048036038101906102fc9190611cf8565b6108e3565b60405161030e919061207d565b60405180910390f35b34801561032357600080fd5b5061033e60048036038101906103399190611d83565b610a94565b005b34801561034c57600080fd5b50610355610c05565b6040516103629190612212565b60405180910390f35b34801561037757600080fd5b50610380610c0a565b60405161038d919061207d565b60405180910390f35b3480156103a257600080fd5b506103ab610c1d565b6040516103b89190612062565b60405180910390f35b3480156103cd57600080fd5b506103e860048036038101906103e39190611dbf565b610c41565b005b3480156103f657600080fd5b506103ff610e64565b60405161040c9190612098565b60405180910390f35b34801561042157600080fd5b5061043c60048036038101906104379190611c57565b610e8b565b60405161044991906121f7565b60405180910390f35b34801561045e57600080fd5b50610467610ea3565b6040516104749190612098565b60405180910390f35b34801561048957600080fd5b50610492610eca565b60405161049f91906120b3565b60405180910390f35b3480156104b457600080fd5b506104cf60048036038101906104ca9190611dbf565b610f03565b005b3480156104dd57600080fd5b506104f860048036038101906104f39190611c57565b611084565b6040516105059190612098565b60405180910390f35b34801561051a57600080fd5b5061053560048036038101906105309190611d47565b6112c6565b604051610542919061207d565b60405180910390f35b34801561055757600080fd5b506105606113e3565b60405161056d9190612098565b60405180910390f35b34801561058257600080fd5b5061058b61140a565b005b34801561059957600080fd5b506105b460048036038101906105af9190611d83565b6114e8565b005b3480156105c257600080fd5b506105dd60048036038101906105d89190611cbc565b611659565b6040516105ea91906121f7565b60405180910390f35b3480156105ff57600080fd5b5061061a60048036038101906106159190611c80565b61167e565b005b34801561062857600080fd5b50610643600480360381019061063e9190611d83565b6117f0565b604051610650919061207d565b60405180910390f35b34801561066557600080fd5b50610680600480360381019061067b9190611d47565b61181f565b60405161068d919061207d565b60405180910390f35b3480156106a257600080fd5b506106ab611b0f565b005b6040518060400160405280600b81526020017f4f70656e436c65616e557000000000000000000000000000000000000000000081525081565b600081600260003373ffffffffffffffffffffffffffffffffffffffff1673ffffffffffffffffffffffffffffffffffffffff16815260200190815260200160002060008573ffffffffffffffffffffffffffffffffffffffff1673ffffffffffffffffffffffffffffffffffffffff168152602001908152602001600020819055508273ffffffffffffffffffffffffffffffffffffffff163373ffffffffffffffffffffffffffffffffffffffff167f8c5be1e5ebec7d5bd14f71427d1e84f3dd0314c0f7b2291e5b200ac8c7c3b925846040516107c691906121f7565b60405180910390a36001905092915050565b7f5256df45158a1b783d5d1b7eae366e43e8adc1ddfe02d99d60edbfba2f122ee160001b81565b7f42c574c7286eda4a697031a50021e14becf19cc00ff83d93a7547d3809b37f7260001b60008082815260200190815260200160002060003373ffffffffffffffffffffffffffffffffffffffff1673ffffffffffffffffffffffffffffffffffffffff16815260200190815260200160002060009054906101000a900460ff166108bf576040517f08c379a00000000000000000000000000000000000000000000000000000000081526004016108b6906120d5565b60405180910390fd5b6001600460006101000a81548160ff02191690831515021790555050565b60035481565b600081600260008673ffffffffffffffffffffffffffffffffffffffff1673ffffffffffffffffffffffffffffffffffffffff16815260200190815260200160002060003373ffffffffffffffffffffffffffffffffffffffff1673ffffffffffffffffffffffffffffffffffffffff168152602001908152602001600020600082825461097191906122bb565b9250508190555081600160008673ffffffffffffffffffffffffffffffffffffffff1673ffffffffffffffffffffffffffffffffffffffff16815260200190815260200160002060008282546109c791906122bb565b9250508190555081600160008573ffffffffffffffffffffffffffffffffffffffff1673ffffffffffffffffffffffffffffffffffffffff1681526020019081526020016000206000828254610a1d9190612265565b925050819055508273ffffffffffffffffffffffffffffffffffffffff168473ffffffffffffffffffffffffffffffffffffffff167fddf252ad1be2c89b69c2b068fc378daa952ba7f163c4a11628f55a4df523b3ef84604051610a8191906121f7565b60405180910390a3600190509392505050565b7f42c574c7286eda4a697031a50021e14becf19cc00ff83d93a7547d3809b37f7260001b60008082815260200190815260200160002060003373ffffffffffffffffffffffffffffffffffffffff1673ffffffffffffffffffffffffffffffffffffffff16815260200190815260200160002060009054906101000a900460ff16610b54576040517f08c379a0000000000000000000000000000000000000000000000000000000008152600401610b4b906120d5565b60405180910390fd5b600160008085815260200190815260200160002060008473ffffffffffffffffffffffffffffffffffffffff1673ffffffffffffffffffffffffffffffffffffffff16815260200190815260200160002060006101000a81548160ff0219169083151502179055508173ffffffffffffffffffffffffffffffffffffffff16837f5a06360d65acf95e98445dc834f205063424c636e65418d928cdfabc33a9539960405160405180910390a3505050565b601281565b600460009054906101000a900460ff1681565b7f000000000000000000000000000000000000000000000000000000000000000081565b7f42c574c7286eda4a697031a50021e14becf19cc00ff83d93a7547d3809b37f7260001b60008082815260200190815260200160002060003373ffffffffffffffffffffffffffffffffffffffff1673ffffffffffffffffffffffffffffffffffffffff16815260200190815260200160002060009054906101000a900460ff16610d01576040517f08c379a0000000000000000000000000000000000000000000000000000000008152600401610cf8906120d5565b60405180910390fd5b81600160007f000000000000000000000000000000000000000000000000000000000000000073ffffffffffffffffffffffffffffffffffffffff1673ffffffffffffffffffffffffffffffffffffffff168152602001908152602001600020541015610da3576040517f08c379a0000000000000000000000000000000000000000000000000000000008152600401610d9a90612115565b60405180910390fd5b81600160003373ffffffffffffffffffffffffffffffffffffffff1673ffffffffffffffffffffffffffffffffffffffff1681526020019081526020016000206000828254610df291906122bb565b925050819055508160036000828254610e0b91906122bb565b925050819055503373ffffffffffffffffffffffffffffffffffffffff167fcc16f5dbb4873280815c1ee09dbd06736cffcc184412cf7a71a0fdb75d397ca583604051610e5891906121f7565b60405180910390a25050565b7f42c574c7286eda4a697031a50021e14becf19cc00ff83d93a7547d3809b37f7260001b81565b60016020528060005260406000206000915090505481565b7f1b489cce9d784ec074d286492a1ccc9efab255c8a4e6b74d2406b5b7674c6e7460001b81565b6040518060400160405280600381526020017f4f4355000000000000000000000000000000000000000000000000000000000081525081565b7f42c574c7286eda4a697031a50021e14becf19cc00ff83d93a7547d3809b37f7260001b60008082815260200190815260200160002060003373ffffffffffffffffffffffffffffffffffffffff1673ffffffffffffffffffffffffffffffffffffffff16815260200190815260200160002060009054906101000a900460ff16610fc3576040517f08c379a0000000000000000000000000000000000000000000000000000000008152600401610fba906120d5565b60405180910390fd5b81600160003373ffffffffffffffffffffffffffffffffffffffff1673ffffffffffffffffffffffffffffffffffffffff16815260200190815260200160002060008282546110129190612265565b92505081905550816003600082825461102b9190612265565b925050819055503373ffffffffffffffffffffffffffffffffffffffff167f0f6798a560793a54c3bcfe86a93cde1e73087d944c0ea20544137d41213968858360405161107891906121f7565b60405180910390a25050565b60008060007f42c574c7286eda4a697031a50021e14becf19cc00ff83d93a7547d3809b37f7260001b815260200190815260200160002060008373ffffffffffffffffffffffffffffffffffffffff1673ffffffffffffffffffffffffffffffffffffffff16815260200190815260200160002060009054906101000a900460ff16611298576000807f5256df45158a1b783d5d1b7eae366e43e8adc1ddfe02d99d60edbfba2f122ee160001b815260200190815260200160002060008373ffffffffffffffffffffffffffffffffffffffff1673ffffffffffffffffffffffffffffffffffffffff16815260200190815260200160002060009054906101000a900460ff1661126b576000807fa8be2c61382bed6254f75e306150d63d18d487cc8453e448fff554cbc742e96260001b815260200190815260200160002060008373ffffffffffffffffffffffffffffffffffffffff1673ffffffffffffffffffffffffffffffffffffffff16815260200190815260200160002060009054906101000a900460ff1661123e577f1b489cce9d784ec074d286492a1ccc9efab255c8a4e6b74d2406b5b7674c6e7460001b905080611266565b7fa8be2c61382bed6254f75e306150d63d18d487cc8453e448fff554cbc742e96260001b9050805b611293565b7f5256df45158a1b783d5d1b7eae366e43e8adc1ddfe02d99d60edbfba2f122ee160001b9050805b6112c0565b7f42c574c7286eda4a697031a50021e14becf19cc00ff83d93a7547d3809b37f7260001b9050805b50919050565b600081600160003373ffffffffffffffffffffffffffffffffffffffff1673ffffffffffffffffffffffffffffffffffffffff168152602001908152602001600020600082825461131791906122bb565b9250508190555081600160008573ffffffffffffffffffffffffffffffffffffffff1673ffffffffffffffffffffffffffffffffffffffff168152602001908152602001600020600082825461136d9190612265565b925050819055508273ffffffffffffffffffffffffffffffffffffffff163373ffffffffffffffffffffffffffffffffffffffff167fddf252ad1be2c89b69c2b068fc378daa952ba7f163c4a11628f55a4df523b3ef846040516113d191906121f7565b60405180910390a36001905092915050565b7fa8be2c61382bed6254f75e306150d63d18d487cc8453e448fff554cbc742e96260001b81565b7f42c574c7286eda4a697031a50021e14becf19cc00ff83d93a7547d3809b37f7260001b60008082815260200190815260200160002060003373ffffffffffffffffffffffffffffffffffffffff1673ffffffffffffffffffffffffffffffffffffffff16815260200190815260200160002060009054906101000a900460ff166114ca576040517f08c379a00000000000000000000000000000000000000000000000000000000081526004016114c1906120d5565b60405180910390fd5b6000600460006101000a81548160ff02191690831515021790555050565b7f42c574c7286eda4a697031a50021e14becf19cc00ff83d93a7547d3809b37f7260001b60008082815260200190815260200160002060003373ffffffffffffffffffffffffffffffffffffffff1673ffffffffffffffffffffffffffffffffffffffff16815260200190815260200160002060009054906101000a900460ff166115a8576040517f08c379a000000000000000000000000000000000000000000000000000000000815260040161159f906120d5565b60405180910390fd5b600080600085815260200190815260200160002060008473ffffffffffffffffffffffffffffffffffffffff1673ffffffffffffffffffffffffffffffffffffffff16815260200190815260200160002060006101000a81548160ff0219169083151502179055508173ffffffffffffffffffffffffffffffffffffffff16837f76e6093c136cd7faa5a6d92b2b633f3b4595abd4a529b7a13917398355fea69460405160405180910390a3505050565b6002602052816000526040600020602052806000526040600020600091509150505481565b7f42c574c7286eda4a697031a50021e14becf19cc00ff83d93a7547d3809b37f7260001b60008082815260200190815260200160002060003373ffffffffffffffffffffffffffffffffffffffff1673ffffffffffffffffffffffffffffffffffffffff16815260200190815260200160002060009054906101000a900460ff1661173e576040517f08c379a0000000000000000000000000000000000000000000000000000000008152600401611735906120d5565b60405180910390fd5b60008373ffffffffffffffffffffffffffffffffffffffff16836040516117649061204d565b60006040518083038185875af1925050503d80600081146117a1576040519150601f19603f3d011682016040523d82523d6000602084013e6117a6565b606091505b50509050806117ea576040517f08c379a00000000000000000000000000000000000000000000000000000000081526004016117e190612135565b60405180910390fd5b50505050565b60006020528160005260406000206020528060005260406000206000915091509054906101000a900460ff1681565b6000600460009054906101000a900460ff1615611871576040517f08c379a0000000000000000000000000000000000000000000000000000000008152600401611868906120f5565b60405180910390fd5b7fa8be2c61382bed6254f75e306150d63d18d487cc8453e448fff554cbc742e96260001b60008082815260200190815260200160002060003373ffffffffffffffffffffffffffffffffffffffff1673ffffffffffffffffffffffffffffffffffffffff16815260200190815260200160002060009054906101000a900460ff16611931576040517f08c379a0000000000000000000000000000000000000000000000000000000008152600401611928906120d5565b60405180910390fd5b82600160007f000000000000000000000000000000000000000000000000000000000000000073ffffffffffffffffffffffffffffffffffffffff1673ffffffffffffffffffffffffffffffffffffffff1681526020019081526020016000205410156119d3576040517f08c379a00000000000000000000000000000000000000000000000000000000081526004016119ca90612115565b60405180910390fd5b82600160007f000000000000000000000000000000000000000000000000000000000000000073ffffffffffffffffffffffffffffffffffffffff1673ffffffffffffffffffffffffffffffffffffffff1681526020019081526020016000206000828254611a4291906122bb565b9250508190555082600160008673ffffffffffffffffffffffffffffffffffffffff1673ffffffffffffffffffffffffffffffffffffffff1681526020019081526020016000206000828254611a989190612265565b925050819055508373ffffffffffffffffffffffffffffffffffffffff163373ffffffffffffffffffffffffffffffffffffffff167fddf252ad1be2c89b69c2b068fc378daa952ba7f163c4a11628f55a4df523b3ef85604051611afc91906121f7565b60405180910390a3600191505092915050565b60016000807f42c574c7286eda4a697031a50021e14becf19cc00ff83d93a7547d3809b37f7260001b815260200190815260200160002060003373ffffffffffffffffffffffffffffffffffffffff1673ffffffffffffffffffffffffffffffffffffffff16815260200190815260200160002060006101000a81548160ff0219169083151502179055503373ffffffffffffffffffffffffffffffffffffffff167f42c574c7286eda4a697031a50021e14becf19cc00ff83d93a7547d3809b37f7260001b7f5a06360d65acf95e98445dc834f205063424c636e65418d928cdfabc33a9539960405160405180910390a3565b600081359050611c12816123e2565b92915050565b600081359050611c27816123f9565b92915050565b600081359050611c3c81612410565b92915050565b600081359050611c5181612427565b92915050565b600060208284031215611c6957600080fd5b6000611c7784828501611c03565b91505092915050565b60008060408385031215611c9357600080fd5b6000611ca185828601611c18565b9250506020611cb285828601611c42565b9150509250929050565b60008060408385031215611ccf57600080fd5b6000611cdd85828601611c03565b9250506020611cee85828601611c03565b9150509250929050565b600080600060608486031215611d0d57600080fd5b6000611d1b86828701611c03565b9350506020611d2c86828701611c03565b9250506040611d3d86828701611c42565b9150509250925092565b60008060408385031215611d5a57600080fd5b6000611d6885828601611c03565b9250506020611d7985828601611c42565b9150509250929050565b60008060408385031215611d9657600080fd5b6000611da485828601611c2d565b9250506020611db585828601611c03565b9150509250929050565b600060208284031215611dd157600080fd5b6000611ddf84828501611c42565b91505092915050565b611df1816122ef565b82525050565b611e0081612313565b82525050565b611e0f8161231f565b82525050565b6000611e218385612238565b9350611e2e838584612360565b611e37836123d1565b840190509392505050565b6000611e4d8261222d565b611e578185612254565b9350611e6781856020860161236f565b611e70816123d1565b840191505092915050565b6000611e88601883612254565b91507f4e6f7420617574686f72697a6564207769746820726f6c6500000000000000006000830152602082019050919050565b6000611ec8601083612254565b91507f436f6e74726163742073746f70706564000000000000000000000000000000006000830152602082019050919050565b6000611f08601283612254565b91507f4e6f7420656e6f7567682062616c616e636500000000000000000000000000006000830152602082019050919050565b6000611f48601283612254565b91507f4661696c656420746f2073656e642045544800000000000000000000000000006000830152602082019050919050565b6000611f88600883612254565b91507f66616c6c6261636b0000000000000000000000000000000000000000000000006000830152602082019050919050565b6000611fc8600083612238565b9150600082019050919050565b6000611fe2600083612249565b9150600082019050919050565b6000611ffc600783612254565b91507f72656365697665000000000000000000000000000000000000000000000000006000830152602082019050919050565b61203881612349565b82525050565b61204781612353565b82525050565b600061205882611fd5565b9150819050919050565b60006020820190506120776000830184611de8565b92915050565b60006020820190506120926000830184611df7565b92915050565b60006020820190506120ad6000830184611e06565b92915050565b600060208201905081810360008301526120cd8184611e42565b905092915050565b600060208201905081810360008301526120ee81611e7b565b9050919050565b6000602082019050818103600083015261210e81611ebb565b9050919050565b6000602082019050818103600083015261212e81611efb565b9050919050565b6000602082019050818103600083015261214e81611f3b565b9050919050565b6000608082019050818103600083015261216e81611f7b565b905061217d6020830187611de8565b61218a604083018661202f565b818103606083015261219d818486611e15565b905095945050505050565b600060808201905081810360008301526121c181611fef565b90506121d06020830185611de8565b6121dd604083018461202f565b81810360608301526121ee81611fbb565b90509392505050565b600060208201905061220c600083018461202f565b92915050565b6000602082019050612227600083018461203e565b92915050565b600081519050919050565b600082825260208201905092915050565b600081905092915050565b600082825260208201905092915050565b600061227082612349565b915061227b83612349565b9250827fffffffffffffffffffffffffffffffffffffffffffffffffffffffffffffffff038211156122b0576122af6123a2565b5b828201905092915050565b60006122c682612349565b91506122d183612349565b9250828210156122e4576122e36123a2565b5b828203905092915050565b60006122fa82612329565b9050919050565b600061230c82612329565b9050919050565b60008115159050919050565b6000819050919050565b600073ffffffffffffffffffffffffffffffffffffffff82169050919050565b6000819050919050565b600060ff82169050919050565b82818337600083830152505050565b60005b8381101561238d578082015181840152602081019050612372565b8381111561239c576000848401525b50505050565b7f4e487b7100000000000000000000000000000000000000000000000000000000600052601160045260246000fd5b6000601f19601f8301169050919050565b6123eb816122ef565b81146123f657600080fd5b50565b61240281612301565b811461240d57600080fd5b50565b6124198161231f565b811461242457600080fd5b50565b61243081612349565b811461243b57600080fd5b5056fea26469706673582212205cc25297fa337aebb607419ff11f441445ea00a8961500c4dffd26d6720f7ed664736f6c63430008000033",
  "immutableReferences": {
    "64": [
      {
        "length": 32,
        "start": 3103
      },
      {
        "length": 32,
        "start": 3336
      },
      {
        "length": 32,
        "start": 6456
      },
      {
        "length": 32,
        "start": 6618
      }
    ]
  },
  "source": "// SPDX-License-Identifier: MIT\npragma solidity 0.8.0;\n\n// import \"./IERC20.sol\";\n// import \"../node_modules/@openzeppelin/contracts/token/ERC20/ERC20.sol\";\n// import \"https://github.com/OpenZeppelin/openzeppelin-contracts/blob/master/contracts/token/ERC20/IERC20.sol\";\nimport \"./OpenCleanUpRoles.sol\";\nimport \"../node_modules/@openzeppelin/contracts/token/ERC20/IERC20.sol\";\n\n\ncontract OpenCleanUp is IERC20, OpenCleanUpRoles  {\n    event Burn(address indexed sender, uint amount);\n    event Mint(address indexed sender, uint amount);\n    event Log(string func, address sender, uint value, bytes data);\n\n    mapping(address => uint) public override balanceOf;\n    mapping(address => mapping(address => uint)) public override allowance;\n    string constant public name = \"OpenCleanUp\";\n    string constant public symbol = \"OCU\";\n    uint public override totalSupply = 10000 * (10**18);\n    uint8 constant public decimals = 18;\n\n    bool public isStopped = false;\n\n    address immutable public foundation;\n\n\n    constructor() {\n        balanceOf[msg.sender] = totalSupply;\n        foundation = msg.sender;\n        roles[FOUNDATION][msg.sender] = true;\n    }\n\n    modifier stopInEmergency {\n        require(!isStopped, \"Contract stopped\"); \n        _; \n    }\n\n    fallback() external payable {\n        emit Log(\"fallback\", msg.sender, msg.value, msg.data);\n    }\n    receive() external payable {\n        emit Log(\"receive\", msg.sender, msg.value, \"\");\n    }\n\n    function withdraw(address payable _to, uint _amount) external onlyRole(FOUNDATION) {\n        (bool sent, ) = _to.call{value: _amount}(\"\");\n        require(sent, \"Failed to send ETH\");\n    }\n\n    function stopContract() external onlyRole(FOUNDATION) {\n        isStopped = true;\n    }\n\n    function resumeContract() external onlyRole(FOUNDATION) {\n        isStopped = false;\n    }\n\n    function transfer(address recipient, uint amount) external override returns (bool) {\n        balanceOf[msg.sender] -= amount;\n        balanceOf[recipient] += amount;\n        emit Transfer(msg.sender, recipient, amount);\n        return true;\n    }\n\n    function approve(address spender, uint amount) external override returns (bool) {\n        allowance[msg.sender][spender] = amount;\n        emit Approval(msg.sender, spender, amount);\n        return true;\n    }\n\n    function transferFrom(\n        address sender,\n        address recipient,\n        uint amount\n    ) external override returns (bool) {\n        allowance[sender][msg.sender] -= amount;\n\n        balanceOf[sender] -= amount;\n        balanceOf[recipient] += amount;\n        emit Transfer(sender, recipient, amount);\n        return true;\n    }\n\n    function mint(uint amount) external onlyRole(FOUNDATION) {\n        balanceOf[msg.sender] += amount;\n        totalSupply += amount;\n        emit Mint(msg.sender, amount);\n    }\n\n    function burn(uint amount) external onlyRole(FOUNDATION) {\n        require(balanceOf[foundation] >= amount,\"Not enough balance\");\n        balanceOf[msg.sender] -= amount;\n        totalSupply -= amount;\n        emit Burn(msg.sender, amount);\n    }\n\n    function distribute(address recipient, uint amount) external stopInEmergency onlyRole(TOKEN_DISTRIBUTER) returns (bool) {\n        require(balanceOf[foundation] >= amount,\"Not enough balance\");\n        balanceOf[foundation] -= amount;\n        balanceOf[recipient] += amount;\n        emit Transfer(msg.sender, recipient, amount);\n        return true;\n    }\n}\n\n",
  "sourcePath": "/home/martijn/consenSys/blockchain-developer-bootcamp-final-project/contracts/OpenCleanUp.sol",
  "compiler": {
    "name": "solc",
    "version": "0.8.0+commit.c7dfd78e.Emscripten.clang"
  },
  "schemaVersion": "3.4.3",
  "updatedAt": "2021-12-29T22:55:12.143Z",
  "networkType": "ethereum",
  "devdoc": {
    "kind": "dev",
    "methods": {
      "approve(address,uint256)": {
        "details": "Sets `amount` as the allowance of `spender` over the caller's tokens. Returns a boolean value indicating whether the operation succeeded. IMPORTANT: Beware that changing an allowance with this method brings the risk that someone may use both the old and the new allowance by unfortunate transaction ordering. One possible solution to mitigate this race condition is to first reduce the spender's allowance to 0 and set the desired value afterwards: https://github.com/ethereum/EIPs/issues/20#issuecomment-263524729 Emits an {Approval} event."
      },
      "transfer(address,uint256)": {
        "details": "Moves `amount` tokens from the caller's account to `recipient`. Returns a boolean value indicating whether the operation succeeded. Emits a {Transfer} event."
      },
      "transferFrom(address,address,uint256)": {
        "details": "Moves `amount` tokens from `sender` to `recipient` using the allowance mechanism. `amount` is then deducted from the caller's allowance. Returns a boolean value indicating whether the operation succeeded. Emits a {Transfer} event."
      }
    },
    "stateVariables": {
      "allowance": {
        "details": "Returns the remaining number of tokens that `spender` will be allowed to spend on behalf of `owner` through {transferFrom}. This is zero by default. This value changes when {approve} or {transferFrom} are called."
      },
      "balanceOf": {
        "details": "Returns the amount of tokens owned by `account`."
      },
      "totalSupply": {
        "details": "Returns the amount of tokens in existence."
      }
    },
    "version": 1
  },
  "userdoc": {
    "kind": "user",
    "methods": {},
    "version": 1
  }
}