{
  "contractName": "OpenCleanUpRoles",
  "abi": [
    {
      "anonymous": false,
      "inputs": [
        {
          "indexed": true,
          "internalType": "bytes32",
          "name": "role",
          "type": "bytes32"
        },
        {
          "indexed": true,
          "internalType": "address",
          "name": "account",
          "type": "address"
        }
      ],
      "name": "GrantRole",
      "type": "event"
    },
    {
      "anonymous": false,
      "inputs": [
        {
          "indexed": true,
          "internalType": "bytes32",
          "name": "role",
          "type": "bytes32"
        },
        {
          "indexed": true,
          "internalType": "address",
          "name": "account",
          "type": "address"
        }
      ],
      "name": "RevokeRole",
      "type": "event"
    },
    {
      "inputs": [],
      "name": "FOUNDATION",
      "outputs": [
        {
          "internalType": "bytes32",
          "name": "",
          "type": "bytes32"
        }
      ],
      "stateMutability": "view",
      "type": "function",
      "constant": true
    },
    {
      "inputs": [],
      "name": "NONE",
      "outputs": [
        {
          "internalType": "bytes32",
          "name": "",
          "type": "bytes32"
        }
      ],
      "stateMutability": "view",
      "type": "function",
      "constant": true
    },
    {
      "inputs": [],
      "name": "TOKEN_DISTRIBUTER",
      "outputs": [
        {
          "internalType": "bytes32",
          "name": "",
          "type": "bytes32"
        }
      ],
      "stateMutability": "view",
      "type": "function",
      "constant": true
    },
    {
      "inputs": [],
      "name": "TOKEN_RECEIVER",
      "outputs": [
        {
          "internalType": "bytes32",
          "name": "",
          "type": "bytes32"
        }
      ],
      "stateMutability": "view",
      "type": "function",
      "constant": true
    },
    {
      "inputs": [
        {
          "internalType": "bytes32",
          "name": "",
          "type": "bytes32"
        },
        {
          "internalType": "address",
          "name": "",
          "type": "address"
        }
      ],
      "name": "roles",
      "outputs": [
        {
          "internalType": "bool",
          "name": "",
          "type": "bool"
        }
      ],
      "stateMutability": "view",
      "type": "function",
      "constant": true
    },
    {
      "inputs": [
        {
          "internalType": "bytes32",
          "name": "_role",
          "type": "bytes32"
        },
        {
          "internalType": "address",
          "name": "_account",
          "type": "address"
        }
      ],
      "name": "grantRole",
      "outputs": [],
      "stateMutability": "nonpayable",
      "type": "function"
    },
    {
      "inputs": [
        {
          "internalType": "bytes32",
          "name": "_role",
          "type": "bytes32"
        },
        {
          "internalType": "address",
          "name": "_account",
          "type": "address"
        }
      ],
      "name": "revokeRole",
      "outputs": [],
      "stateMutability": "nonpayable",
      "type": "function"
    },
    {
      "inputs": [
        {
          "internalType": "address",
          "name": "_address",
          "type": "address"
        }
      ],
      "name": "roleOf",
      "outputs": [
        {
          "internalType": "bytes32",
          "name": "role",
          "type": "bytes32"
        }
      ],
      "stateMutability": "view",
      "type": "function",
      "constant": true
    }
  ],
  "bytecode": "0x608060405234801561001057600080fd5b50610af8806100206000396000f3fe608060405234801561001057600080fd5b50600436106100885760003560e01c8063a5d7827e1161005b578063a5d7827e14610103578063ba0ae61e14610133578063d547741f14610151578063f8fc08b91461016d57610088565b80630d40b0661461008d5780632f2ff15d146100ab57806365df2e51146100c757806383525394146100e5575b600080fd5b61009561019d565b6040516100a291906109f5565b60405180910390f35b6100c560048036038101906100c091906107ec565b6101c5565b005b6100cf610337565b6040516100dc91906109f5565b60405180910390f35b6100ed61035f565b6040516100fa91906109f5565b60405180910390f35b61011d600480360381019061011891906107c3565b610387565b60405161012a91906109f5565b60405180910390f35b61013b6105d0565b60405161014891906109f5565b60405180910390f35b61016b600480360381019061016691906107ec565b6105f8565b005b610187600480360381019061018291906107ec565b61076a565b60405161019491906109da565b60405180910390f35b6040516020016101ac906109b0565b6040516020818303038152906040528051906020012081565b6040516020016101d49061099b565b6040516020818303038152906040528051906020012060008082815260200190815260200160002060003373ffffffffffffffffffffffffffffffffffffffff1673ffffffffffffffffffffffffffffffffffffffff16815260200190815260200160002060009054906101000a900460ff16610286576040517f08c379a000000000000000000000000000000000000000000000000000000000815260040161027d90610a10565b60405180910390fd5b600160008085815260200190815260200160002060008473ffffffffffffffffffffffffffffffffffffffff1673ffffffffffffffffffffffffffffffffffffffff16815260200190815260200160002060006101000a81548160ff0219169083151502179055508173ffffffffffffffffffffffffffffffffffffffff16837f5a06360d65acf95e98445dc834f205063424c636e65418d928cdfabc33a9539960405160405180910390a3505050565b6040516020016103469061099b565b6040516020818303038152906040528051906020012081565b60405160200161036e90610986565b6040516020818303038152906040528051906020012081565b600080600060405160200161039b9061099b565b60405160208183030381529060405280519060200120815260200190815260200160002060008373ffffffffffffffffffffffffffffffffffffffff1673ffffffffffffffffffffffffffffffffffffffff16815260200190815260200160002060009054906101000a900460ff166105a157600080604051602001610420906109b0565b60405160208183030381529060405280519060200120815260200190815260200160002060008373ffffffffffffffffffffffffffffffffffffffff1673ffffffffffffffffffffffffffffffffffffffff16815260200190815260200160002060009054906101000a900460ff16610573576000806040516020016104a5906109c5565b60405160208183030381529060405280519060200120815260200190815260200160002060008373ffffffffffffffffffffffffffffffffffffffff1673ffffffffffffffffffffffffffffffffffffffff16815260200190815260200160002060009054906101000a900460ff166105455760405160200161052790610986565b6040516020818303038152906040528051906020012090508061056e565b604051602001610554906109c5565b604051602081830303815290604052805190602001209050805b61059c565b604051602001610582906109b0565b604051602081830303815290604052805190602001209050805b6105ca565b6040516020016105b09061099b565b604051602081830303815290604052805190602001209050805b50919050565b6040516020016105df906109c5565b6040516020818303038152906040528051906020012081565b6040516020016106079061099b565b6040516020818303038152906040528051906020012060008082815260200190815260200160002060003373ffffffffffffffffffffffffffffffffffffffff1673ffffffffffffffffffffffffffffffffffffffff16815260200190815260200160002060009054906101000a900460ff166106b9576040517f08c379a00000000000000000000000000000000000000000000000000000000081526004016106b090610a10565b60405180910390fd5b600080600085815260200190815260200160002060008473ffffffffffffffffffffffffffffffffffffffff1673ffffffffffffffffffffffffffffffffffffffff16815260200190815260200160002060006101000a81548160ff0219169083151502179055508173ffffffffffffffffffffffffffffffffffffffff16837f76e6093c136cd7faa5a6d92b2b633f3b4595abd4a529b7a13917398355fea69460405160405180910390a3505050565b60006020528160005260406000206020528060005260406000206000915091509054906101000a900460ff1681565b6000813590506107a881610a94565b92915050565b6000813590506107bd81610aab565b92915050565b6000602082840312156107d557600080fd5b60006107e384828501610799565b91505092915050565b600080604083850312156107ff57600080fd5b600061080d858286016107ae565b925050602061081e85828601610799565b9150509250929050565b61083181610a5e565b82525050565b61084081610a6a565b82525050565b6000610853600483610a41565b91507f4e4f4e45000000000000000000000000000000000000000000000000000000006000830152600482019050919050565b6000610893600a83610a41565b91507f464f554e444154494f4e000000000000000000000000000000000000000000006000830152600a82019050919050565b60006108d3600e83610a41565b91507f544f4b454e5f52454345495645520000000000000000000000000000000000006000830152600e82019050919050565b6000610913601183610a41565b91507f544f4b454e5f44495354524942555445520000000000000000000000000000006000830152601182019050919050565b6000610953601d83610a30565b91507f4e6f7420617574686f72697a6564207769746820796f757220726f6c650000006000830152602082019050919050565b600061099182610846565b9150819050919050565b60006109a682610886565b9150819050919050565b60006109bb826108c6565b9150819050919050565b60006109d082610906565b9150819050919050565b60006020820190506109ef6000830184610828565b92915050565b6000602082019050610a0a6000830184610837565b92915050565b60006020820190508181036000830152610a2981610946565b9050919050565b600082825260208201905092915050565b600081905092915050565b6000610a5782610a74565b9050919050565b60008115159050919050565b6000819050919050565b600073ffffffffffffffffffffffffffffffffffffffff82169050919050565b610a9d81610a4c565b8114610aa857600080fd5b50565b610ab481610a6a565b8114610abf57600080fd5b5056fea26469706673582212203b783c212648c68fe64284ccf6a520408968886d1ac3802d7c351c85cd8d012964736f6c63430008000033",
  "immutableReferences": {},
  "source": "// SPDX-License-Identifier: MIT\npragma solidity ^0.8.0;\n    \ncontract OpenCleanUpRoles {\n    event GrantRole(bytes32 indexed role, address indexed account);\n    event RevokeRole(bytes32 indexed role, address indexed account);\n\n    // Ecosystem roles \n    // Ecosystem roles \n    mapping(bytes32 => mapping(address => bool)) public roles;\n    // Foundation 0x42c574c7286eda4a697031a50021e14becf19cc00ff83d93a7547d3809b37f72\n    bytes32 public constant FOUNDATION = keccak256(abi.encodePacked(\"FOUNDATION\"));\n    // TOKEN_RECEIVER 0x5256df45158a1b783d5d1b7eae366e43e8adc1ddfe02d99d60edbfba2f122ee1\n    bytes32 public constant TOKEN_RECEIVER = keccak256(abi.encodePacked(\"TOKEN_RECEIVER\"));\n    // TOKEN_DISTRIBUTER 0xa8be2c61382bed6254f75e306150d63d18d487cc8453e448fff554cbc742e962\n    bytes32 public constant TOKEN_DISTRIBUTER = keccak256(abi.encodePacked(\"TOKEN_DISTRIBUTER\"));\n    // NONE 0x1b489cce9d784ec074d286492a1ccc9efab255c8a4e6b74d2406b5b7674c6e74\n    bytes32 public constant NONE = keccak256(abi.encodePacked(\"NONE\"));\n\n\n    modifier onlyRole(bytes32 _role) {\n        require(roles[_role][msg.sender], \"Not authorized with your role\");\n        _;\n    }\n\n    function grantRole(bytes32 _role, address _account) external onlyRole(FOUNDATION) {\n           roles[_role][_account] = true;\n        emit GrantRole(_role, _account);\n    }\n\n    function revokeRole(bytes32 _role, address _account) external onlyRole(FOUNDATION) {\n        roles[_role][_account] = false;\n        emit RevokeRole(_role, _account);\n    }\n\n    function roleOf(address _address) external view returns(bytes32 role) {\n        roles[FOUNDATION][_address] ? role = FOUNDATION :  \n        roles[TOKEN_RECEIVER][_address] ? role = TOKEN_RECEIVER :\n        roles[TOKEN_DISTRIBUTER][_address] ? role = TOKEN_DISTRIBUTER : role = NONE;\n    }\n}",
  "sourcePath": "/home/martijn/consenSys/blockchain-developer-bootcamp-final-project/contracts/OpenCleanUpRoles.sol",
  "compiler": {
    "name": "solc",
    "version": "0.8.0+commit.c7dfd78e.Emscripten.clang"
  },
  "schemaVersion": "3.4.3",
  "updatedAt": "2021-12-15T13:45:26.297Z",
  "networkType": "ethereum",
  "devdoc": {
    "kind": "dev",
    "methods": {},
    "version": 1
  },
  "userdoc": {
    "kind": "user",
    "methods": {},
    "version": 1
  }
}